S011000070726F6A636F6465732E737265634A
S11300000C942A000C9447000C9447000C9447006D
S11300100C9447000C9447000C9447000C94470040
S11300200C9447000C9447000C9447000C94470030
S11300300C9447000C9447000C9447000C94470020
S11300400C9447000C9447000C9447000C94470010
S11300500C94470011241FBECFE5D8E0DEBFCDBF0E
S113006011E0A0E6B0E0EAEDFBE002C005900D92DD
S1130070A03DB107D9F721E0A0EDB1E001C01D9288
S1130080A33DB207E1F70E94F7040C94EB050C942E
S113009000000895089508951BB888E18AB986E898
S11300A080BD8CE089B910BC08955F9BFECF8CB1F4
S11300B008958BB1807808958CB95D9BFECF089527
S11300C0CF93DF93EC018881882331F021960E943D
S11300D05C0089918111FBCFDF91CF9108958AB3A0
S11300E083708ABB8FEF87BB88BB089589B38295E1
S11300F08F7008950F931F93CF93C9B3C295CF7098
S11301000C2F10E0B80181E890E00E944B00C0FD84
S11301100CC081E090E09801082E02C03595279527
S11301200A94E2F720FF04C00CC080E090E009C00C
S113013001968430910579F78AE890E00E9449009D
S11301408FEFCF911F910F9108950F931F93CF932A
S1130150DF93C7E0D0E001E010E028B3C8010C2E23
S113016002C0880F991F0A94E2F7822788BB66B3FE
S113017070E088E990E00E944B0089B382958F700B
S113018011F48C2F07C0219740F78EE990E00E946C
S113019049008FEFDF91CF911F910F910895CF9375
S11301A0DF930E947A00C82F0E94A500D82F6C2FDD
S11301B00C2E000C770B81EC90E00E944A006D2F0E
S11301C00D2E000C770B85EC90E00E944A008C2FDA
S11301D0880F880F880F8D0FDF91CF9108958823A2
S11301E019F0813039F024C081B38C6F81BB0E9437
S11301F02D03089582E00E94820480E00E94F304AB
S11302002FEF84E39CE0215080409040E1F700C050
S1130210000081E00E94F3042FEF84E39CE021506E
S113022080409040E1F700C000000E94410408951E
S113023089EC90E00E9449000895882319F08130E8
S113024021F006C00E94090308950E944104089504
S113025088EE90E00E9449000895882319F08130C7
S113026029F008C0CB010E94A6030895CB010E9487
S11302707304089588EE90E00E9449000895962F33
S1130280882319F0813031F009C0642F892F0E942E
S113029010030895842F0E942B0408958FE091E0A9
S11302A00E9449000895CF93DF9300D0CDB7DEB705
S11302B069831A82BE016F5F7F4F0E942D010F90E8
S11302C00F90DF91CF910895672B09F09FC000979D
S11302D011F4D89808958130910511F4D9980895AE
S11302E08230910511F4DA9808958330910511F460
S11302F0DB9808958430910511F4DC9808958530D5
S1130300910511F4DD9808958630910511F4DE9875
S113031008958730910511F4DF9808958A30910586
S113032011F4C09808958B30910511F4C198089583
S11303308C30910511F4C29808958D30910511F413
S1130340C39808958E30910511F4C49808958F30A0
S1130350910511F4C59808958031910511F4C6985A
S113036008958131910511F4C79808958431910558
S113037011F4A89808958531910511F4A998089568
S11303808631910511F4AA9808958731910511F4E5
S1130390AB9808958831910511F4AC98089589318A
S11303A0910511F4AD9808958A31910511F4AE9830
S11303B008958B31910511F4AF9808958E3191050C
S11303C011F4909808958F31910511F4919808953E
S11303D08032910511F4929808958132910511F4B7
S11303E0939808958232910511F494980895833274
S11303F0910511F4959808958432910511F4969815
S11304000895859709F09FC097980895009711F46F
S1130410D89A08958130910511F4D99A08958230BB
S1130420910511F4DA9A08958330910511F4DB9A59
S113043008958430910511F4DC9A0895853091056E
S113044011F4DD9A08958630910511F4DE9A089529
S11304508730910511F4DF9A08958A30910511F4DB
S1130460C09A08958B30910511F4C19A08958C3087
S1130470910511F4C29A08958D30910511F4C39A2F
S113048008958E30910511F4C49A08958F30910522
S113049011F4C59A08958031910511F4C69A08950E
S11304A08131910511F4C79A08958431910511F4AD
S11304B0A89A08958531910511F4A99A0895863171
S11304C0910511F4AA9A08958731910511F4AB9A14
S11304D008958831910511F4AC9A089589319105F4
S11304E011F4AD9A08958A31910511F4AE9A0895E4
S11304F08B31910511F4AF9A08958E31910511F461
S1130500909A08958F31910511F4919A089580324B
S1130510910511F4929A08958132910511F4939AF8
S113052008958232910511F4949A089583329105C5
S113053011F4959A08958432910511F4969A0895C8
S1130540859709F4979A0895CF93C82F80FF07C021
S113055061E070E083E290E00E94640106C060E024
S113056070E083E290E00E946401C1FF07C061E093
S113057070E082E290E00E94640106C060E070E0F6
S113058082E290E00E946401C2FF07C061E070E073
S113059081E290E00E94640106C060E070E081E2C4
S11305A090E00E946401C3FF07C061E070E080E254
S11305B090E00E94640106C060E070E080E290E098
S11305C00E946401CF910895CF93C82F60E070E03A
S11305D085E290E00E9464018C2F0E94A40261E0F5
S11305E070E084E290E00E9464018FEC97E0019750
S11305F0F1F700C0000060E070E084E290E00E9447
S113060064018FEC97E00197F1F700C00000CF91EF
S1130610089580E00E94E40281E00E94E4020895CB
S1130620CF93C62F81110BC080E8860F82958F70FF
S11306300E94E4028C2F8F700E94E4020CC081306F
S113064051F480EC860F82958F700E94E4028C2F07
S11306508F700E94E402CF91089580E00E94A4026A
S11306608FE39CE90197F1F700C0000083E00E944A
S1130670E4028FE097E20197F1F700C0000083E005
S11306800E94E4028FEE95E50197F1F700C00000A7
S113069083E00E94E40282E00E94E40282E00E947D
S11306A0E40288E00E94E40280E00E94E4028CE01C
S11306B00E94E40280E00E94E40286E00E94E402D8
S11306C00E9409030895CF93C82F61E070E085E28A
S11306D090E00E9464018C2F82958F700E94A40286
S11306E061E070E084E290E00E9464018FEC97E0A6
S11306F00197F1F700C0000060E070E084E290E050
S11307000E9464018FEC97E00197F1F700C00000AC
S11307108C2F8F700E94A40261E070E084E290E06C
S11307200E9464018FEC97E00197F1F700C000008C
S113073060E070E084E290E00E9464018FEC97E056
S11307400197F1F700C00000CF910895CF93DF9394
S1130750EC018881882331F021960E9463038991FA
S11307608111FBCFDF91CF910895EF92FF920F9308
S11307701F93CF93DF937B01142F880F0E94BA0538
S1130780811112C0112391F0E7011150012F10E0E3
S11307900F5F1F4F0E0D1F1D89910E94DE05C017AC
S11307A0D107D1F7C0E003C0C1E001C0C0E00E949E
S11307B0D8058C2FDF91CF911F910F91FF90EF906F
S11307C008950F931F93CF93DF9300D000D01F920F
S11307D0CDB7DEB7082F683071F4811102C080E014
S11307E001C088E08093600041E060E670E087E249
S11307F00E94B50326C080916000162F182B198320
S1130800802F807F8460812B8A838B7F8B8320E180
S1130810029FC0011124812B84608C838B7F8D8384
S113082045E0BE016F5F7F4F87E20E94B50310FD74
S113083008C0033030F4E3EFF1E03197F1F700C082
S113084000000F900F900F900F900F90DF91CF91B9
S11308501F910F910895CF93DF93D82FC62FE62FC2
S1130860F0E0EF59FF4F982F9068808160E0892B6A
S11308700E94E103D093D101C093D201DF91CF91C3
S1130880089560E081E00E94E1031092D201109289
S1130890D1010895CF93C82F9091D1018091D001B7
S11308A0981718F4CA3059F414C06091D2016F5FDC
S11308B06093D20180E00E942B04CA3091F08091B1
S11308C0D1018F5F8093D10161E08C2F0E94E103FD
S11308D008C06091D2016F5F6093D20180E00E94F2
S11308E02B04CF910895CF93DF93EC018881882363
S11308F031F021960E944A0489918111FBCFDF9146
S1130900CF9108950F931F93CF93DF9300D000D01E
S113091000D0CDB7DEB7082F80E3898394E39A83B0
S11309208B8380E28C8394E29D838E8380E1809329
S1130930D001E1E6F0E08081805F82838181805F85
S11309408383BD9AC59A0E94B6058BE49DE1019705
S1130950F1F700C0000043E0BE016F5F7F4F87E204
S11309600E94B503182F81EE94E00197F1F700C0BF
S1130970000043E0BE016F5F7F4F87E20E94B50332
S1130980182B43E0BE016F5F7F4F87E20E94B503DF
S1130990182B43E0BE016C5F7F4F87E20E94B503D2
S11309A0182B60E088E20E94E103812B09F0C598CE
S11309B060E08CE00E94E10360E086E00E94E103D5
S11309C060E081E00E94E10360E0802F0E94E10387
S11309D026960FB6F894DEBF0FBECDBFDF91CF9140
S11309E01F910F91089568E00E94E103089580E04B
S11309F00E94EF0081E00E94EF000E946F0063E319
S1130A0071E080E00E942D0140E050E060E070E081
S1130A1080E00E943F010E944C002FEF84E39CE0A1
S1130A20215080409040E1F700C0000080E00E9427
S1130A301D016CE371E080E00E942D010E945900C9
S1130A40882331F00E945500682F80E00E945301F2
S1130A500E947600882391F38FE39CE90197F1F7D4
S1130A6000C000000E947600882309F47CC00E9424
S1130A70CF0081110DC080E491E00E94600080E00D
S1130A800E941D0165E471E080E00E942D0162C0B6
S1130A90813069F489E491E00E94600080E00E9462
S1130AA01D0164E571E080E00E942D0153C0823095
S1130AB069F48EE591E00E94600080E00E941D01CF
S1130AC06AE671E080E00E942D0144C0833069F43D
S1130AD085E791E00E94600080E00E941D0161E8CA
S1130AE071E080E00E942D0135C0843069F48CE807
S1130AF091E00E94600080E00E941D0167E971E0BE
S1130B0080E00E942D0126C0853069F481EA91E0DD
S1130B100E94600080E00E941D016BEA71E080E0A9
S1130B200E942D0117C0863069F484EB91E00E9485
S1130B30600080E00E941D0160EC71E080E00E9492
S1130B402D0108C080E00E941D016BEC71E080E083
S1130B500E942D019FEF24E38CE0915020408040BF
S1130B60E1F700C000000E946F0068CF11B880E276
S1130B7080B9089594EA96BF06B607FEFDCF91B1F9
S1130B80987F983011F0903179F483B984E886BF66
S1130B9006B607FEFDCF91B1987F983139F081E018
S1130BA0903429F480E0089581E0089580E0089568
S1130BB084E986BF06B604FCFDCF089583B984E8B2
S1130BC086BF06B607FEFDCF91B1987F81E09832CB
S10D0BD009F480E00895F894FFCFC3
S1130BDA0880C000006E65774461746120697320DF
S1130BEA4E756C6C003132330041424300616263DA
S1130BFA0050494E5F726F773A004B6579706164B1
S1130C0A476574526F773A0050494E423A004B6531
S1130C1A79706164476574436F6C3A004B65795027
S1130C2A61645F4164644B65793A2033317C3330C3
S1130C3A00726F7700636F6C004C63645F496E697E
S1130C4A743A204C636454797065204E6F747375DA
S1130C5A70706F72746564004C63645F436C6561A1
S1130C6A7253637265656E3A204C63645479706595
S1130C7A204E6F7420737570706F72746564004CC3
S1130C8A63645F506F736974696F6E3A204C63646E
S1130C9A54797065204E6F7420737570706F727416
S1130CAA6564007374617274696E670072653A00F0
S1130CBA41540D0A0061743A0041542B524553457C
S1130CCA540D0A0061742B72657365743A004154B9
S1130CDA2B524F4C453D300D0A0041542B524F4C78
S1130CEA453D303A0041542B524F4C453D310D0A93
S1130CFA0041542B524F4C453D313A0041542B523A
S1130D0A4D4141440D0A0041542B524D4141443A4C
S1130D1A0041542B4F52474C0D0A0041542B4F5259
S1130D2A474C3A0041542B53544154453F0D0A0051
S1130D3A41542B53544154453F3A006E6F3A0000D4
S9030000FC
