:100000000C942A000C9447000C9447000C94470071
:100010000C9447000C9447000C9447000C94470044
:100020000C9447000C9447000C9447000C94470034
:100030000C9447000C9447000C9447000C94470024
:100040000C9447000C9447000C9447000C94470014
:100050000C94470011241FBECFE5D8E0DEBFCDBF12
:1000600010E0A0E6B0E0E6EBF9E002C005900D92EA
:10007000A83EB107D9F720E0A8EEB0E001C01D927C
:10008000AB3EB207E1F70E9474040C94D9040C94BF
:1000900000000E945D0008951BB888E18AB986E8D7
:1000A00080BD8CE089B910BC08955F9BFECF8CB1F8
:1000B00008958CB95D9BFECF0895CF93DF93EC013B
:1000C0008881882331F021960E94590089918111FD
:1000D000FBCFDF91CF910895882319F0813039F05B
:1000E00024C081B38C6F81BB0E94AA02089582E074
:1000F0000E94FF0380E00E9470042FEF84E39CE0E5
:10010000215080409040E1F700C0000081E00E9453
:1001100070042FEF84E39CE0215080409040E1F791
:1001200000C000000E94BE03089585E690E00E9492
:1001300049000895882319F0813021F006C00E94FB
:10014000860208950E94BE03089584E890E00E940C
:1001500049000895882319F0813029F008C0CB01A7
:100160000E9423030895CB010E94F003089584E8C0
:1001700090E00E9449000895962F882319F081305D
:1001800031F009C0642F892F0E948D020895842FB9
:100190000E94A80308958BEA90E00E944900089508
:1001A000CF93DF9300D0CDB7DEB769831A82BE014B
:1001B0006F5F7F4F0E94AA000F900F90DF91CF9149
:1001C0000895672B09F09FC0009711F4D8980895FF
:1001D0008130910511F4D99808958230910511F478
:1001E000DA9808958330910511F4DB9808958430EE
:1001F000910511F4DC9808958530910511F4DD988E
:1002000008958630910511F4DE98089587309105A0
:1002100011F4DF9808958A30910511F4C09808957B
:100220008B30910511F4C19808958C30910511F42B
:10023000C29808958D30910511F4C39808958E30B9
:10024000910511F4C49808958F30910511F4C59863
:1002500008958031910511F4C69808958131910572
:1002600011F4C79808958431910511F4A898089560
:100270008531910511F4A99808958631910511F4FD
:10028000AA9808958731910511F4AB9808958831A3
:10029000910511F4AC9808958931910511F4AD9848
:1002A00008958A31910511F4AE9808958B31910526
:1002B00011F4AF9808958E31910511F49098089536
:1002C0008F31910511F4919808958032910511F4C0
:1002D000929808958132910511F49398089582328D
:1002E000910511F4949808958332910511F495982D
:1002F00008958432910511F496980895859709F030
:100300009FC097980895009711F4D89A0895813066
:10031000910511F4D99A08958230910511F4DA9A71
:1003200008958330910511F4DB9A08958430910586
:1003300011F4DC9A08958530910511F4DD9A089541
:100340008630910511F4DE9A08958730910511F4F5
:10035000DF9A08958A30910511F4C09A08958B3080
:10036000910511F4C19A08958C30910511F4C29A47
:1003700008958D30910511F4C39A08958E3091053A
:1003800011F4C49A08958F30910511F4C59A089517
:100390008031910511F4C69A08958131910511F4C7
:1003A000C79A08958431910511F4A89A089585316A
:1003B000910511F4A99A08958631910511F4AA9A2C
:1003C00008958731910511F4AB9A0895883191050C
:1003D00011F4AC9A08958931910511F4AD9A0895FC
:1003E0008A31910511F4AE9A08958B31910511F47B
:1003F000AF9A08958E31910511F4909A08958F3136
:10040000910511F4919A08958032910511F4929A10
:1004100008958132910511F4939A089582329105DD
:1004200011F4949A08958332910511F4959A0895E0
:100430008432910511F4969A0895859709F4979A54
:100440000895CF93C82F80FF07C061E070E083E27A
:1004500090E00E94E10006C060E070E083E290E07E
:100460000E94E100C1FF07C061E070E082E290E01D
:100470000E94E10006C060E070E082E290E00E942D
:10048000E100C2FF07C061E070E081E290E00E94FD
:10049000E10006C060E070E081E290E00E94E100CF
:1004A000C3FF07C061E070E080E290E00E94E100DD
:1004B00006C060E070E080E290E00E94E100CF9131
:1004C0000895CF93C82F60E070E085E290E00E942D
:1004D000E1008C2F0E94210261E070E084E290E054
:1004E0000E94E1008FEC97E00197F1F700C0000057
:1004F00060E070E084E290E00E94E1008FEC97E021
:100500000197F1F700C00000CF91089580E00E94AC
:10051000610281E00E9461020895CF93C62F81118C
:100520000BC080E8860F82958F700E9461028C2F2D
:100530008F700E9461020CC0813051F480EC860FF4
:1005400082958F700E9461028C2F8F700E946102D1
:10055000CF91089580E00E9421028FE39CE90197EA
:10056000F1F700C0000083E00E9461028FE097E293
:100570000197F1F700C0000083E00E9461028FEE56
:1005800095E50197F1F700C0000083E00E94610249
:1005900082E00E94610282E00E94610288E00E9483
:1005A000610280E00E9461028CE00E94610280E0B2
:1005B0000E94610286E00E9461020E948602089504
:1005C000CF93C82F61E070E085E290E00E94E100E7
:1005D0008C2F82958F700E94210261E070E084E28E
:1005E00090E00E94E1008FEC97E00197F1F700C0E6
:1005F000000060E070E084E290E00E94E1008FEC97
:1006000097E00197F1F700C000008C2F8F700E94D7
:10061000210261E070E084E290E00E94E1008FEC52
:1006200097E00197F1F700C0000060E070E084E21D
:1006300090E00E94E1008FEC97E00197F1F700C095
:100640000000CF910895CF93DF93EC018881882338
:1006500031F021960E94E00289918111FBCFDF9158
:10066000CF910895EF92FF920F931F93CF93DF9353
:100670007B01142F880F0E94A804811112C011233E
:1006800091F0E7011150012F10E00F5F1F4F0E0D89
:100690001F1D89910E94CC04C017D107D1F7C0E07B
:1006A00003C0C1E001C0C0E00E94C6048C2FDF91EE
:1006B000CF911F910F91FF90EF9008950F931F938B
:1006C000CF93DF9300D000D01F92CDB7DEB7082FB5
:1006D000683071F4811102C080E001C088E080932D
:1006E000600041E060E670E087E20E94320326C0CD
:1006F00080916000162F182B1983802F807F8460D3
:10070000812B8A838B7F8B8320E1029FC001112480
:10071000812B84608C838B7F8D8345E0BE016F5F6E
:100720007F4F87E20E94320310FD08C0033030F48F
:10073000E3EFF1E03197F1F700C000000F900F9068
:100740000F900F900F90DF91CF911F910F9108950F
:10075000CF93DF93D82FC62FE62FF0E0EF59FF4F4E
:10076000982F9068808160E0892B0E945E03D0936F
:10077000E900C093EA00DF91CF91089560E081E045
:100780000E945E031092EA001092E9000895CF9350
:10079000C82F9091E9008091E800981718F4CA30AA
:1007A00059F414C06091EA006F5F6093EA0080E042
:1007B0000E94A803CA3091F08091E9008F5F809376
:1007C000E90061E08C2F0E945E0308C06091EA009E
:1007D0006F5F6093EA0080E00E94A803CF910895C4
:1007E000CF93DF93EC018881882331F021960E941A
:1007F000C70389918111FBCFDF91CF9108950F93AA
:100800001F93CF93DF9300D000D000D0CDB7DEB7D9
:10081000082F80E3898394E39A838B8380E28C831F
:1008200094E29D838E8380E18093E800E1E6F0E02E
:100830008081805F82838181805F8383BD9AC59A36
:100840000E94A4048BE49DE10197F1F700C0000031
:1008500043E0BE016F5F7F4F87E20E943203182F93
:1008600081EE94E00197F1F700C0000043E0BE0183
:100870006F5F7F4F87E20E943203182B43E0BE0177
:100880006F5F7F4F87E20E943203182B43E0BE0167
:100890006C5F7F4F87E20E943203182B60E088E292
:1008A0000E945E03812B09F0C59860E08CE00E94F5
:1008B0005E0360E086E00E945E0360E081E00E94EB
:1008C0005E0360E0802F0E945E0326960FB6F894C8
:1008D000DEBF0FBECDBFDF91CF911F910F91089565
:1008E00068E00E945E03089580E00E946C0081E051
:1008F0000E946C006FEC70E080E00E94AA0040E073
:1009000050E060E070E080E00E94BC000E944C007B
:100910002FEF84E39CE0215080409040E1F700C03D
:10092000000080E00E949A0088ED90E00E945D0047
:1009300064EE70E080E00E94AA000E945500682FDB
:1009400080E00E94D000F9CF11B880E280B908950C
:1009500094EA96BF06B607FEFDCF91B1987F983016
:1009600011F0903179F483B984E886BF06B607FEAA
:10097000FDCF91B1987F983139F081E0903429F41E
:1009800080E0089581E0089580E0089584E986BFBD
:1009900006B604FCFDCF089583B984E886BF06B689
:1009A00007FEFDCF91B1987F81E0983209F480E095
:0609B0000895F894FFCF4A
:1009B6000880C000004C63645F496E69743A204C3D
:1009C600636454797065204E6F74737570706F72BE
:1009D600746564004C63645F436C65617253637253
:1009E60065656E3A204C636454797065204E6F7469
:1009F60020737570706F72746564004C63645F5029
:100A06006F736974696F6E3A204C636454797065CC
:100A1600204E6F7420737570706F72746564007306
:100A260074617274696E670041542B524F4C453D98
:080A3600310D0A0072653A005F
:00000001FF
