:100000000C942A000C9447000C9447000C94470071
:100010000C9447000C9447000C9447000C94470044
:100020000C9447000C9447000C9447000C94470034
:100030000C9447000C9447000C9447000C94470024
:100040000C9447000C9447000C9447000C94470014
:100050000C94470011241FBECFE5D8E0DEBFCDBF12
:1000600010E0A0E6B0E0E2E7F9E002C005900D92F2
:10007000AE37B107D9F720E0AEE7B0E001C01D927E
:10008000A138B207E1F70E944D040C94B7040C9418
:1000900000000F931F93CF93DF938B01D42F880F12
:1000A0000E948404882351F0C1E00CC0F801EC0FD9
:1000B000F11D80810E94A904CF5F01C0C0E0CD176F
:1000C000A8F3C0E00E94A3048C2FDF91CF911F9171
:1000D0000F9108950F931F93CF93DF9300D000D01B
:1000E0001F92CDB7DEB7082F683071F4882311F066
:1000F00088E001C080E08093600041E060E670E04D
:1001000087E20E94490026C080916000162F182BBC
:100110001983802F807F812B84608A838B7F8B83E0
:1001200020E1029FC0011124812B84608C838B7F8E
:100130008D8345E0BE016F5F7F4F87E20E944900DB
:1001400010FD08C0033030F4E3EFF1E03197F1F730
:1001500000C000000F900F900F900F900F90DF9154
:10016000CF911F910F910895CF93DF93D82FC62F72
:10017000E62FF0E0EF59FF4F80818D2B60E0806823
:100180000E946A00D0937F00C0938000DF91CF91DE
:10019000089560E081E00E946A0010928000109251
:1001A0007F000895CF93C82F90917F0080917E00AB
:1001B000981710F4CA3041F4609180006F5F60932B
:1001C000800080E00E94B400CA3049F080917F0036
:1001D0008F5F80937F0061E08C2F0E946A00CF9137
:1001E0000895CF93DF93EC0103C021960E94D200C3
:1001F00088818111FACFDF91CF9108950F931F93DA
:10020000CF93DF9300D000D000D0CDB7DEB7082F5A
:1002100080E3898394E39A838B8380E28C8394E2E6
:100220009D838E8380E180937E00E1E6F0E0808113
:10023000805F82838181805F838387B3806287BB95
:1002400088B3806288BB0E9480048BE49DE10197A3
:10025000F1F700C0000043E0BE016F5F7F4F87E20F
:100260000E944900182F81EE94E00197F1F700C039
:10027000000043E0BE016F5F7F4F87E20E944900AC
:10028000182B43E0BE016F5F7F4F87E20E94490059
:10029000182B43E0BE016C5F7F4F87E20E9449004C
:1002A000182B60E088E20E946A00812B19F088B365
:1002B0008F7D88BB60E08CE00E946A0060E086E091
:1002C0000E946A0060E081E00E946A0060E0802F86
:1002D0000E946A0026960FB6F894DEBF0FBECDBF0F
:1002E000DF91CF911F910F91089568E00E946A00FD
:1002F0000895672B09F0DFC0009721F48BB38E7F40
:100300008BBB08958130910521F48BB38D7F8BBB1E
:1003100008958230910521F48BB38B7F8BBB0895B8
:100320008330910521F48BB3877F8BBB0895843094
:10033000910521F48BB38F7E8BBB08958530910599
:1003400021F48BB38F7D8BBB08958630910521F40A
:100350008BB38F7B8BBB08958730910521F48BB3D2
:100360008F778BBB08958A30910521F488B38E7FF7
:1003700088BB08958B30910521F488B38D7F88BBAD
:1003800008958C30910521F488B38B7F88BB089544
:100390008D30910521F488B3877F88BB08958E3016
:1003A000910521F488B38F7E88BB08958F30910525
:1003B00021F488B38F7D88BB08958031910521F4A5
:1003C00088B38F7B88BB08958131910521F488B370
:1003D0008F7788BB08958431910521F485B38E7F92
:1003E00085BB08958531910521F485B38D7F85BB4B
:1003F00008958631910521F485B38B7F85BB0895DF
:100400008731910521F485B3877F85BB08958831B5
:10041000910521F485B38F7E85BB089589319105BF
:1004200021F485B38F7D85BB08958A31910521F430
:1004300085B38F7B85BB08958B31910521F485B3FE
:100440008F7785BB08958E31910521F482B38E7F1D
:1004500082BB08958F31910521F482B38D7F82BBD9
:1004600008958032910521F482B38B7F82BB089579
:100470008132910521F482B3877F82BB0895823255
:10048000910521F482B38F7E82BB0895833291055A
:1004900021F482B38F7D82BB08958432910521F4CB
:1004A00082B38F7B82BB0895859709F0E1C082B348
:1004B0008F7782BB0895009721F48BB381608BBB4B
:1004C00008958130910521F48BB382608BBB089530
:1004D0008230910521F48BB384608BBB0895833007
:1004E000910521F48BB388608BBB0895843091050E
:1004F00021F48BB380618BBB08958530910521F485
:100500008BB380628BBB08958630910521F48BB349
:1005100080648BBB08958730910521F48BB380688C
:100520008BBB08958A30910521F488B3816088BB24
:1005300008958B30910521F488B3826088BB0895BB
:100540008C30910521F488B3846088BB08958D3088
:10055000910521F488B3886088BB08958E30910599
:1005600021F488B3806188BB08958F30910521F410
:1005700088B3806288BB08958031910521F488B3E7
:10058000806488BB08958131910521F488B3806827
:1005900088BB08958431910521F485B3816085BBC2
:1005A00008958531910521F485B3826085BB089556
:1005B0008631910521F485B3846085BB0895873128
:1005C000910521F485B3886085BB08958831910534
:1005D00021F485B3806185BB08958931910521F4AB
:1005E00085B3806285BB08958A31910521F485B376
:1005F000806485BB08958B31910521F485B38068B3
:1006000085BB08958E31910521F482B3816082BB50
:1006100008958F31910521F482B3826082BB0895E1
:100620008032910521F482B3846082BB08958132C7
:10063000910521F482B3886082BB089582329105CE
:1006400021F482B3806182BB08958332910521F445
:1006500082B3806282BB08958432910521F482B313
:10066000806482BB0895859719F482B3806882BB49
:100670000895CF93C82F80FF07C061E070E083E248
:1006800090E00E94790106C060E070E083E290E0B3
:100690000E947901C1FF07C061E070E082E290E052
:1006A0000E94790106C060E070E082E290E00E9462
:1006B0007901C2FF07C061E070E081E290E00E9432
:1006C000790106C060E070E081E290E00E9479016B
:1006D000C3FF07C061E070E080E290E00E94790112
:1006E00006C060E070E080E290E00E947901CF9166
:1006F0000895CF93C82F60E070E085E290E00E94FB
:1007000079018C2F0E94390361E070E084E290E06F
:100710000E94790189EF90E00197F1F700C0000095
:1007200060E070E084E290E00E94790189EF90E05F
:100730000197F1F700C00000CF910895CF93813069
:1007400061F480E8860FC62FCF7082958F700E946B
:1007500079038C2F0E9479030DC0823059F480EC0C
:10076000860FC62FCF7082958F700E9479038C2FD1
:100770000E947903CF91089580E00E94390387E8B1
:1007800093E10197F1F700C0000083E00E94790334
:1007900081EE94E00197F1F700C0000083E00E9431
:1007A00079038DEB9AE00197F1F700C0000083E038
:1007B0000E94790382E00E94790382E00E9479031B
:1007C00088E00E94790380E00E9479038CE00E9417
:1007D000790380E00E94790386E00E9479030895FE
:1007E000CF93DF93D82FDF70C82FC07F61E070E018
:1007F00085E290E00E9479018C2F82958F700E9493
:10080000390361E070E084E290E00E94790189EFB1
:1008100090E00197F1F700C0000060E070E084E232
:1008200090E00E94790189EF90E00197F1F700C014
:1008300000008D2F0E94390361E070E084E290E0B7
:100840000E94790189EF90E00197F1F700C0000064
:1008500060E070E084E290E00E94790189EF90E02E
:100860000197F1F700C00000DF91CF9108950F9339
:100870001F93CF93DF938C01C0E0D0E003C00E94B0
:10088000F0032196F801EC0FFD1F80818111F7CF55
:10089000DF91CF911F910F91089581B38C6F81BB30
:1008A0000E94BC0361E081E00E949E0385E690E027
:1008B0000E94370482E00E94FE0080E00E947501E1
:1008C0008FE493EC0197F1F700C0000081E00E94F3
:1008D00075018FE493EC0197F1F700C000000E94CE
:1008E000C90060E080E00E94B40083E790E00E94CD
:1008F000F10083E294EF0197F1F700C00000EFCF21
:1009000011B88CE080B9089594EA96BF06B607FE48
:10091000FDCF91B1987F983011F0903171F483B987
:1009200084E886BF06B607FEFDCF81B1887F883197
:1009300031F0803431F480E0089581E0089580E062
:10094000089581E0089584E986BF06B604FCFDCFD2
:10095000089583B984E886BF06B607FEFDCF81B14E
:10096000887F883211F081E0089580E00895F8943E
:02097000FFCFB7
:100972000880C00000657461206B69206A696E6935
:0E0982007368004E6120726520766169000086
:00000001FF
