S00C0000636F64652E737265637D
S11300000C942A000C9447000C9447000C9447006D
S11300100C9447000C9447000C9447000C94470040
S11300200C9447000C9447000C9447000C94470030
S11300300C9447000C9447000C9447000C94470020
S11300400C9447000C9447000C9447000C94470010
S11300500C94470011241FBECFE5D8E0DEBFCDBF0E
S113006010E0A0E6B0E0EEE0F2E102C005900D92EF
S1130070AC3CB107D9F720E0ACECB0E001C01D9274
S1130080A43DB207E1F70E94B7040C9405090C944F
S11300900000672B09F0DFC0009721F48BB38E7F3B
S11300A08BBB08958130910521F48BB38D7F8BBB7D
S11300B008958230910521F48BB38B7F8BBB089517
S11300C08330910521F48BB3877F8BBB08958430F3
S11300D0910521F48BB38F7E8BBB089585309105F8
S11300E021F48BB38F7D8BBB08958630910521F469
S11300F08BB38F7B8BBB08958730910521F48BB331
S11301008F778BBB08958A30910521F488B38E7F55
S113011088BB08958B30910521F488B38D7F88BB0B
S113012008958C30910521F488B38B7F88BB0895A2
S11301308D30910521F488B3877F88BB08958E3074
S1130140910521F488B38F7E88BB08958F30910583
S113015021F488B38F7D88BB08958031910521F403
S113016088B38F7B88BB08958131910521F488B3CE
S11301708F7788BB08958431910521F485B38E7FF0
S113018085BB08958531910521F485B38D7F85BBA9
S113019008958631910521F485B38B7F85BB08953D
S11301A08731910521F485B3877F85BB0895883114
S11301B0910521F485B38F7E85BB0895893191051E
S11301C021F485B38F7D85BB08958A31910521F48F
S11301D085B38F7B85BB08958B31910521F485B35D
S11301E08F7785BB08958E31910521F482B38E7F7C
S11301F082BB08958F31910521F482B38D7F82BB38
S113020008958032910521F482B38B7F82BB0895D7
S11302108132910521F482B3877F82BB08958232B3
S1130220910521F482B38F7E82BB089583329105B8
S113023021F482B38F7D82BB08958432910521F429
S113024082B38F7B82BB0895859709F0E1C082B3A6
S11302508F7782BB0895009721F48BB381608BBBA9
S113026008958130910521F48BB382608BBB08958E
S11302708230910521F48BB384608BBB0895833065
S1130280910521F48BB388608BBB0895843091056C
S113029021F48BB380618BBB08958530910521F4E3
S11302A08BB380628BBB08958630910521F48BB3A8
S11302B080648BBB08958730910521F48BB38068EB
S11302C08BBB08958A30910521F488B3816088BB83
S11302D008958B30910521F488B3826088BB08951A
S11302E08C30910521F488B3846088BB08958D30E7
S11302F0910521F488B3886088BB08958E309105F8
S113030021F488B3806188BB08958F30910521F46E
S113031088B3806288BB08958031910521F488B345
S1130320806488BB08958131910521F488B3806885
S113033088BB08958431910521F485B3816085BB20
S113034008958531910521F485B3826085BB0895B4
S11303508631910521F485B3846085BB0895873186
S1130360910521F485B3886085BB08958831910592
S113037021F485B3806185BB08958931910521F409
S113038085B3806285BB08958A31910521F485B3D4
S1130390806485BB08958B31910521F485B3806811
S11303A085BB08958E31910521F482B3816082BBAF
S11303B008958F31910521F482B3826082BB089540
S11303C08032910521F482B3846082BB0895813226
S11303D0910521F482B3886082BB0895823291052D
S11303E021F482B3806182BB08958332910521F4A4
S11303F082B3806282BB08958432910521F482B372
S1130400806482BB0895859719F482B3806882BBA7
S11304100895CF93C82F80FF07C061E070E082E2A7
S113042090E00E94490006C060E070E082E290E043
S11304300E944900C1FF07C061E070E083E290E0E0
S11304400E94490006C060E070E083E290E00E94F0
S11304504900C2FF07C061E070E084E290E00E94BE
S1130460490006C060E070E084E290E00E94490028
S1130470C3FF07C061E070E085E290E00E9449009C
S113048006C060E070E085E290E00E944900CF91F0
S11304900895CF93C82F60E070E08AE190E00E9455
S11304A049008C2F0E94090261E070E08BE190E02A
S11304B00E9449008FE99FE00197F1F700C0000016
S11304C060E070E08BE190E00E9449008FE99FE0DA
S11304D00197F1F700C00000CF91089580E00E94D9
S11304E0490281E00E9449020895CF93813099F432
S11304F080E8860F90E095958795959587959595D5
S1130500879595958795C62FCF700E9449028C2FA9
S11305100E94490214C0823091F480EC860F90E06E
S113052095958795959587959595879595958795AF
S1130530C62FCF700E9449028C2F0E944902CF918E
S1130540089580E00E9409022FEF89EF90E0215086
S113055080409040E1F700C0000083E00E9449021F
S11305608FE19EE40197F1F700C0000083E00E9450
S113057049028FED9BEA0197F1F700C0000083E088
S11305800E94490282E00E94490282E00E944902DC
S113059088E00E94490280E00E9449028CE00E94A7
S11305A0490280E00E94490286E00E9449020895BF
S11305B0CF93DF93D82FDF70C82FC07F61E070E046
S11305C08AE190E00E9449008C2F90E095958795F0
S11305D09595879595958795959587950E94090298
S11305E061E070E08BE190E00E9449008FE99FE0B8
S11305F00197F1F700C0000060E070E08BE190E04B
S11306000E9449008FE99FE00197F1F700C00000C4
S11306108D2F0E94090261E070E08BE190E00E945E
S113062049008FE99FE00197F1F700C0000060E006
S113063070E08BE190E00E9449008FE99FE0019710
S1130640F1F700C00000DF91CF9108950F931F933D
S1130650CF93DF938C01C0E0D0E0F801EC0FFD1FD5
S11306608081882321F00E94D8022196F6CFDF9161
S1130670CF911F910F9108950F931F93CF93DF9301
S1130680EC01162F042F2056304011F40E946E0204
S1130690602F812F0E947502CE010E942603DF91F4
S11306A0CF911F910F9108951ABA87E886B980E413
S11306B087B9089597B18F70982B97B986B18064E4
S11306C086B9349BFECF85E38A95F1F7000024B107
S11306D085B190E0982F8827820F911D08958F92FD
S11306E09F92AF92BF92EF92FF920F931F93CF937B
S11306F0DF937C018B01C1E0D0E0812C912C54016B
S11307000C171D07BCF0FE01EE0FFF1FEE0DFF1DC1
S113071060817181072E000C880B990B0E948B0756
S11307209B01AC01C501B4010E9470064B015C0140
S11307302196E6CFC501B401DF91CF911F910F91AE
S1130740FF90EF90BF90AF909F908F9008958F92FD
S11307509F92AF92BF92EF92FF920F931F93CF930A
S1130760DF937C018B01C1E0D0E0812C912C5401FA
S11307700C171D07F4F0FE01EE0FFF1FEE0DFF1D19
S113078080819181C89FB001C99F700DD89F700D61
S11307901124072E000C880B990B0E948B079B01D8
S11307A0AC01C501B4010E9470064B015C012196A5
S11307B0DFCFC501B401DF91CF911F910F91FF905D
S11307C0EF90BF90AF909F908F9008954F925F925B
S11307D06F927F928F929F92AF92BF92CF92DF924D
S11307E0EF92FF92CF93DF93CDB7DEB72A970FB680
S11307F0F894DEBF0FBECDBF9A8789876A017B015B
S113080020E030E040E85FE3C701B6010E947006D3
S11308104B015C019B01AC01C701B6010E943B087E
S11308202B013C01A7019601C701B6010E94700685
S113083020E030E040E85FE30E9470069B01AC01D9
S1130840C301B2010E943B0820E030E040EC50E4D8
S11308500E94E1066D837E838F83988720E030E0D9
S113086040E05FE3C501B4010E943B084B015C0119
S1130870C701B6010E94530769837A838B839C83E3
S113088069817A8189859A850E946F03A7019601FF
S11308900E94E1062B013C0169817A8189859A8550
S11308A00E94A70369837A838B839C83A5019401A7
S11308B0C701B6010E943B086B017C019B01AC019E
S11308C0C301B2010E943B089B01AC0169817A819A
S11308D08B819C810E946F0669837A838B839C83BE
S11308E0A7019601C501B4010E943B089B01AC011C
S11308F06D817E818F8198850E946F069B01AC017A
S113090069817A818B819C810E94E1069B01AC0103
S11309106093D0007093D1008093D2009093D30061
S1130920C501B4010E943B089B01AC01C301B201A3
S11309300E946F066093CC007093CD008093CE002C
S11309409093CF002A960FB6F894DEBF0FBECDBFAA
S1130950DF91CF91FF90EF90DF90CF90BF90AF9059
S11309609F908F907F906F905F904F9008958F929B
S11309709F92AF92BF92CF92DF92EF92FF920F932A
S11309801F93CF93DF93CDB7DEB7C658D1090FB607
S1130990F894DEBF0FBECDBF8FEF81BB84BB1ABA04
S11309A00E9454030E94A10227E730E040E050E097
S11309B061E070E086E690E00E943C0327E730E0C7
S11309C040E050E062E070E088E790E00E943C0381
S11309D02FEF33ED80E3215030408040E1F700C039
S11309E0000020E630E040E050E061E070E083E8A1
S11309F090E00E943C0327E730E040E050E062E0F2
S1130A0070E082EA90E00E943C039FEFA7EAB1E61F
S1130A109150A040B040E1F700C0000020E630E073
S1130A2040E050E061E070E08EE890E00E943C031A
S1130A3027E730E040E050E062E070E08DE990E0CC
S1130A400E943C03EFEFFBE722E9E150F040204035
S1130A50E1F700C000001A8A198A00E010E0B8012A
S1130A60012E000C880B990B0E948B0720E030E0CC
S1130A7048E452E40E94DC0688230CF067C00F5F50
S1130A801F4F80E00E945A037801EE0CFF1CA1E086
S1130A90B0E0AC0FBD1FEA0EFB1EF701918B808BFB
S1130AA04AE0BD010E94D00820E630E040E050E07A
S1130AB061E070E08CEA90E00E943C03D70150961C
S1130AC08D919C915197885C910982959295907F24
S1130AD09827807F982767E771E00E94A808862FEF
S1130AE0972FFE01E958FF4F119211922EE0DF017A
S1130AF01D922A95E9F720E030E0261737075CF4C9
S1130B00E7E7F0E0EC0FFD1FE20FF31F4EE7408331
S1130B102F5F3F4FF2CF4AE0BE016F5F7F4F0E94CD
S1130B20D00827E730E040E050E062E070E0CE011A
S1130B3089589F4F0E943C03BFEFE1EEF4E0B150AF
S1130B40E040F040E1F700C0000089CF40E050E011
S1130B5068E472E4CE0141960E94E6030F2EAA24B3
S1130B60AA94F3E0BF2EF02DC12CD12C812C912C12
S1130B7000E010E0B801012E000C880B990B0E94D4
S1130B808B0720E030E048E452E40E94DC0688232E
S1130B900CF059C0780122E0E20EF11CB7010F2CD1
S1130BA0000C880B990B0E948B072091D000309188
S1130BB0D1004091D2005091D3000E943B08209173
S1130BC0CC003091CD004091CE005091CF000E94D6
S1130BD070060E94530798012F5F3F4FF901EE0FF3
S1130BE0FF1F81E090E08C0F9D1FE80FF91F8089A3
S1130BF09189C816D9060CF46C018A159B050CF46E
S1130C005C0168177907ECF4000F111FE1E0F0E0D4
S1130C10EC0FFD1FE00FF11F408951894817590758
S1130C2084F4EE0CFF1CE1E0F0E0EC0FFD1FEE0D90
S1130C30FF1D40895189481759071CF49FEF891AF1
S1130C40990A890197CF8AE0E1ECF0E0DE0117967A
S1130C5001900D928A95E1F720E630E040E050E003
S1130C6061E070E0CE0107960E943C03C401880F46
S1130C70991F880D991D880F991F4AE08E010F5FF7
S1130C801F4FB8010E94D008D8010D900020E9F749
S1130C90119785E0ECEBF0E001900D928A95E1F775
S1130CA027E730E044E050E062E070E0C8010E94D1
S1130CB03C0380E090E0CA57DF4F0FB6F894DEBFE4
S1130CC00FBECDBFDF91CF911F910F91FF90EF9099
S1130CD0DF90CF90BF90AF909F908F900895505821
S1130CE0BB27AA270E9487060C9401080E94F307D9
S1130CF038F00E94FA0720F039F49F3F19F426F4E3
S1130D000C94F0070EF4E095E7FB0C94EA07E92F46
S1130D100E94120858F3BA176207730784079507ED
S1130D2020F079F4A6F50C9434080EF4E0950B2E1B
S1130D30BA2FA02D0B01B90190010C01CA01A00129
S1130D401124FF27591B99F0593F50F4503E68F184
S1130D501A16F040A22F232F342F4427585FF3CFC5
S1130D60469537952795A795F0405395C9F77EF496
S1130D701F16BA0B620B730B840BBAF09150A1F0DF
S1130D80FF0FBB1F661F771F881FC2F70EC0BA0F65
S1130D90621F731F841F48F4879577956795B795ED
S1130DA0F7959E3F08F0B0CF9395880F08F09927E8
S1130DB0EE0F9795879508950E94C60708F481E081
S1130DC008950E94F5060C9401080E94FA0758F051
S1130DD00E94F30740F029F45F3F29F00C94EA07DE
S1130DE051110C9435080C94F0070E94120868F312
S1130DF09923B1F3552391F3951B550BBB27AA27D0
S1130E0062177307840738F09F5F5F4F220F331F09
S1130E10441FAA1FA9F335D00E2E3AF0E0E832D0D1
S1130E2091505040E695001CCAF72BD0FE2F29D0D4
S1130E30660F771F881FBB1F261737074807AB07A6
S1130E40B0E809F0BB0B802DBF01FF2793585F4F1B
S1130E503AF09E3F510578F00C94EA070C9435085B
S1130E605F3FE4F3983ED4F3869577956795B795FD
S1130E70F7959F5FC9F7880F911D9695879597F908
S1130E800895E1E0660F771F881FBB1F6217730781
S1130E908407BA0720F0621B730B840BBA0BEE1F96
S1130EA088F7E09508950E945A076894B1110C944C
S1130EB0350808950E941A0888F09F5798F0B92FB2
S1130EC09927B751B0F0E1F0660F771F881F991F7B
S1130ED01AF0BA95C9F714C0B13091F00E943408E1
S1130EE0B1E008950C943408672F782F8827B85FF1
S1130EF039F0B93FCCF3869577956795B395D9F7D3
S1130F003EF490958095709561957F4F8F4F9F4FDC
S1130F100895E89409C097FB3EF4909580957095E8
S1130F2061957F4F8F4F9F4F9923A9F0F92F96E931
S1130F30BB279395F695879577956795B795F111A6
S1130F40F8CFFAF4BB0F11F460FF1BC06F5F7F4F43
S1130F508F4F9F4F16C0882311F096E911C0772355
S1130F6021F09EE8872F762F05C0662371F096E85E
S1130F70862F70E060E02AF09A95660F771F881F2D
S1130F80DAF7880F9695879597F90895990F0008D1
S1130F90550FAA0BE0E8FEEF16161706E807F90747
S1130FA0C0F012161306E407F50798F0621B730BE2
S1130FB0840B950B39F40A2661F0232B242B252B63
S1130FC021F408950A2609F4A140A6958FEF811D06
S1130FD0811D089597F99F6780E870E060E00895A7
S1130FE09FEF80EC089500240A941616170618063D
S1130FF00906089500240A94121613061406050619
S11310000895092E0394000C11F4882352F0BB0FA9
S113101040F4BF2B11F460FF04C06F5F7F4F8F4F0C
S11310209F4F089557FD9058440F551F59F05F3F47
S113103071F04795880F97FB991F61F09F3F79F0F6
S113104087950895121613061406551FF2CF469578
S1131050F1DF08C0161617061806991FF1CF8695FA
S11310607105610508940895E894BB2766277727DE
S1131070CB0197F908950E944E080C9401080E9430
S1131080F30738F00E94FA0720F0952311F00C942E
S1131090EA070C94F00711240C9435080E941208F6
S11310A070F3959FC1F3950F50E0551F629FF001B7
S11310B0729FBB27F00DB11D639FAA27F00DB11DD0
S11310C0AA1F649F6627B00DA11D661F829F222759
S11310D0B00DA11D621F739FB00DA11D621F839FE0
S11310E0A00D611D221F749F3327A00D611D231FB6
S11310F0849F600D211D822F762F6A2F11249F5704
S113110050409AF0F1F088234AF0EE0FFF1FBB1F06
S1131110661F771F881F91505040A9F79E3F5105C5
S113112080F00C94EA070C9435085F3FE4F3983E92
S1131130D4F3869577956795B795F795E7959F5F6F
S1131140C1F7FE2B880F911D9695879597F9089501
S113115097FB072E16F4009407D077FD09D00E9460
S1131160BC0807FC05D03EF4909581959F4F0895E7
S1131170709561957F4F0895AA1BBB1B51E107C071
S1131180AA1FBB1FA617B70710F0A61BB70B881F13
S1131190991F5A95A9F780959095BC01CD010895A2
S11311A0BB274A3031F4992322F4BDE2909581950E
S11311B09F4F0C94DC08BB27FB015527AA27880FF7
S11311C0991FAA1FA41710F0A41B83955051B9F7B7
S11311D0A05DAA3308F0A95DA193009779F7B11136
S11311E0B1931192CB010C94F508DC01FC01672F3B
S11311F071917723E1F7329704C07C916D937083EA
S11112006291AE17BF07C8F30895F894FFCFAC
S113120E636C656172005374617274696E67205009
S113121E756C7365207E290053656E736F72202A78
S113122E5F2A00506C61636520796F7572004B659F
S113123E657020706C6163696E67207E00796F75CE
S113124E722066696E676572746970004D656173AC
S113125E7572696E672E2E202A5F2A002062706DC9
S10F126E004865617274526174650000F0
S9030000FC
