S01700004763634170706C69636174696F6E312E737265635B
S11300000C942A000C9447000C9447000C9447006D
S11300100C9447000C9447000C9447000C94470040
S11300200C9447000C9447000C9447000C94470030
S11300300C9447000C9447000C9447000C94470020
S11300400C9447000C9447000C9447000C94470010
S11300500C94470011241FBECFE5D8E0DEBFCDBF0E
S113006010E0A0E6B0E0E0ECF0E102C005900D92F3
S1130070AC38B107D9F720E0ACE8B0E001C01D927C
S1130080AF38B207E1F70E9456040C945E080C9452
S113009000000F931F93CF93DF938B01D42F880F0E
S11300A00E94D304882351F0C1E00CC0F801EC0F86
S11300B0F11D80810E94F804CF5F01C0C0E0CD171C
S11300C0A8F3C0E00E94F2048C2FDF91CF911F911E
S11300D00F9108950F931F93CF93DF9300D000D017
S11300E01F92CDB7DEB7082F683071F4882311F062
S11300F088E001C080E08093600041E060E670E049
S113010087E20E94490026C080916000162F182BB8
S11301101983802F807F812B84608A838B7F8B83DC
S113012020E1029FC0011124812B84608C838B7F8A
S11301308D8345E0BE016F5F7F4F87E20E944900D7
S113014010FD08C0033030F4E3EFF1E03197F1F72C
S113015000C000000F900F900F900F900F90DF9150
S1130160CF911F910F910895CF93DF93D82FC62F6E
S1130170E62FF0E0EF59FF4F80818D2B60E080681F
S11301800E946A00D0938D00C0938E00DF91CF91BE
S1130190089560E081E00E946A0010928E0010923F
S11301A08D000895CF93C82F90918D0080918C007D
S11301B0981710F4CA3041F460918E006F5F609319
S11301C08E0080E00E94B400CA3049F080918D0016
S11301D08F5F80938D0061E08C2F0E946A00CF9125
S11301E00895CF93DF93EC0103C021960E94D200BF
S11301F088818111FACFDF91CF9108950F931F93D6
S1130200CF93DF9300D000D000D0CDB7DEB7082F56
S113021080E3898394E39A838B8380E28C8394E2E2
S11302209D838E8380E180938C00E1E6F0E0808101
S1130230805F82838181805F838387B3806287BB91
S113024088B3806288BB0E94CF048BE49DE1019750
S1130250F1F700C0000043E0BE016F5F7F4F87E20B
S11302600E944900182F81EE94E00197F1F700C035
S1130270000043E0BE016F5F7F4F87E20E944900A8
S1130280182B43E0BE016F5F7F4F87E20E94490055
S1130290182B43E0BE016C5F7F4F87E20E94490048
S11302A0182B60E088E20E946A00812B19F088B361
S11302B08F7D88BB60E08CE00E946A0060E086E08D
S11302C00E946A0060E081E00E946A0060E0802F82
S11302D00E946A0026960FB6F894DEBF0FBECDBF0B
S11302E0DF91CF911F910F91089568E00E946A00F9
S11302F00895672B09F0DFC0009721F48BB38E7F3C
S11303008BBB08958130910521F48BB38D7F8BBB1A
S113031008958230910521F48BB38B7F8BBB0895B4
S11303208330910521F48BB3877F8BBB0895843090
S1130330910521F48BB38F7E8BBB08958530910595
S113034021F48BB38F7D8BBB08958630910521F406
S11303508BB38F7B8BBB08958730910521F48BB3CE
S11303608F778BBB08958A30910521F488B38E7FF3
S113037088BB08958B30910521F488B38D7F88BBA9
S113038008958C30910521F488B38B7F88BB089540
S11303908D30910521F488B3877F88BB08958E3012
S11303A0910521F488B38F7E88BB08958F30910521
S11303B021F488B38F7D88BB08958031910521F4A1
S11303C088B38F7B88BB08958131910521F488B36C
S11303D08F7788BB08958431910521F485B38E7F8E
S11303E085BB08958531910521F485B38D7F85BB47
S11303F008958631910521F485B38B7F85BB0895DB
S11304008731910521F485B3877F85BB08958831B1
S1130410910521F485B38F7E85BB089589319105BB
S113042021F485B38F7D85BB08958A31910521F42C
S113043085B38F7B85BB08958B31910521F485B3FA
S11304408F7785BB08958E31910521F482B38E7F19
S113045082BB08958F31910521F482B38D7F82BBD5
S113046008958032910521F482B38B7F82BB089575
S11304708132910521F482B3877F82BB0895823251
S1130480910521F482B38F7E82BB08958332910556
S113049021F482B38F7D82BB08958432910521F4C7
S11304A082B38F7B82BB0895859709F0E1C082B344
S11304B08F7782BB0895009721F48BB381608BBB47
S11304C008958130910521F48BB382608BBB08952C
S11304D08230910521F48BB384608BBB0895833003
S11304E0910521F48BB388608BBB0895843091050A
S11304F021F48BB380618BBB08958530910521F481
S11305008BB380628BBB08958630910521F48BB345
S113051080648BBB08958730910521F48BB3806888
S11305208BBB08958A30910521F488B3816088BB20
S113053008958B30910521F488B3826088BB0895B7
S11305408C30910521F488B3846088BB08958D3084
S1130550910521F488B3886088BB08958E30910595
S113056021F488B3806188BB08958F30910521F40C
S113057088B3806288BB08958031910521F488B3E3
S1130580806488BB08958131910521F488B3806823
S113059088BB08958431910521F485B3816085BBBE
S11305A008958531910521F485B3826085BB089552
S11305B08631910521F485B3846085BB0895873124
S11305C0910521F485B3886085BB08958831910530
S11305D021F485B3806185BB08958931910521F4A7
S11305E085B3806285BB08958A31910521F485B372
S11305F0806485BB08958B31910521F485B38068AF
S113060085BB08958E31910521F482B3816082BB4C
S113061008958F31910521F482B3826082BB0895DD
S11306208032910521F482B3846082BB08958132C3
S1130630910521F482B3886082BB089582329105CA
S113064021F482B3806182BB08958332910521F441
S113065082B3806282BB08958432910521F482B30F
S1130660806482BB0895859719F482B3806882BB45
S11306700895CF93C82F80FF07C061E070E083E244
S113068090E00E94790106C060E070E083E290E0AF
S11306900E947901C1FF07C061E070E082E290E04E
S11306A00E94790106C060E070E082E290E00E945E
S11306B07901C2FF07C061E070E081E290E00E942E
S11306C0790106C060E070E081E290E00E94790167
S11306D0C3FF07C061E070E080E290E00E9479010E
S11306E006C060E070E080E290E00E947901CF9162
S11306F00895CF93C82F60E070E085E290E00E94F7
S113070079018C2F0E94390361E070E084E290E06B
S11307100E94790189EF90E00197F1F700C0000091
S113072060E070E084E290E00E94790189EF90E05B
S11307300197F1F700C00000CF91089580E00E9476
S1130740790381E00E9479030895CF93813061F4A5
S113075080E8860FC62FCF7082958F700E94790330
S11307608C2F0E9479030DC0823059F480EC860FDF
S1130770C62FCF7082958F700E9479038C2F0E94B0
S11307807903CF91089580E00E94390387E893E1CB
S11307900197F1F700C0000083E00E94790381EE25
S11307A094E00197F1F700C0000083E00E94790310
S11307B08DEB9AE00197F1F700C0000083E00E94FE
S11307C0790382E00E94790382E00E94790388E041
S11307D00E94790380E00E9479038CE00E947903EF
S11307E080E00E94790386E00E9479030E949E03C0
S11307F00895CF93DF93D82FDF70C82FC07F61E0B7
S113080070E085E290E00E9479018C2F82958F70D0
S11308100E94390361E070E084E290E00E94790173
S113082089EF90E00197F1F700C0000060E070E00C
S113083084E290E00E94790189EF90E00197F1F75A
S113084000C000008D2F0E94390361E070E084E253
S113085090E00E94790189EF90E00197F1F700C0E0
S1130860000060E070E084E290E00E94790189EF8A
S113087090E00197F1F700C00000DF91CF91089557
S11308800F931F93CF93DF938C01C0E0D0E003C09C
S11308900E94F9032196F801EC0FFD1F808181115C
S11308A0F7CFDF91CF911F910F910895CF93DF93ED
S11308B0CDB7DEB7C456D1090FB6F894DEBF0FBE6C
S11308C0CDBF60E875E280E090E00E94060581B348
S11308D08C6F81BB0E94C30360E080E00E94A5038B
S11308E085E690E00E94400482E00E94FE0080E0E1
S11308F00E9475012FE986E891E0215080409040E4
S1130900E1F700C0000081E00E9475012FE986E84C
S113091091E0215080409040E1F700C000000E9427
S1130920C90060E080E00E94B40081E790E00E948A
S1130930F1008BE790E00E943C058DE790E00E9477
S1130940F1000E943405F82E1F928F9382E890E004
S11309509F938F938E010F5F1F4F1F930F930E94DE
S113096074050E949E0360E080E00E94A503C80114
S11309700E9440042FE38DE093E02150804090409A
S1130980E1F700C000001A82F982C8010E943C0508
S11309900F900F900F900F900F900F90D2CF11B82F
S11309A08CE080B9089594EA96BF06B607FEFDCFA1
S11309B091B1987F983011F0903171F483B984E843
S11309C086BF06B607FEFDCF81B1887F883131F03E
S11309D0803431F480E0089581E0089580E0089542
S11309E081E0089584E986BF06B604FCFDCF08952E
S11309F083B984E886BF06B607FEFDCF81B1887F40
S1130A00883211F081E0089580E008952AB12861C8
S1130A102AB920B5266820BDDC01CB01880F991FB7
S1130A20AA1FBB1F880F991FAA1FBB1F9C01AD01E2
S1130A30220F331F441F551F220F331F441F551FFE
S1130A4060E472E48FE090E00E9452058FEF820F21
S1130A5089B9DA01C9010197A109B109892F9A2F2E
S1130A60AB2FBB2780BD08955F9BFECF8CB108954B
S1130A708CB95D9BFECF08950F931F93CF93DF93A3
S1130A808C01C0E0D0E003C00E9438052196F80133
S1130A90EC0FFD1F80818111F7CFDF91CF911F9162
S1130AA00F910895A1E21A2EAA1BBB1BFD010DC0D4
S1130AB0AA1FBB1FEE1FFF1FA217B307E407F5070A
S1130AC020F0A21BB30BE40BF50B661F771F881FE6
S1130AD0991F1A9469F760957095809590959B017C
S1130AE0AC01BD01CF010895AEE0B0E0EAE7F5E066
S1130AF00C9435080D891E8986E08C831A8309833A
S1130B008FEF9FE79E838D83AE01475E5F4F6F89B2
S1130B10788DCE0101960E949605EF81F885E00F4D
S1130B20F11F10822E96E4E00C945108ABE0B0E083
S1130B30ECE9F5E00C9427086C017B018A01FC01C7
S1130B4017821682838181FFCCC1CE0101963C01BC
S1130B50F6019381F70193FD859193FF81917F01C4
S1130B60882309F4BAC1853239F493FD859193FF42
S1130B7081917F01853229F4B60190E00E948D07AE
S1130B80E7CF912C212C312CFFE1F315D8F08B32D7
S1130B9079F038F4803279F08332A1F4232D206186
S1130BA01DC08D3261F0803369F4232D216016C09D
S1130BB0832D8260382EE32DE4603E2E2AC0F32D6F
S1130BC0F8601DC037FC2DC020ED280F2A3040F0FE
S1130BD08E32B9F436FC81C1232D2064322E19C023
S1130BE036FE06C08AE0989E200D1124922E11C074
S1130BF0EAE02E9E200D1124222EF32DF0623F2ECA
S1130C0008C08C3621F4832D8068382E02C08836C3
S1130C1041F4F70193FD859193FF81917F01811147
S1130C20B3CF982F9F7D9554933028F40C5F1F4FBA
S1130C309FE399830DC0833631F0833771F0833598
S1130C4009F059C021C0F801808189830E5F1F4FCC
S1130C5088248394912C530113C02801F2E04F0E91
S1130C60511CF801A080B18036FE03C0692D70E0EC
S1130C7002C06FEF7FEFC5010E9482074C01820121
S1130C80F32DFF773F2E16C0280122E0420E511C9F
S1130C90F801A080B18036FE03C0692D70E002C067
S1130CA06FEF7FEFC5010E9477074C01F32DF068C9
S1130CB03F2E820133FC1BC0822D90E088169906DA
S1130CC0B0F4B60180E290E00E948D072A94F4CF3C
S1130CD0F50137FC859137FE81915F01B60190E003
S1130CE00E948D0721102A9421E0821A9108811410
S1130CF0910471F7E8C0843611F0893641F5F801A2
S1130D0037FE07C060817181828193810C5F1F4F20
S1130D1008C060817181072E000C880B990B0E5F4F
S1130D201F4FF32DFF763F2E97FF09C090958095B6
S1130D30709561957F4F8F4F9F4FF0683F2E2AE04B
S1130D4030E0A3010E94C907882E861845C0853764
S1130D5031F4232D2F7EB22E2AE030E025C0932DCE
S1130D60997FB92E8F36C1F018F4883579F0B5C063
S1130D70803719F0883721F0B0C0E92FE061BE2E2A
S1130D80B4FE0DC0FB2DF460BF2E09C034FE0AC0B2
S1130D90292F2660B22E06C028E030E005C020E1ED
S1130DA030E002C020E132E0F801B7FE07C0608104
S1130DB07181828193810C5F1F4F06C060817181B4
S1130DC080E090E00E5F1F4FA3010E94C907882EA8
S1130DD08618FB2DFF773F2E36FE0DC0232D2E7F68
S1130DE0A22E891458F434FE0BC032FC09C0832DA2
S1130DF08E7EA82E05C0B82CA32C03C0B82C01C02D
S1130E00B92CA4FE0FC0FE01E80DF11D80818033D2
S1130E1021F49A2D997EA92E09C0A2FE06C0B3948E
S1130E20B39404C08A2D867809F0B394A3FC11C04E
S1130E30A0FE06C0B21488F4280C922C9B180EC095
S1130E40B21460F4B60180E290E00E948D07B3947E
S1130E50F7CFB21418F42B1802C0982C212CA4FE3E
S1130E6010C0B60180E390E00E948D07A2FE17C077
S1130E70A1FC03C088E790E002C088E590E0B601D9
S1130E800CC08A2D867859F0A1FE02C08BE201C005
S1130E9080E2A7FC8DE2B60190E00E948D078914E0
S1130EA038F4B60180E390E00E948D079A94F7CF5E
S1130EB08A94F301E80DF11D8081B60190E00E944F
S1130EC08D078110F5CF222009F442CEB60180E2CD
S1130ED090E00E948D072A94F6CFF60186819781CF
S1130EE002C08FEF9FEF2B96E2E10C944308FC01C4
S1130EF00590615070400110D8F7809590958E0F41
S1130F009F1F0895FC016150704001900110D8F7B3
S1130F10809590958E0F9F1F08950F931F93CF93E5
S1130F20DF93FB01238121FD03C08FEF9FEF2CC0D2
S1130F3022FF16C046815781248135814217530709
S1130F4044F4A081B1819D012F5F3F4F3183208301
S1130F508C93268137812F5F3F4F3783268314C0BC
S1130F608B01EC01FB010084F185E02D0995892BAF
S1130F70E1F6D80116968D919C91179701961796D4
S1130F809C938E931697CE01DF91CF911F910F9171
S1130F900895FA01AA27283051F1203181F1E8940B
S1130FA06F936E7F6E5F7F4F8F4F9F4FAF4FB1E058
S1130FB03ED0B4E03CD0670F781F891F9A1FA11D53
S1130FC0680F791F8A1F911DA11D6A0F711D811D54
S1130FD0911DA11D20D009F468943F912AE0269F19
S1130FE011243019305D3193DEF6CF010895462F78
S1130FF04770405D4193B3E00FD0C9F7F6CF462F59
S11310004F70405D4A3318F0495D31FD40524193C1
S113101002D0A9F7EACFB4E0A6959795879577957E
S11310206795BA95C9F700976105710508959B0105
S1131030AC010A2E06945795479537952795BA958E
S1131040C9F7620F731F841F951FA01D08952F9267
S11310503F924F925F926F927F928F929F92AF9244
S1131060BF92CF92DF92EF92FF920F931F93CF9391
S1131070DF93CDB7DEB7CA1BDB0B0FB6F894DEBF28
S11310800FBECDBF09942A88398848885F846E844E
S11310907D848C849B84AA84B984C884DF80EE8098
S11310A0FD800C811B81AA81B981CE0FD11D0FB6A1
S11310B0F894DEBF0FBECDBFED010895F894FFCFC5
S11310C00880C0000065746169206A696E6973688C
S11310D000686F2072652076616900780073656E20
S10F10E074006461746124256324000022
S9030000FC
