:100000000C942A000C9447000C9447000C94470071
:100010000C9447000C9447000C9447000C94470044
:100020000C9447000C9447000C9447000C94470034
:100030000C9447000C9447000C9447000C94470024
:100040000C9447000C9447000C9447000C94470014
:100050000C94470011241FBECFE5D8E0DEBFCDBF12
:1000600011E0A0E6B0E0E0EBFAE002C005900D92EE
:10007000A232B107D9F721E0A2E2B1E001C01D929E
:10008000A632B207E1F70E94CC040C9456050C94FA
:100090000000089582E08BB988E18AB986E880BDC6
:1000A0008CE089B910BC089581E00E94170508957D
:1000B00080E00E94F20065E670E080E00E940201AC
:1000C00008958AB383708ABB8FEF87BB88BB08957E
:1000D00089B382958F70089589B382958F70482F68
:1000E00050E080FD0CC081E090E09A01082E02C033
:1000F000359527950A94E2F720FF04C0089580E023
:1001000090E0089501968430910579F78FEF089576
:1001100098B381E0892788BB89B382958F7099F065
:1001200081E090E061E070E048B39B01082E02C0DE
:10013000220F331F0A94E2F7242728BB29B3229504
:100140002F7021F4089580E090E0089501968830A2
:10015000910551F78FEF0895CF930E946C00C82F3F
:100160000E948800CC0FCC0FCC0F8C0FCF9108953C
:1001700090912501911103C00E945400089584E7D5
:1001800090E00E9449000895882319F0813039F0E9
:1001900024C081B38C6F81BB0E940203089582E06A
:1001A0000E94570480E00E94C8042FE986E891E08D
:1001B000215080409040E1F700C0000081E00E94A3
:1001C000C8042FE986E891E0215080409040E1F793
:1001D00000C000000E941604089588E990E00E9483
:1001E00049000895882319F0813021F006C00E944B
:1001F000DE0208950E941604089587EB90E00E94A5
:1002000049000895882319F0813029F008C0CB01F6
:100210000E947B030895CB010E944804089587EB58
:1002200090E00E9449000895962F882319F08130AC
:1002300031F009C0642F892F0E94E5020895842FB0
:100240000E94000408958EED90E00E9449000895F8
:10025000CF93DF9300D0CDB7DEB769831A82BE019A
:100260006F5F7F4F0E9402010F900F90DF91CF913F
:100270000895672B09F09FC0009711F4D89808954E
:100280008130910511F4D99808958230910511F4C7
:10029000DA9808958330910511F4DB98089584303D
:1002A000910511F4DC9808958530910511F4DD98DD
:1002B00008958630910511F4DE98089587309105F0
:1002C00011F4DF9808958A30910511F4C0980895CB
:1002D0008B30910511F4C19808958C30910511F47B
:1002E000C29808958D30910511F4C39808958E3009
:1002F000910511F4C49808958F30910511F4C598B3
:1003000008958031910511F4C698089581319105C1
:1003100011F4C79808958431910511F4A8980895AF
:100320008531910511F4A99808958631910511F44C
:10033000AA9808958731910511F4AB9808958831F2
:10034000910511F4AC9808958931910511F4AD9897
:1003500008958A31910511F4AE9808958B31910575
:1003600011F4AF9808958E31910511F49098089585
:100370008F31910511F4919808958032910511F40F
:10038000929808958132910511F4939808958232DC
:10039000910511F4949808958332910511F495987C
:1003A00008958432910511F496980895859709F07F
:1003B0009FC097980895009711F4D89A08958130B6
:1003C000910511F4D99A08958230910511F4DA9AC1
:1003D00008958330910511F4DB9A089584309105D6
:1003E00011F4DC9A08958530910511F4DD9A089591
:1003F0008630910511F4DE9A08958730910511F445
:10040000DF9A08958A30910511F4C09A08958B30CF
:10041000910511F4C19A08958C30910511F4C29A96
:1004200008958D30910511F4C39A08958E30910589
:1004300011F4C49A08958F30910511F4C59A089566
:100440008031910511F4C69A08958131910511F416
:10045000C79A08958431910511F4A89A08958531B9
:10046000910511F4A99A08958631910511F4AA9A7B
:1004700008958731910511F4AB9A0895883191055B
:1004800011F4AC9A08958931910511F4AD9A08954B
:100490008A31910511F4AE9A08958B31910511F4CA
:1004A000AF9A08958E31910511F4909A08958F3185
:1004B000910511F4919A08958032910511F4929A60
:1004C00008958132910511F4939A0895823291052D
:1004D00011F4949A08958332910511F4959A089530
:1004E0008432910511F4969A0895859709F4979AA4
:1004F0000895CF93C82F80FF07C061E070E083E2CA
:1005000090E00E94390106C060E070E083E290E074
:100510000E943901C1FF07C061E070E082E290E013
:100520000E94390106C060E070E082E290E00E9423
:100530003901C2FF07C061E070E081E290E00E94F3
:10054000390106C060E070E081E290E00E9439016C
:10055000C3FF07C061E070E080E290E00E943901D3
:1005600006C060E070E080E290E00E943901CF9127
:100570000895CF93C82F60E070E085E290E00E947C
:1005800039018C2F0E94790261E070E084E290E0F2
:100590000E94390189EF90E00197F1F700C0000057
:1005A00060E070E084E290E00E94390189EF90E021
:1005B0000197F1F700C00000CF91089580E00E94FC
:1005C000B90281E00E94B9020895CF93C62F81112C
:1005D0000BC080E8860F82958F700E94B9028C2F25
:1005E0008F700E94B9020CC0813051F480EC860FEC
:1005F00082958F700E94B9028C2F8F700E94B90271
:10060000CF91089580E00E94790287E893E10197F5
:10061000F1F700C0000083E00E94B90281EE94E08F
:100620000197F1F700C0000083E00E94B9028DEB52
:100630009AE00197F1F700C0000083E00E94B90240
:1006400082E00E94B90282E00E94B90288E00E9422
:10065000B90280E00E94B9028CE00E94B90280E0F9
:100660000E94B90286E00E94B9020E94DE0208954B
:10067000CF93C82F61E070E085E290E00E943901DD
:100680008C2F82958F700E94790261E070E084E285
:1006900090E00E94390189EF90E00197F1F700C0E6
:1006A000000060E070E084E290E00E94390189EF90
:1006B00090E00197F1F700C000008C2F8F700E942E
:1006C000790261E070E084E290E00E94390189EFF4
:1006D00090E00197F1F700C0000060E070E084E274
:1006E00090E00E94390189EF90E00197F1F700C096
:1006F0000000CF910895CF93DF93EC018881882388
:1007000031F021960E94380389918111FBCFDF914E
:10071000CF910895EF92FF920F931F93CF93DF93A2
:100720007B01142F880F0E942505811112C011230F
:1007300091F0E7011150012F10E00F5F1F4F0E0DD8
:100740001F1D89910E944905C017D107D1F7C0E04C
:1007500003C0C1E001C0C0E00E9443058C2FDF91BF
:10076000CF911F910F91FF90EF9008950F931F93DA
:10077000CF93DF9300D000D01F92CDB7DEB7082F04
:10078000683071F4811102C080E001C088E080937C
:10079000600041E060E670E087E20E948A0326C0C4
:1007A00080916000162F182B1983802F807F846022
:1007B000812B8A838B7F8B8320E1029FC0011124D0
:1007C000812B84608C838B7F8D8345E0BE016F5FBE
:1007D0007F4F87E20E948A0310FD08C0033030F487
:1007E000E3EFF1E03197F1F700C000000F900F90B8
:1007F0000F900F900F90DF91CF911F910F9108955F
:10080000CF93DF93D82FC62FE62FF0E0EF59FF4F9D
:10081000982F9068808160E0892B0E94B603D09366
:100820002301C0932401DF91CF91089560E081E01E
:100830000E94B60310922401109223010895CF93D1
:10084000C82F9091230180912201981718F4CA3083
:1008500059F414C0609124016F5F6093240180E01B
:100860000E940004CA3091F0809123018F5F809331
:10087000230161E08C2F0E94B60308C0609124011F
:100880006F5F6093240180E00E940004CF9108957F
:10089000CF93DF93EC018881882331F021960E9469
:1008A0001F0489918111FBCFDF91CF9108950F93A0
:1008B0001F93CF93DF9300D000D000D0CDB7DEB729
:1008C000082F80E3898394E39A838B8380E28C836F
:1008D00094E29D838E8380E180932201E1E6F0E043
:1008E0008081805F82838181805F8383BD9AC59A86
:1008F0000E9421058BE49DE10197F1F700C0000003
:1009000043E0BE016F5F7F4F87E20E948A03182F8A
:1009100081EE94E00197F1F700C0000043E0BE01D2
:100920006F5F7F4F87E20E948A03182B43E0BE016E
:100930006F5F7F4F87E20E948A03182B43E0BE015E
:100940006C5F7F4F87E20E948A03182B60E088E289
:100950000E94B603812B09F0C59860E08CE00E94EC
:10096000B60360E086E00E94B60360E081E00E948A
:10097000B60360E0802F0E94B60326960FB6F89467
:10098000DEBF0FBECDBFDF91CF911F910F910895B4
:1009900068E00E94B60308950E944A0080E00E9429
:1009A000C40081E00E94C40080E00E9417050E94FC
:1009B000610011E6C0E0D0E0CE018F7090789923FD
:1009C00024F40197806F9F6F0196F82E092FCE01B6
:1009D000DD230CF40F966C01D594C794D594C7947D
:1009E000D594C794D594C7944F2D502FB60181E06C
:1009F0000E941401612F81E00E9428014F2D502F89
:100A0000B60180E00E941401612F80E00E9428015D
:100A100021961F5F1B3781F60E9468008823E1F34F
:100A20000E94AC000E94B8000E946100F5CF8111C5
:100A300003C00E945800089582E091E00E9449009E
:100A4000089511B88CE080B9089594EA96BF06B66F
:100A500007FEFDCF91B1987F983011F0903179F475
:100A600083B984E886BF06B607FEFDCF91B1987FB3
:100A7000983139F081E0903429F480E0089581E0E4
:100A8000089580E0089584E986BF06B604FCFDCF92
:100A9000089583B984E886BF06B607FEFDCF91B1FD
:100AA000987F81E0983209F480E00895F894FFCFB0
:100AB0000880C0000057656C636F6D6520746F20FF
:100AC00078797A0050726F636573734B65793A2059
:100AD000556E646566696E65642043757272656EF5
:100AE00074205374617465004C63645F496E69746B
:100AF0003A204C636454797065204E6F747375703E
:100B0000706F72746564004C63645F436C656172FE
:100B100053637265656E3A204C6364547970652046
:100B20004E6F7420737570706F72746564004C63DF
:100B3000645F506F736974696F6E3A204C636454DC
:100B4000797065204E6F7420737570706F72746564
:100B50006400476F746F53746174653A206E6577F3
:100B60005374617465206E6F7420646566696E6588
:020B700064001F
:00000001FF
