S011000070726F6A636F6465732E737265634A
S11300000C94B5000C94D2000C94D2000C94D20041
S11300100C94D2000C94D2000C94D2000C94D20014
S11300200C94D2000C94D2000C94D2000C94D20004
S11300300C94D2000C94D2000C94D2000C94D200F4
S11300400C94D2000C94D2000C94D2000C94D200E4
S11300500C94D2001C051F052205250528052B0537
S11300602E05050D080D0B0D0E0D110D140D170D9C
S113007000407A10F35A00A0724E18090010A5D45B
S1130080E80000E87648170000E40B54020000CAB8
S11300909A3B000000E1F5050000809698000000FE
S11300A040420F000000A08601000000102700005D
S11300B00000E803000000006400000000000A00E3
S11300C0000000000100000000002C76D888DC67E6
S11300D04F0823DFC1DFAE59E1B1B796E5E3E4533E
S11300E0C63AE651997696E8E6C28426EB898C9B5B
S11300F062ED407C6FFCEFBC9C9F40F2BAA56FA5FB
S1130100F490055A2AF75C936B6CF9676DC11BFC7C
S1130110E0E40D47FEF520E6B500D0ED902E030097
S1130120943577050080841E080000204E0A0000E4
S113013000C80C333333330F986E12831141EF8DA3
S11301402114893BE65516CFFEE6DB18D1844B38E3
S11301501BF77C1D901DA4BBE424203284725E2214
S11301608100C9F124ECA1E53D2711241FBECFE590
S1130170D8E0DEBFCDBF12E0A0E6B0E0ECE3FCE2E5
S113018002C005900D92A637B107D9F725E0A6E77E
S1130190B2E001C01D92AD3CB207E1F70E94F00944
S11301A00C941C160C9400008F929F92AF92BF92F5
S11301B0EF92FF920F931F93CF93DF9316161706B8
S11301C004F57B018C010E5F1F4FC1E0D0E0812C50
S11301D0912C5401F801619171918F01072E000C4B
S11301E0880B990B0E94840E9B01AC01C501B401DC
S11301F00E946E0D4B015C012196EC16FD0654F72E
S113020003C0812C912C5401C501B401DF91CF911D
S11302101F910F91FF90EF90BF90AF909F908F90A0
S113022008958F929F92AF92BF92EF92FF920F9395
S11302301F93CF93DF93161617063CF57B018C01B1
S11302400E5F1F4FC1E0D0E0812C912C5401F801C6
S1130250819191918F018C9FB0018D9F700D9C9F16
S1130260700D1124072E000C880B990B0E94840E2C
S11302709B01AC01C501B4010E946E0D4B015C01F0
S11302802196EC16FD061CF703C0812C912C540119
S1130290C501B401DF91CF911F910F91FF90EF90B1
S11302A0BF90AF909F908F9008954F925F926F92FE
S11302B07F928F929F92AF92BF92CF92DF92EF92F2
S11302C0FF92CF93DF93CDB7DEB760970FB6F89464
S11302D0DEBF0FBECDBF3C016A017B0120E030E0F0
S11302E040E85FE3C701B6010E946E0D6D837E8313
S11302F08F83988720E030E040E05FE30E94100F96
S113030069837A838B839C83C701B6010E944C0E58
S11303104B015C01C3010E94D400A70196010E9415
S1130320DA0D69877A878B879C87B401C3010E94A1
S113033011014B015C0129813A814B815C81C70128
S1130340B6010E94100F2B013C019B01AC01698591
S11303507A858B859C850E94100F9B01AC01C50199
S1130360B4010E946D0D4B015C01A7019601C70108
S1130370B6010E946E0D20E030E040E85FE30E9489
S11303806E0D6D877E878F87988B2D813E814F817F
S11303905885C701B6010E94100F9B01AC016D8501
S11303A07E858F8598890E94100F20E030E040EC14
S11303B050E40E94DA0D6B017C01A3019201698172
S11303C07A818B819C810E94100F9B01AC01C70133
S11303D0B6010E946D0D9B01AC01C501B4010E94E0
S11303E0DA0D9B01AC0160937A0270937B028093D7
S11303F07C0290937D0269817A818B819C810E9429
S1130400100F9B01AC0169857A858B859C850E94C0
S11304106D0D6093760270937702809378029093C7
S1130420790260960FB6F894DEBF0FBECDBFDF91A0
S1130430CF91FF90EF90DF90CF90BF90AF909F90BF
S11304408F907F906F905F904F900895369A369971
S1130450FECF84B195B10895D19881EC87B980E835
S113046086B908956F927F928F929F92AF92BF92B6
S1130470CF92DF92EF92FF920F931F93CF93DF936C
S113048000D000D000D0CDB7DEB76DB67EB68DB744
S11304909EB78E5291400FB6F8949EBF0FBE8DBF8B
S11304A0EDB7FEB731964F01EDB7FEB71282118258
S11304B0ADB6BEB6F3E0AF0EB11C06E910E00F2EE8
S11304C0FBE6CF2EF0E0DF2EF02DCE0101967C016D
S11304D00E942602F501819391935F011F930F936C
S11304E0DF92CF92FF92EF920E94F01046E050E02C
S11304F061E070E080E00E948605B70180E00E9420
S11305007405FFEF20E782E0F15020408040E1F7DE
S113051000C00000015011090F900F900F900F9030
S11305200F900F900F3F9FEF190791F640E050E0B6
S113053066E173E4C4010E945501F40124ED821ABA
S11305402EEF920A80E090E0228133814081518134
S113055032964217530734F44281538142175307AA
S11305600CF401968E169F0679F74AE0BE016F5F80
S11305707F4F880F991F0E94CB104AE050E061E042
S113058070E080E00E948605BE016F5F7F4F80E0CF
S11305900E9474054DE050E061E070E080E00E944C
S11305A086056FE670E080E00E947405BE016F5F0F
S11305B07F4F84E892E00E94C4100FB6F8947EBE88
S11305C00FBE6DBE26960FB6F894DEBF0FBECDBF2C
S11305D0DF91CF911F910F91FF90EF90DF90CF901B
S11305E0BF90AF909F908F907F906F9008950E94DE
S11305F0720308950F931F93CF93DF93CDB7DEB7A4
S11306002A970FB6F894DEBF0FBECDBF162F072F63
S11306100E9472030F931F9383E790E09F938F933D
S11306208E010F5F1F4F1F930F930E94F010C8019C
S11306300E9472038AE790E00E9472030F900F9069
S11306400F900F900F900F902A960FB6F894DEBF7C
S11306500FBECDBFDF91CF911F910F9108950F93DE
S11306601F93CF93DF93CDB7DEB72A970FB6F894D5
S1130670DEBF0FBECDBF8B010E947203FE01319617
S113068020E030E0C801022E02C0959587950A94B7
S1130690E2F78170805D81932F5F3F4F28303105F1
S11306A089F71986CE0101960E9472038AE790E0C9
S11306B00E9472032A960FB6F894DEBF0FBECDBF18
S11306C0DF91CF911F910F9108951BB888E18AB9EA
S11306D086E880BD83E389B910BC08958CB95D9B1D
S11306E0FECF0895CF93DF93EC018881882331F006
S11306F021960E946E0389918111FBCFDF91CF91E6
S113070008958AB383708ABB8FEF87BB88BB089533
S1130710109281021092800210927F0210927E0247
S1130720109284020895009759F48DE790E00E9496
S1130730F70210927F0210927E02109284020895B2
S1130740FC0101900020E9F73197E81BF90BE03137
S1130750F10528F5AF0110927F0210927E021E1659
S11307601F06B4F4FC01A4E8B2E020E030E081917B
S11307708D932F5F3F4F30937F0220937E02241787
S11307803507ACF3141615062CF041E050E002C016
S113079040E050E0FA01EC57FD4F108208951092AA
S11307A07F0210927E0240E150E0DCCF81E0809332
S11307B08102089580918102811107C08091800295
S11307C0811106C085E990E008958DE890E00895D0
S11307D081E990E00895CF93DF930E94DA03EC015E
S11307E0FC0101900020E9F7AC014E1B5F0B4F5E4A
S11307F05F4F60E070E080E00E948605BE0180E00B
S11308000E947405DF91CF91089589B382958F700A
S113081008950F931F93CF93C9B3C295CF700C2F34
S113082010E0B80189E990E00E942F03C0FD0CC0DC
S113083081E090E09801082E02C0359527950A942E
S1130840E2F720FF04C00CC080E090E009C00196EC
S11308508430910579F782EA90E00E94F7028FEFE5
S1130860CF911F910F9108950F931F93CF93DF930F
S1130870C7E0D0E001E010E028B3C8010C2E02C0AC
S1130880880F991F0A94E2F7822788BB66B370E049
S113089080EB90E00E942F0389B382958F7011F44E
S11308A08C2F07C0219740F786EB90E00E94F70257
S11308B08FEFDF91CF911F910F91089520917E02C8
S11308C030917F02F901EC57FD4F808320313105CF
S11308D034F42F5F3F4F30937F0220937E02E091E8
S11308E07E02F0917F02EC57FD4F10820895CF9362
S11308F0C82F8E3124F084EC90E00E94F702CD31B1
S113090099F480917E0290917F02009729F00197DB
S113091090937F0280937E02E0917E02F0917F02A9
S1130920EC57FD4F108257C0CC3121F480E20E9475
S11309305E0451C0CB3139F49091810281E0892762
S11309408093810248C0809181028823E9F09C2F22
S11309509770933008F03FC0C595C595C595C330D1
S113096038F48C2F880FC80F81E3890F8C0F09C0CE
S1130970992321F0913021F083E203C08AE201C07F
S113098080E30E945E0427C0CA3139F4909180024A
S113099081E08927809380021EC09C2F95959595B0
S11309A09595C770933068F480918002811102C0DC
S11309B081E601C081E4990F990F990FC90F8C0F3B
S11309C008C080918002811102C089E701C089E5D5
S11309D08C0F0E945E04CF910895CF93DF930E9401
S11309E00904C82F0E943404D82F6C2F0C2E000C3D
S11309F0770B89ED90E00E94FA026D2F0D2E000C0A
S1130A00770B8DED90E00E94FA028C2F880F880FEF
S1130A10880F8D0FDF91CF910895E091C8054E2F77
S1130A20EE0F550B660B770B47305105D0F4FA01E6
S1130A30E65DFF4F0C947D0F0E94D60C08950E9432
S1130A404C0B08950E94D30A08950E948F0B0895B9
S1130A500E94F20B08950E94130B08950E94A70CA4
S1130A60089581EE90E00E94F7020895882319F01A
S1130A70813039F024C081B38C6F81BB0E94A407FC
S1130A80089582E00E94F90880E00E946A092FEF2D
S1130A9084E39CE0215080409040E1F700C00000D6
S1130AA081E00E946A092FEF84E39CE0215080409A
S1130AB09040E1F700C000000E94B808089585E066
S1130AC091E00E94F7020895882319F0813021F003
S1130AD006C00E94800708950E94B808089584E221
S1130AE091E00E94F7020895882319F0813029F0DB
S1130AF008C0CB010E941D080895CB010E94EA089A
S1130B00089584E291E00E94F7020895962F8823C5
S1130B1019F0813031F009C0642F892F0E948707B2
S1130B200895842F0E94A20808958BE491E00E9406
S1130B30F7020895CF93DF9300D0CDB7DEB7698372
S1130B401A82BE016F5F7F4F0E9474050F900F9051
S1130B50DF91CF910895FF920F931F93CF93DF936B
S1130B60F82EEA0140E050E00E9486056881662381
S1130B7091F08E010F5F1F4FC0E0D0E021968F2DC2
S1130B800E949A05F80161918F016111F7CFC0317C
S1130B90D1051CF00AC0C0E0D0E060E28F2D0E94B5
S1130BA09A052196C031D105C4F3DF91CF911F91ED
S1130BB00F91FF900895672B09F09FC0009711F4DF
S1130BC0D89808958130910511F4D9980895823008
S1130BD0910511F4DA9808958330910511F4DB98A6
S1130BE008958430910511F4DC98089585309105B9
S1130BF011F4DD9808958630910511F4DE98089576
S1130C008730910511F4DF9808958A30910511F425
S1130C10C09808958B30910511F4C19808958C30D3
S1130C20910511F4C29808958D30910511F4C3987B
S1130C3008958E30910511F4C49808958F3091056C
S1130C4011F4C59808958031910511F4C69808955A
S1130C508131910511F4C79808958431910511F4F7
S1130C60A89808958531910511F4A99808958631BD
S1130C70910511F4AA9808958731910511F4AB9860
S1130C8008958831910511F4AC980895893191053E
S1130C9011F4AD9808958A31910511F4AE98089530
S1130CA08B31910511F4AF9808958E31910511F4AB
S1130CB0909808958F31910511F491980895803298
S1130CC0910511F4929808958132910511F4939845
S1130CD008958232910511F4949808958332910510
S1130CE011F4959808958432910511F49698089515
S1130CF0859709F09FC097980895009711F4D89AA2
S1130D0008958130910511F4D99A0895823091059E
S1130D1011F4DA9A08958330910511F4DB9A089559
S1130D208430910511F4DC9A08958530910511F40D
S1130D30DD9A08958630910511F4DE9A089587307E
S1130D40910511F4DF9A08958A30910511F4C09A3F
S1130D5008958B30910511F4C19A08958C30910552
S1130D6011F4C29A08958D30910511F4C39A08952F
S1130D708E30910511F4C49A08958F30910511F4C1
S1130D80C59A08958031910511F4C69A0895813168
S1130D90910511F4C79A08958431910511F4A89A24
S1130DA008958531910511F4A99A08958631910524
S1130DB011F4AA9A08958731910511F4AB9A089514
S1130DC08831910511F4AC9A08958931910511F493
S1130DD0AD9A08958A31910511F4AE9A08958B3134
S1130DE0910511F4AF9A08958E31910511F4909AFA
S1130DF008958F31910511F4919A089580329105E7
S1130E0011F4929A08958132910511F4939A0895F8
S1130E108232910511F4949A08958332910511F464
S1130E20959A08958432910511F4969A08958597B8
S1130E3009F4979A0895CF93C82F80FF07C061E003
S1130E4070E083E290E00E94DB0506C060E070E0A1
S1130E5083E290E00E94DB05C1FF07C061E070E01F
S1130E6082E290E00E94DB0506C060E070E082E26E
S1130E7090E00E94DB05C2FF07C061E070E081E200
S1130E8090E00E94DB0506C060E070E081E290E043
S1130E900E94DB05C3FF07C061E070E080E290E0E0
S1130EA00E94DB0506C060E070E080E290E00E94F2
S1130EB0DB05CF910895CF93C82F60E070E085E201
S1130EC090E00E94DB058C2F0E941B0761E070E01C
S1130ED084E290E00E94DB058FEC97E00197F1F744
S1130EE000C0000060E070E084E290E00E94DB0556
S1130EF08FEC97E00197F1F700C00000CF910895BF
S1130F0080E00E945B0781E00E945B070895CF9315
S1130F10C62F81110BC080E8860F82958F700E94C6
S1130F205B078C2F8F700E945B070CC0813051F4DB
S1130F3080EC860F82958F700E945B078C2F8F70D8
S1130F400E945B07CF91089580E00E941B078FE306
S1130F509CE90197F1F700C0000083E00E945B0761
S1130F608FE097E20197F1F700C0000083E00E9450
S1130F705B078FEE95E50197F1F700C0000083E071
S1130F800E945B0782E00E945B0782E00E945B078D
S1130F9088E00E945B0780E00E945B078CE00E946F
S1130FA05B0780E00E945B0786E00E945B070E946B
S1130FB080070895CF93C82F61E070E085E290E048
S1130FC00E94DB058C2F82958F700E941B0761E0C5
S1130FD070E084E290E00E94DB058FEC97E00197DB
S1130FE0F1F700C0000060E070E084E290E00E944D
S1130FF0DB058FEC97E00197F1F700C000008C2F20
S11310008F700E941B0761E070E084E290E00E9410
S1131010DB058FEC97E00197F1F700C0000060E07A
S113102070E084E290E00E94DB058FEC97E001978A
S1131030F1F700C00000CF910895CF93DF93EC0146
S11310408881882331F021960E94DA0789918111E1
S1131050FBCFDF91CF910895EF92FF920F931F93EF
S1131060CF93DF937B01142F880F0E943C0D8111D5
S113107012C0112391F0E7011150012F10E00F5F0E
S11310801F4F0E0D1F1D89910E94600DC017D107BF
S1131090D1F7C0E003C0C1E001C0C0E00E945A0D16
S11310A08C2FDF91CF911F910F91FF90EF900895B6
S11310B00F931F93CF93DF9300D000D01F92CDB72F
S11310C0DEB7082F683071F4811102C080E001C0DE
S11310D088E08093660041E066E670E087E20E9463
S11310E02C0826C080916600162F182B1983802F98
S11310F0807F8460812B8A838B7F8B8320E1029F96
S1131100C0011124812B84608C838B7F8D8345E007
S1131110BE016F5F7F4F87E20E942C0810FD08C05C
S1131120033030F4E3EFF1E03197F1F700C0000051
S11311300F900F900F900F900F90DF91CF911F9110
S11311400F910895CF93DF93D82FC62FE62FF0E0A9
S1131150E959FF4F982F9068808160E0892B0E94A5
S11311605808D0939602C0939702DF91CF910895C7
S113117060E081E00E945808109297021092960253
S11311800895CF93C82F9091960280919502981755
S113119018F4CA3059F414C0609197026F5F6093D9
S11311A0970280E00E94A208CA3091F080919602D2
S11311B08F5F8093960261E08C2F0E94580808C0CC
S11311C0609197026F5F6093970280E00E94A2088B
S11311D0CF910895CF93DF93EC018881882331F078
S11311E021960E94C10889918111FBCFDF91CF9193
S11311F008950F931F93CF93DF9300D000D000D0B6
S1131200CDB7DEB7082F80E3898394E39A838B8379
S113121080E28C8394E29D838E8380E180939502A7
S1131220E7E6F0E08081805F82838181805F838351
S1131230BD9AC59A0E94380D8BE49DE10197F1F7A0
S113124000C0000043E0BE016F5F7F4F87E20E9451
S11312502C08182F81EE94E00197F1F700C00000EC
S113126043E0BE016F5F7F4F87E20E942C08182B7A
S113127043E0BE016F5F7F4F87E20E942C08182B6A
S113128043E0BE016C5F7F4F87E20E942C08182B5D
S113129060E088E20E945808812B09F0C59860E05C
S11312A08CE00E94580860E086E00E94580860E0E4
S11312B081E00E94580860E0802F0E94580826961A
S11312C00FB6F894DEBF0FBECDBFDF91CF911F9153
S11312D00F91089568E00E945808089580EC87B93A
S11312E080E886B9D0980895369A3699FECF64B1CD
S11312F075B180E090E00E94820E2AE037ED43E26F
S113130050E40E94100F20E030E04AE754E40E94C9
S1131310100F20E030E040E256E40E94DA0D26E6A9
S113132036E646EE5FE30E94100F20E030E040E036
S113133052E40E946E0D0895CF93DF93CDB7DEB7CC
S1131340FC01E252FD4F208131812F5F3F4F3183F9
S1131350208369E4629FA001639F500D1124DC0186
S1131360A40FB51F89E4FE01359601900D928A956C
S1131370E1F7DF91CF910895FC01E452FD4F4081E4
S11313805181329620813181241735074CF069E46C
S1131390649F9001659F300D1124820F931F08955F
S11313A080E090E008950E94BC09895B9F4FFC0196
S11313B0808191810895FC01E452FD4F4081518167
S11313C04F5F5F4F69E4649F9001659F300D112466
S11313D0FC01E20FF31FE95BFF4F808191810895C7
S11313E010927505109274058FEF9FEF9093770517
S11313F0809376050E9465038FE691E00E94720354
S113140080E00E94360581E00E94360540E050E00D
S113141060E070E081E00E9486056BE771E081E0A6
S11314200E94740540E050E060E070E081E00E94BA
S113143086056BE771E081E00E9474056BE771E05B
S113144081E00E94740580E00E94F60C0E948103F2
S11314500E9405048823B1F08FE39CE90197F1F71A
S113146000C000000E940504882361F00E94ED047E
S1131470EFE3FCE93197F1F700C000000E940D058D
S11314800E9481030E94220D0E949C0AE1CF0E94C7
S1131490C410089541960E94C410089582960E9433
S11314A0C4100895895B9F4FFC0171836083089584
S11314B0C3960E94C4100895CD960E94C410089546
S11314C00F931F930E94D309BC01990F880B990BAA
S11314D00E94840E03EC15E020E044E00E94830F98
S11314E049E050E060E070E081E00E948605B801C8
S11314F081E00E9474051F910F9108950F931F932B
S11315000E94DB09BC01990F880B990B0E94840E81
S113151003EC15E020E044E00E94830F46E050E035
S113152061E070E081E00E948605B80181E00E94DC
S113153074051F910F91089581E00E94640540E0B5
S113154050E060E070E081E00E94860566E971E0A9
S113155081E00E9474050E94600A40E050E061E06E
S113156070E081E00E94860560EA71E081E00E94FB
S113157074050E947E0A089547EA51E060E070E035
S113158080E00E94AB050E94D6030E94EB038BE827
S113159095E00E94930344E852E061E070E080E04B
S11315A00E94AB0508958F3161F464E872E08AE724
S11315B095E00E944A0A0E94880383E00E94F60C88
S11315C008958E3161F464E872E08AE795E00E9440
S11315D04A0A0E94880381E00E94F60C08950E9442
S11315E0770444E852E061E070E080E00E94AB05DB
S11315F084E892E00E9472030E94EB03089542EB98
S113160051E060E070E080E00E94AB0543EC51E003
S113161061E070E080E00E94AB050E942C02089516
S11316200E94320208958F3161F464E872E08AE71F
S113163095E00E945C0A0E94880386E00E94F60CF2
S113164008958E3159F464E872E08AE795E00E94C7
S11316505C0A0E94880384E00E94F60C089580E0EE
S11316600E94640540E050E060E070E080E00E9489
S113167086056AEC71E080E00E9474050E94EB0329
S11316808AE795E00E94930344E852E061E070E049
S113169080E00E94AB0508958F3161F464E872E044
S11316A08AE795E00E94470A0E94880382E00E942C
S11316B0F60C08958E3161F464E872E08AE795E0EF
S11316C00E94470A0E94880380E00E94F60C089555
S11316D00E94770444E852E061E070E080E00E94F8
S11316E0AB0584E892E00E9472030E94EB03089524
S11316F046ED51E060E070E080E00E94AB050E949E
S1131700D6030E94EB038CE995E00E94930344E81E
S113171052E061E070E080E00E94AB0508958F31F3
S113172061F464E872E08AE795E00E944E0A0E9440
S1131730880384E00E94F60C08958E3161F464E815
S113174072E08AE795E00E944E0A0E94880382E0D4
S11317500E94F60C08950E94770444E852E061E088
S113176070E080E00E94AB0584E892E00E9472037E
S11317700E94D6030E94EB03089540EE51E060E01E
S113178070E080E00E94AB050E946E0908950F93FB
S11317901F93CF93DF93CDB7DEB764970FB6F8945A
S11317A0DEBF0FBECDBF0E9474098E010F5F1F4FB5
S11317B022E045E00E94830FA80161E070E080E030
S11317C00E94AB05B80184E892E00E94C4106496BC
S11317D00FB6F894DEBF0FBECDBFDF91CF911F913E
S11317E00F9108958F3161F464E872E08AE795E01F
S11317F00E94580A0E94880385E00E94F60C08950E
S11318008E3159F464E872E08AE795E00E94580A40
S11318100E94880383E00E94F60C0895CF93DF931F
S113182089E490E00E94A30FEC016AE775E00E944E
S1131830C4106BE875E0CE0141960E94C4106CE9B7
S113184075E0CE0182960E94C410FE01E95BFF4F51
S11318508091C1059091C205918380836DEA75E002
S1131860CE01C3960E94C41067EB75E0CE01CD96FD
S11318700E94C410CE010E949C09DF91CF9108956B
S11318800F931F93CF93DF93CDB7DEB7C456D1091F
S11318900FB6F894DEBF0FBECDBF60918202709187
S11318A083026F5F7F4F072E000C880B990B0E94F9
S11318B0840E8E010F5F1F4F20E043E00E94830FD0
S11318C04DE050E060E070E080E00E948605B801E1
S11318D080E00E94740560918202709183028AE71D
S11318E095E00E94520A0E940E0CCC59DF4F0FB6AD
S11318F0F894DEBF0FBECDBFDF91CF911F910F9142
S1131900089580E00E94640540E050E060E070E0EB
S113191080E00E9486056DEE71E080E00E9474050F
S11319200E94400C40E050E061E070E080E00E94E2
S113193086056BEF71E080E00E9474050895EAE784
S1131940F5E01082118A12A213AA15AE08958F3100
S113195039F580E00E94640543E050E060E070E007
S113196080E00E9486058091820290918302019614
S113197090938302809382026CE072E080E00E9484
S113198074052FEF83ED90E3215080409040E1F700
S113199000C0000080E00E94F60C0E949F0C089595
S11319A08E3119F483E00E94F60C089581E00E94C0
S11319B0F60C089580E00E94640540E050E060E089
S11319C070E080E00E94860566E172E080E00E949B
S11319D0740540E050E061E070E080E00E9486051C
S11319E06FE172E080E00E9474050895CF93C82FE0
S11319F0082E000C990BAA0BBB0B87309105D0F471
S1131A00FC01EF5CFF4F0C947D0F0E94DA0C16C0B2
S1131A100E942F0B13C00E94BC0A10C00E94780BB6
S1131A200DC00E94BD0B0AC00E94FF0A07C00E949D
S1131A30810C04C08CE292E00E94F702C093C805B6
S1131A40CF9108958091C805843039F01CF488231F
S1131A5074F409C0853021F006C00E94C70B0895B4
S1131A600E94100B08958CE492E00E94F7020895FE
S1131A7011B880E280B9089594EA96BF06B607FECD
S1131A80FDCF91B1987F983011F0903179F483B9FA
S1131A9084E886BF06B607FEFDCF91B1987F9831E2
S1131AA039F081E0903429F480E0089581E00895CC
S1131AB080E0089584E986BF06B604FCFDCF08954E
S1131AC083B984E886BF06B607FEFDCF91B1987F3F
S1131AD081E0983209F480E008955058BB27AA2782
S1131AE00E94850D0C94D60E0E94C80E38F00E94F8
S1131AF0CF0E20F039F49F3F19F426F40C94C50E50
S1131B000EF4E095E7FB0C94BF0EE92F0E94E70E5C
S1131B1058F3BA17620773078407950720F079F41E
S1131B20A6F50C94090F0EF4E0950B2EBA2FA02DF8
S1131B300B01B90190010C01CA01A0011124FF2776
S1131B40591B99F0593F50F4503E68F11A16F04071
S1131B50A22F232F342F4427585FF3CF4695379570
S1131B602795A795F0405395C9F77EF41F16BA0B35
S1131B70620B730B840BBAF09150A1F0FF0FBB1FE3
S1131B80661F771F881FC2F70EC0BA0F621F731F2C
S1131B90841F48F4879577956795B795F7959E3F89
S1131BA008F0B0CF9395880F08F09927EE0F97951A
S1131BB0879508950E94EE0D0C94D60E0E94CF0EC8
S1131BC058F00E94C80E40F029F45F3F29F00C94AD
S1131BD0BF0E51110C940A0F0C94C50E0E94E70E0F
S1131BE068F39923B1F3552391F3951B550BBB2748
S1131BF0AA2762177307840738F09F5F5F4F220F8D
S1131C00331F441FAA1FA9F335D00E2E3AF0E0E883
S1131C1032D091505040E695001CCAF72BD0FE2FCD
S1131C2029D0660F771F881FBB1F26173707480761
S1131C30AB07B0E809F0BB0B802DBF01FF27935819
S1131C405F4F3AF09E3F510578F00C94BF0E0C9410
S1131C500A0F5F3FE4F3983ED4F386957795679532
S1131C60B795F7959F5FC9F7880F911D969587954E
S1131C7097F90895E1E0660F771F881FBB1F62176D
S1131C8073078407BA0720F0621B730B840BBA0B2B
S1131C90EE1F88F7E09508950E94530E6894B111E1
S1131CA00C940A0F08950E94EF0E88F09F5798F045
S1131CB0B92F9927B751B0F0E1F0660F771F881F4D
S1131CC0991F1AF0BA95C9F714C0B13091F00E9467
S1131CD0090FB1E008950C94090F672F782F882716
S1131CE0B85F39F0B93FCCF3869577956795B3958E
S1131CF0D9F73EF490958095709561957F4F8F4FFD
S1131D009F4F0895E89409C097FB3EF49095809501
S1131D10709561957F4F8F4F9F4F9923A9F0F92FAD
S1131D2096E9BB279395F695879577956795B7952B
S1131D30F111F8CFFAF4BB0F11F460FF1BC06F5F11
S1131D407F4F8F4F9F4F16C0882311F096E911C023
S1131D50772321F09EE8872F762F05C0662371F044
S1131D6096E8862F70E060E02AF09A95660F771F58
S1131D70881FDAF7880F9695879597F9089597F94C
S1131D809F6780E870E060E008959FEF80EC08951D
S1131D9000240A9416161706180609060895002446
S1131DA00A9412161306140605060895092E0394C0
S1131DB0000C11F4882352F0BB0F40F4BF2B11F434
S1131DC060FF04C06F5F7F4F8F4F9F4F089557FD93
S1131DD09058440F551F59F05F3F71F04795880F95
S1131DE097FB991F61F09F3F79F08795089512162C
S1131DF013061406551FF2CF4695F1DF08C01616D8
S1131E0017061806991FF1CF869571056105089488
S1131E100895E894BB2766277727CB0197F908959F
S1131E200E94230F0C94D60E0E94C80E38F00E9414
S1131E30CF0E20F0952311F00C94BF0E0C94C50E18
S1131E4011240C940A0F0E94E70E70F3959FC1F3BE
S1131E50950F50E0551F629FF001729FBB27F00D54
S1131E60B11D639FAA27F00DB11DAA1F649F6627A9
S1131E70B00DA11D661F829F2227B00DA11D621FF8
S1131E80739FB00DA11D621F839FA00D611D221FB2
S1131E90749F3327A00D611D231F849F600D211D96
S1131EA0822F762F6A2F11249F5750409AF0F1F019
S1131EB088234AF0EE0FFF1FBB1F661F771F881F82
S1131EC091505040A9F79E3F510580F00C94BF0EED
S1131ED00C940A0F5F3FE4F3983ED4F3869577950C
S1131EE06795B795F795E7959F5FC1F7FE2B880F28
S1131EF0911D9695879597F90895EE0FFF1F05900C
S1131F00F491E02D0994EF920F931F93CF93DF93F5
S1131F10E80147FD02C034E001C034E1042E000CA6
S1131F20550B57FF03C0519541955109E32E022FDC
S1131F30242FAE010E94F312CE01DF91CF911F91A5
S1131F400F91EF9008950F931F93CF93DF938230F7
S1131F50910510F482E090E0E091CB05F091CC057E
S1131F6020E030E0A0E0B0E0309719F140815181E9
S1131F700281138148175907C8F08417950769F43B
S1131F80109731F012960C93129713961C9327C056
S1131F900093CB051093CC0522C02115310519F00F
S1131FA04217530718F49A01BD01EF01DF01F8014C
S1131FB0DBCF21153105F9F0281B390B243031050D
S1131FC080F48A819B816115710521F0FB01938363
S1131FD0828304C09093CC058093CB05FE01329696
S1131FE044C0FE01E20FF31F819391932250310903
S1131FF0398328833AC02091C9053091CA05232B1F
S113200041F420916200309163003093CA0520931B
S1132010C90520916000309161002115310541F41A
S11320202DB73EB74091640050916500241B350BD9
S1132030E091C905F091CA05E217F307A0F42E1B3D
S11320403F0B2817390778F0AC014E5F5F4F241718
S1132050350748F04E0F5F1F5093CA054093C905DA
S11320608193919302C0E0E0F0E0CF01DF91CF9142
S11320701F910F910895CF93DF93009709F481C0C6
S1132080FC01329713821282A091CB05B091CC054A
S1132090109781F420813181820F931F2091C9050B
S11320A03091CA052817390751F5F093CA05E09312
S11320B0C90567C0ED0120E030E0CE17DF0740F42A
S11320C04A815B819E0141155105F1F0EA01F5CF8A
S11320D0D383C28340815181840F951FC817D907C8
S11320E059F488819981840F951F02969183808386
S11320F08A819B81938382832115310529F4F0938E
S1132100CC05E093CB053DC0E901FB83EA8349910B
S11321105991C40FD51FEC17FD0761F4808191819B
S1132120840F951F0296E9019983888382819381A4
S11321309B838A83E0E0F0E012968D919C91139743
S1132140009719F0FD01DC01F7CF8D919C91119757
S11321509D012E5F3F4F820F931F2091C90530913F
S1132160CA052817390769F4309729F41092CC0569
S11321701092CB0502C013821282B093CA05A093B9
S1132180C905DF91CF910895FB01DC0101900D9207
S11321900020E1F70895BB274A3031F4992322F453
S11321A0BDE2909581959F4F0C94D710BB27FB01FE
S11321B05527AA27880F991FAA1FA41710F0A41B3C
S11321C083955051B9F7A05DAA3308F0A95DA19396
S11321D0009779F7B111B1931192CB010C943B158F
S11321E0AEE0B0E0E6EFF0E10C94F3150D891E8942
S11321F086E08C831A8309838FEF9FE79E838D8308
S1132200AE01475E5F4F6F89788DCE0101960E94C3
S11322101211EF81F885E00FF11F10822E96E4E091
S11322200C940F16ABE0B0E0E8E1F1E10C94E51595
S11322306C017B018A01FC0117821682838181FF74
S1132240CCC1CE0101963C01F6019381F70193FDC7
S1132250859193FF81917F01882309F4BAC1853266
S113226039F493FD859193FF81917F01853229F49F
S1132270B60190E00E944B15E7CF912C212C312C14
S1132280FFE1F315D8F08B3279F038F4803279F02D
S11322908332A1F4232D20611DC08D3261F080337F
S11322A069F4232D216016C0832D8260382EE32D1E
S11322B0E4603E2E2AC0F32DF8601DC037FC2DC00B
S11322C020ED280F2A3040F08E32B9F436FC81C15B
S11322D0232D2064322E19C036FE06C08AE0989E53
S11322E0200D1124922E11C0EAE02E9E200D1124FF
S11322F0222EF32DF0623F2E08C08C3621F4832D5C
S11323008068382E02C0883641F4F70193FD859128
S113231093FF81917F018111B3CF982F9F7D9554B5
S1132320933028F40C5F1F4F9FE399830DC08336CD
S113233031F0833771F0833509F059C021C0F801B9
S1132340808189830E5F1F4F88248394912C5301CD
S113235013C02801F2E04F0E511CF801A080B18097
S113236036FE03C0692D70E002C06FEF7FEFC50138
S11323700E9430154C018201F32DFF773F2E16C0C9
S1132380280122E0420E511CF801A080B18036FEE3
S113239003C0692D70E002C06FEF7FEFC5010E949A
S11323A025154C01F32DF0683F2E820133FC1BC030
S11323B0822D90E088169906B0F4B60180E290E090
S11323C00E944B152A94F4CFF50137FC859137FE12
S11323D081915F01B60190E00E944B1521102A946F
S11323E021E0821A91088114910471F7E8C08436BF
S11323F011F0893641F5F80137FE07C0608171811B
S1132400828193810C5F1F4F08C060817181072E08
S1132410000C880B990B0E5F1F4FF32DFF763F2E98
S113242097FF09C090958095709561957F4F8F4F68
S11324309F4FF0683F2E2AE030E0A3010E948715E9
S1132440882E861845C0853731F4232D2F7EB22E71
S11324502AE030E025C0932D997FB92E8F36C1F044
S113246018F4883579F0B5C0803719F0883721F031
S1132470B0C0E92FE061BE2EB4FE0DC0FB2DF460A8
S1132480BF2E09C034FE0AC0292F2660B22E06C012
S113249028E030E005C020E130E002C020E132E075
S11324A0F801B7FE07C060817181828193810C5F5E
S11324B01F4F06C06081718180E090E00E5F1F4F66
S11324C0A3010E948715882E8618FB2DFF773F2EC7
S11324D036FE0DC0232D2E7FA22E891458F434FE0F
S11324E00BC032FC09C0832D8E7EA82E05C0B82CEB
S11324F0A32C03C0B82C01C0B92CA4FE0FC0FE014C
S1132500E80DF11D8081803321F49A2D997EA92E46
S113251009C0A2FE06C0B394B39404C08A2D867881
S113252009F0B394A3FC11C0A0FE06C0B21488F451
S1132530280C922C9B180EC0B21460F4B60180E2F1
S113254090E00E944B15B394F7CFB21418F42B18F3
S113255002C0982C212CA4FE10C0B60180E390E0A8
S11325600E944B15A2FE17C0A1FC03C088E790E0AF
S113257002C088E590E0B6010CC08A2D867859F037
S1132580A1FE02C08BE201C080E2A7FC8DE2B6018D
S113259090E00E944B15891438F4B60180E390E072
S11325A00E944B159A94F7CF8A94F301E80DF11D1C
S11325B08081B60190E00E944B158110F5CF222056
S11325C009F442CEB60180E290E00E944B152A94B1
S11325D0F6CFF6018681978102C08FEF9FEF2B968D
S11325E0E2E10C940116A9E0B0E0E9EFF2E10C9409
S11325F0EB156A01122FB02E2BE3201720F0FF24D5
S1132600F394F00E02C02CE3F22E0F2D27E0AE015E
S11326104F5F5F4F0E944D14BC014981842F897024
S1132620813031F0E1FC06C0E0FE06C090E205C056
S11326309DE203C09BE201C090E05E2D507143FF18
S11326403CC0911102C083E001C084E0811718F4FA
S1132650212F281B01C020E051110BC0F601822F4D
S113266030E2882319F031938150FBCFC20ED11C84
S113267020E0992329F0D6019C93F60131966F014D
S1132680C6010396E2FE0AC03EE4D6013C9341E44F
S113269011964C93119712963C9306C03EE6F601B0
S11326A0308341E641833283FC01322F40E23323FD
S11326B009F442C041933150FACF42FF44C0911112
S11326C002C083E001C084E0811718F4212F281B85
S11326D001C020E051110BC0F601822F30E28823A3
S11326E019F031938150FBCFC20ED11C20E0992305
S11326F029F0D6019C93F60131966F01C601039629
S1132700E2FE0BC039E4D6013C933EE411963C93BF
S1132710119736E412963C9307C039E6F6013083EC
S11327203EE6318336E63283FC01322F40E2332326
S113273019F041933150FBCFFC01E20FF11D1082DF
S11327408EEF9FEFA6C021E030E0911102C020E09F
S113275030E0161617061CF4FB01319602C0E1E0C6
S1132760F0E02E0F3F1FBB2021F0EB2DF0E031965F
S113277002C0E0E0F0E02E0F3F1FE12FF0E02E1743
S11327803F071CF4121B212F01C020E08E2D8871FD
S113279059F4F601822F30E2882319F031938150E5
S11327A0FBCFC20ED11C20E0992329F0D6019C93C3
S11327B0F60131966F0151110BC0F601822F90E39F
S11327C0882319F091938150FBCFC20ED11C20E0D5
S11327D00F2D060F9A81342F307144FF03C09133BB
S11327E009F40150101624F4093018F008E001C06F
S11327F001E0AB0177FF02C040E050E0FB01E41BC5
S1132800F50BA1E0B0E0AC0FBD1FEA0FFB1F8EE299
S1132810A82E4B01801A91080B2D10E011950195FB
S113282011094F3FBFEF5B0721F4D601AC9211961B
S11328306D01641775072CF08416950614F48181D4
S113284001C080E3415051093196D60111967D01B2
S11328504017510724F0D6018C936701E2CF641727
S1132860750739F4963320F4953319F4311101C006
S113287081E3F6018083F701822F90E2882319F027
S113288091938150FBCFF701E20FF11D108280E09C
S113289090E02996ECE00C940716283008F027E025
S11328A03327DA01990F311D87FD91600096610588
S11328B0710539F432602E5F3D9330E32A95E1F7D8
S11328C008959F3F30F080387105610509F03C5F41
S11328D03C5F3D93913008F08068911DDF93CF9366
S11328E01F930F93FF92EF92192F987F9695E92FDC
S11328F096959695E90FFF27E653FF4F99273327BF
S1132900EE24FF24A701E70105900894079428F416
S1132910360FE71EF81E491F511D660F771F881FCB
S1132920991F0694A1F70590079428F4E70EF81E62
S1132930491F561FC11D770F881F991F661F0694D4
S1132940A1F70590079428F4F80E491F561FC71FD6
S1132950D11D880F991F661F771F0694A1F7059054
S1132960079420F4490F561FC71FD81F990F661FDD
S1132970771F881F0694A9F784911095177041F06A
S1132980D695C79557954795F794E7941A95C1F747
S1132990E0E7F0E068941590159135916591959173
S11329A005907FE27395E118F10A430B560BC90BAE
S11329B0D009C0F7E10CF11E431F561FC91FD01DDB
S11329C07EF4703311F48A95E6CFE894015030F028
S11329D0080F0AF40027021708F4202F2395022F6A
S11329E07A3328F079E37D932A95E9F710C07D9333
S11329F02A9589F6069497956795379517951794B0
S1132A00E118F10A430B560BC90BD00998F0239532
S1132A107E9173957A3308F070E37C932013B8F7B2
S1132A207E9170617D9330F0839571E37D9370E3C3
S1132A302A95E1F71124EF90FF900F911F91CF9108
S1132A40DF91992787FD90950895FC0105906150C9
S1132A5070400110D8F7809590958E0F9F1F0895B0
S1132A60FC016150704001900110D8F78095909559
S1132A708E0F9F1F0895DC01FC01672F719177234E
S1132A80E1F7329704C07C916D9370836291AE1725
S1132A90BF07C8F308950F931F93CF93DF93FB01F0
S1132AA0238121FD03C08FEF9FEF2CC022FF16C0AE
S1132AB046815781248135814217530744F4A0810C
S1132AC0B1819D012F5F3F4F318320838C932681F9
S1132AD037812F5F3F4F3783268314C08B01EC016E
S1132AE0FB010084F185E02D0995892BE1F6D801DD
S1132AF016968D919C911797019617969C938E9399
S1132B001697CE01DF91CF911F910F910895FA018D
S1132B10AA27283051F1203181F1E8946F936E7F18
S1132B206E5F7F4F8F4F9F4FAF4FB1E03ED0B4E009
S1132B303CD0670F781F891F9A1FA11D680F791F4A
S1132B408A1F911DA11D6A0F711D811D911DA11D5B
S1132B5020D009F468943F912AE0269F112430196B
S1132B60305D3193DEF6CF010895462F4770405D06
S1132B704193B3E00FD0C9F7F6CF462F4F70405DB5
S1132B804A3318F0495D31FD4052419302D0A9F710
S1132B90EACFB4E0A6959795879577956795BA950A
S1132BA0C9F700976105710508959B01AC010A2ED0
S1132BB006945795479537952795BA95C9F7620FA7
S1132BC0731F841F951FA01D08952F923F924F924B
S1132BD05F926F927F928F929F92AF92BF92CF92A9
S1132BE0DF92EF92FF920F931F93CF93DF93CDB7B2
S1132BF0DEB7CA1BDB0B0FB6F894DEBF0FBECDBF2A
S1132C0009942A88398848885F846E847D848C84FA
S1132C109B84AA84B984C884DF80EE80FD800C8103
S1132C201B81AA81B981CE0FD11D0FB6F894DEBFE6
S10F2C300FBECDBFED010895F894FFCF56
S1132C3C0000CD0520000880C0000025326400424D
S1132C4C504D00203D2025640A000D0A006E657766
S1132C5C44617461206973204E756C6C003132339D
S1132C6C00414243006162630050494E5F726F77CA
S1132C7C3A004B6579706164476574526F773A001A
S1132C8C50494E423A004B65797061644765744310
S1132C9C6F6C3A004B65795061645F4164644B65B9
S1132CAC793A2033317C333000726F7700636F6C68
S1132CBC0050726F636573734B65793A20556E647B
S1132CCC6566696E65642043757272656E74205313
S1132CDC74617465004C63645F496E69743A204C8A
S1132CEC636454797065204E6F74737570706F7271
S1132CFC746564004C63645F436C65617253637206
S1132D0C65656E3A204C636454797065204E6F741B
S1132D1C20737570706F72746564004C63645F50DB
S1132D2C6F736974696F6E3A204C6364547970657F
S1132D3C204E6F7420737570706F727465640068C4
S1132D4C656C6C6F207468657265006162636465A0
S1132D5C666768696A6B6C6D6E6F7071727374758B
S1132D6C767778797A0043757272656E743A2000BE
S1132D7C4E6578743A2000456E746572204167651F
S1132D8C3A0046696E676572206F6E2067726565DE
S1132D9C6E2D004C696768742000456E7465722052
S1132DAC4E616D653A0050686F6E65206E6F3A0027
S1132DBC54656D70657261747572653A00596F75FE
S1132DCC722053657269616C3A20004E3A436F6EFF
S1132DDC6669726D20503A4261636B005468616E8F
S1132DEC6B20596F750057656C636F6D65210031ED
S1132DFC2E204E657720456E74727900476F746F80
S1132E0C53746174653A206E6577537461746520EC
S1132E1C6E6F7420646566696E65640053746174C6
S1132E2C65735F526566726573683A206375727276
S1132E3C656E747374617465206E6F74206465665A
S1092E4C696E65640000DC
S9030000FC
