:100000000C942A000C9447000C9447000C94470071
:100010000C9447000C9447000C9447000C94470044
:100020000C9447000C9447000C9447000C94470034
:100030000C9447000C9447000C9447000C94470024
:100040000C9447000C9447000C9447000C94470014
:100050000C94470011241FBECFE5D8E0DEBFCDBF12
:1000600011E0A0E6B0E0E4E4F6E102C005900D92F4
:10007000A63CB107D9F722E0A6ECB1E001C01D9281
:10008000A431B207E1F70E94B6060C94200B0C9441
:1000900000000E94C50008950F931F93CF93DF9334
:1000A000CDB7DEB72A970FB6F894DEBF0FBECDBF2F
:1000B000162F072F0E94C5000F931F9385E690E02F
:1000C0009F938F938E010F5F1F4F1F930F930E947B
:1000D0003608C8010E94C5008CE690E00E94C50069
:1000E0000F900F900F900F900F900F902A960FB6D1
:1000F000F894DEBF0FBECDBFDF91CF911F910F915E
:1001000008950F931F93CF93DF93CDB7DEB72A9750
:100110000FB6F894DEBF0FBECDBF8B010E94C500A5
:10012000FE01319620E030E0C801022E02C0959514
:1001300087950A94E2F78170805D81932F5F3F4F2E
:100140002830310589F71986CE0101960E94C50035
:100150008CE690E00E94C5002A960FB6F894DEBFA8
:100160000FBECDBFDF91CF911F910F91089582E017
:100170008BB988E18AB986E880BD8CE089B910BC6A
:1001800008958CB95D9BFECF0895CF93DF93EC016A
:100190008881882331F021960E94C10089918111C4
:1001A000FBCFDF91CF9108958AB383708ABB8FEF25
:1001B00087BB88BB08951092C9011092C8011092A4
:1001C000C7011092C6011092CA010895009759F410
:1001D0008FE690E00E9449001092C7011092C6017C
:1001E0001092CA010895FC0101900020E9F73197AF
:1001F000E81BF90BE031F10528F5AF011092C701BA
:100200001092C6011E161F06B4F4FC01AAECB1E060
:1002100020E030E081918D932F5F3F4F3093C701F5
:100220002093C60124173507ACF3141615062CF0DD
:1002300041E050E002C040E050E0FA01E653FE4FDA
:10024000108208951092C7011092C60140E150E05B
:10025000DCCF81E08093C90108958091C9018111AB
:1002600007C08091C801811106C087E890E0089519
:100270008FE790E0089583E890E00895CF93DF93AF
:100280000E942D01EC01FC0101900020E9F7AC0176
:100290004E1B5F0B4F5E5F4F60E070E080E00E949E
:1002A000CE02BE0180E00E94BC02DF91CF91089592
:1002B00089B382958F7008950F931F93CF93C9B31D
:1002C000C295CF700C2F10E0B8018BE890E00E942F
:1002D0008100C0FD0CC081E090E09801082E02C0B2
:1002E000359527950A94E2F720FF04C00CC080E002
:1002F00090E009C001968430910579F784E990E097
:100300000E9449008FEFCF911F910F9108950F9395
:100310001F93CF93DF93C7E0D0E001E010E028B354
:10032000C8010C2E02C0880F991F0A94E2F7822799
:1003300088BB66B370E082EA90E00E94810089B3D6
:1003400082958F7011F48C2F07C0219740F788EAAF
:1003500090E00E9449008FEFDF91CF911F910F91A4
:1003600008952091C6013091C701F901E653FE4F6F
:1003700080832031310534F42F5F3F4F3093C70124
:100380002093C601E091C601F091C701E653FE4FEC
:1003900010820895CF93C82F8E3124F086EB90E021
:1003A0000E944900CD3199F48091C6019091C70116
:1003B000009729F001979093C7018093C601E091BF
:1003C000C601F091C701E653FE4F108257C0CC31F1
:1003D00021F480E20E94B10151C0CB3139F49091F7
:1003E000C90181E089278093C90148C08091C90172
:1003F0008823E9F09C2F9770933008F03FC0C59593
:10040000C595C595C33038F48C2F880FC80F81E38C
:10041000890F8C0F09C0992321F0913021F083E2DC
:1004200003C08AE201C080E30E94B10127C0CA3143
:1004300039F49091C80181E089278093C8011EC0DA
:100440009C2F959595959595C770933068F48091FC
:10045000C801811102C081E601C081E4990F990FA2
:10046000990FC90F8C0F08C08091C801811102C07B
:1004700089E701C089E58C0F0E94B101CF910895F1
:10048000CF93DF930E945C01C82F0E948701D82F71
:100490006C2F0C2E000C770B8BEC90E00E944C0024
:1004A0006D2F0D2E000C770B8FEC90E00E944C000E
:1004B0008C2F880F880F880F8D0FDF91CF910895B3
:1004C00090911302913061F01CF4992331F011C026
:1004D000923049F0933051F00CC00E94B907089552
:1004E0000E944D0708950E94040708950E949007F6
:1004F000089583ED90E00E9449000895882319F043
:10050000813039F024C081B38C6F81BB0E94EC0430
:10051000089582E00E94410680E00E94B2062FE921
:1005200086E891E0215080409040E1F700C0000053
:1005300081E00E94B2062FE986E891E021508040D8
:100540009040E1F700C000000E940006089587EF88
:1005500090E00E9449000895882319F0813021F02D
:1005600006C00E94C80408950E940006089586E10E
:1005700091E00E9449000895882319F0813029F004
:1005800008C0CB010E9465050895CB010E94320688
:10059000089586E191E00E9449000895962F8823EE
:1005A00019F0813031F009C0642F892F0E94CF04E7
:1005B0000895842F0E94EA0508958DE391E00E943A
:1005C00049000895CF93DF9300D0CDB7DEB769839C
:1005D0001A82BE016F5F7F4F0E94BC020F900F9086
:1005E000DF91CF910895FF920F931F93CF93DF93E5
:1005F000F82EEA0140E050E00E94CE0268816623B6
:1006000091F08E010F5F1F4FC0E0D0E021968F2D3B
:100610000E94E202F80161918F016111F7CFC031B0
:10062000D1051CF00AC0C0E0D0E060E28F2D0E942E
:10063000E2022196C031D105C4F3DF91CF911F9121
:100640000F91FF900895672B09F09FC0009711F458
:10065000D89808958130910511F4D9980895823081
:10066000910511F4DA9808958330910511F4DB981F
:1006700008958430910511F4DC9808958530910532
:1006800011F4DD9808958630910511F4DE980895EF
:100690008730910511F4DF9808958A30910511F49F
:1006A000C09808958B30910511F4C19808958C304D
:1006B000910511F4C29808958D30910511F4C398F5
:1006C00008958E30910511F4C49808958F309105E6
:1006D00011F4C59808958031910511F4C6980895D4
:1006E0008131910511F4C79808958431910511F471
:1006F000A89808958531910511F4A9980895863137
:10070000910511F4AA9808958731910511F4AB98D9
:1007100008958831910511F4AC98089589319105B7
:1007200011F4AD9808958A31910511F4AE980895A9
:100730008B31910511F4AF9808958E31910511F424
:10074000909808958F31910511F491980895803211
:10075000910511F4929808958132910511F49398BE
:1007600008958232910511F4949808958332910589
:1007700011F4959808958432910511F4969808958E
:10078000859709F09FC097980895009711F4D89A1B
:1007900008958130910511F4D99A08958230910518
:1007A00011F4DA9A08958330910511F4DB9A0895D3
:1007B0008430910511F4DC9A08958530910511F487
:1007C000DD9A08958630910511F4DE9A08958730F8
:1007D000910511F4DF9A08958A30910511F4C09AB9
:1007E00008958B30910511F4C19A08958C309105CC
:1007F00011F4C29A08958D30910511F4C39A0895A9
:100800008E30910511F4C49A08958F30910511F43A
:10081000C59A08958031910511F4C69A08958131E1
:10082000910511F4C79A08958431910511F4A89A9D
:1008300008958531910511F4A99A0895863191059D
:1008400011F4AA9A08958731910511F4AB9A08958D
:100850008831910511F4AC9A08958931910511F40C
:10086000AD9A08958A31910511F4AE9A08958B31AD
:10087000910511F4AF9A08958E31910511F4909A73
:1008800008958F31910511F4919A08958032910560
:1008900011F4929A08958132910511F4939A089572
:1008A0008232910511F4949A08958332910511F4DE
:1008B000959A08958432910511F4969A0895859732
:1008C00009F4979A0895CF93C82F80FF07C061E07D
:1008D00070E083E290E00E94230306C060E070E0D5
:1008E00083E290E00E942303C1FF07C061E070E053
:1008F00082E290E00E94230306C060E070E082E2A2
:1009000090E00E942303C2FF07C061E070E081E233
:1009100090E00E94230306C060E070E081E290E076
:100920000E942303C3FF07C061E070E080E290E013
:100930000E94230306C060E070E080E290E00E9425
:100940002303CF910895CF93C82F60E070E085E234
:1009500090E00E9423038C2F0E94630461E070E00A
:1009600084E290E00E94230389EF90E00197F1F781
:1009700000C0000060E070E084E290E00E94230389
:1009800089EF90E00197F1F700C00000CF91089542
:1009900080E00E94A30481E00E94A3040895CF9305
:1009A000C62F81110BC080E8860F82958F700E9440
:1009B000A3048C2F8F700E94A3040CC0813051F4CB
:1009C00080EC860F82958F700E94A3048C2F8F700D
:1009D0000E94A304CF91089580E00E94630487E8F9
:1009E00093E10197F1F700C0000083E00E94A304A7
:1009F00081EE94E00197F1F700C0000083E00E94CF
:100A0000A3048DEB9AE00197F1F700C0000083E0AA
:100A10000E94A30482E00E94A30482E00E94A30437
:100A200088E00E94A30480E00E94A3048CE00E945E
:100A3000A30480E00E94A30486E00E94A3040E9415
:100A4000C8040895CF93C82F61E070E085E290E07C
:100A50000E9423038C2F82958F700E94630461E0B3
:100A600070E084E290E00E94230389EF90E0019718
:100A7000F1F700C0000060E070E084E290E00E94C6
:100A8000230389EF90E00197F1F700C000008C2F5D
:100A90008F700E94630461E070E084E290E00E9445
:100AA000230389EF90E00197F1F700C0000060E0B8
:100AB00070E084E290E00E94230389EF90E00197C8
:100AC000F1F700C00000CF910895CF93DF93EC01C0
:100AD0008881882331F021960E9422058991811115
:100AE000FBCFDF91CF910895EF92FF920F931F9369
:100AF000CF93DF937B01142F880F0E94FE07811193
:100B000012C0112391F0E7011150012F10E00F5F87
:100B10001F4F0E0D1F1D89910E942208C017D1077B
:100B2000D1F7C0E003C0C1E001C0C0E00E941C08D2
:100B30008C2FDF91CF911F910F91FF90EF9008952F
:100B40000F931F93CF93DF9300D000D01F92CDB7A8
:100B5000DEB7082F683071F4811102C080E001C057
:100B600088E08093600041E060E670E087E20E94E8
:100B7000740526C080916000162F182B1983802FD2
:100B8000807F8460812B8A838B7F8B8320E1029F0F
:100B9000C0011124812B84608C838B7F8D8345E081
:100BA000BE016F5F7F4F87E20E94740510FD08C091
:100BB000033030F4E3EFF1E03197F1F700C00000CB
:100BC0000F900F900F900F900F90DF91CF911F918A
:100BD0000F910895CF93DF93D82FC62FE62FF0E023
:100BE000EF59FF4F982F9068808160E0892B0E9419
:100BF000A005D093DC01C093DD01DF91CF91089572
:100C000060E081E00E94A0051092DD011092DC01FD
:100C10000895CF93C82F9091DC018091DB01981744
:100C200018F4CA3059F414C06091DD016F5F60930D
:100C3000DD0180E00E94EA05CA3091F08091DC017C
:100C40008F5F8093DC0161E08C2F0E94A00508C0BB
:100C50006091DD016F5F6093DD0180E00E94EA0535
:100C6000CF910895CF93DF93EC018881882331F0F1
:100C700021960E94090689918111FBCFDF91CF91C6
:100C800008950F931F93CF93DF9300D000D000D02F
:100C9000CDB7DEB7082F80E3898394E39A838B83F3
:100CA00080E28C8394E29D838E8380E18093DB01DC
:100CB000E1E6F0E08081805F82838181805F8383D1
:100CC000BD9AC59A0E94FA078BE49DE10197F1F75E
:100CD00000C0000043E0BE016F5F7F4F87E20E94CB
:100CE0007405182F81EE94E00197F1F700C0000021
:100CF00043E0BE016F5F7F4F87E20E947405182BAF
:100D000043E0BE016F5F7F4F87E20E947405182B9E
:100D100043E0BE016C5F7F4F87E20E947405182B91
:100D200060E088E20E94A005812B09F0C59860E090
:100D30008CE00E94A00560E086E00E94A00560E0D3
:100D400081E00E94A00560E0802F0E94A005269609
:100D50000FB6F894DEBF0FBECDBFDF91CF911F91CC
:100D60000F91089568E00E94A00508950E94B700C1
:100D700081E691E00E94C50080E00E947E0281E051
:100D80000E947E0280E00E94D9070E94D4000E9447
:100D900058018823E1F387E893E10197F1F700C058
:100DA00000000E945801882391F30E944002E7E866
:100DB000F3E13197F1F700C000000E9460020E9449
:100DC000D400E5CF0E942F08089541960E942F0875
:100DD000089582960E942F0808954DE651E060E044
:100DE00070E080E00E94F3020E9429010E943E010F
:100DF0008FEE91E00E94E6004AEC51E061E070E085
:100E000080E00E94F30208958F3161F46AEC71E092
:100E10008EED91E00E94E5060E94DB0083E00E94D7
:100E2000D90708958E3161F46AEC71E08EED91E09E
:100E30000E94E5060E94DB0081E00E94D907089528
:100E40000E94CA014AEC51E061E070E080E00E943B
:100E5000F3028AEC91E00E94C5000E943E010895D1
:100E600080E00E94AC0240E050E060E070E080E092
:100E70000E94CE0268E771E080E00E94BC020E94FE
:100E80003E018EED91E00E94E6004AEC51E061E007
:100E900070E080E00E94F30208958F3161F46AEC03
:100EA00071E08EED91E00E94E2060E94DB0082E09C
:100EB0000E94D90708958E3161F46AEC71E08EEDDD
:100EC00091E00E94E2060E94DB0080E00E94D907C8
:100ED00008950E94CA014AEC51E061E070E080E0B0
:100EE0000E94F3028AEC91E00E94C5000E943E013C
:100EF000089544E851E060E070E080E00E94F30271
:100F00000E9429010E943E0180E092E00E94E600DA
:100F10004AEC51E061E070E080E00E94F302089545
:100F20008F3139F46AEC71E08EED91E00E94E906B0
:100F300008958E3161F46AEC71E08EED91E00E94CB
:100F4000E9060E94DB0082E00E94D90708950E9412
:100F5000CA014AEC51E061E070E080E00E94F302D7
:100F60008AEC91E00E94C5000E9429010E943E0186
:100F7000089581E00E94D907089580E00E94AC02A4
:100F800040E050E060E070E080E00E94CE026EE859
:100F900071E080E00E94BC0240E050E061E070E05F
:100FA00080E00E94CE0267E971E080E00E94BC020E
:100FB0000895CF93C82F813061F01CF4882331F05D
:100FC00011C0823049F0833051F00CC00E94BD073F
:100FD0000DC00E9430070AC00E94ED0607C00E94A3
:100FE000790704C085EA91E00E944900C09313028A
:100FF000CF91089511B88CE080B9089594EA96BF16
:1010000006B607FEFDCF91B1987F983011F0903170
:1010100079F483B984E886BF06B607FEFDCF91B1A7
:10102000987F983139F081E0903429F480E0089578
:1010300081E0089580E0089584E986BF06B604FC47
:10104000FDCF089583B984E886BF06B607FEFDCFBD
:1010500091B1987F81E0983209F480E00895FB0116
:10106000DC0101900D920020E1F70895AEE0B0E0C0
:10107000ECE3F8E00C94F70A0D891E8986E08C8376
:101080001A8309838FEF9FE79E838D83AE01475EAE
:101090005F4F6F89788DCE0101960E945808EF81CD
:1010A000F885E00FF11F10822E96E4E00C94130BEC
:1010B000ABE0B0E0EEE5F8E00C94E90A6C017B01EE
:1010C0008A01FC0117821682838181FFCCC1CE0187
:1010D00001963C01F6019381F70193FD859193FF01
:1010E00081917F01882309F4BAC1853239F493FDD7
:1010F000859193FF81917F01853229F4B60190E0BB
:101100000E944F0AE7CF912C212C312CFFE1F315DF
:10111000D8F08B3279F038F4803279F08332A1F450
:10112000232D20611DC08D3261F0803369F4232DA1
:10113000216016C0832D8260382EE32DE4603E2EA0
:101140002AC0F32DF8601DC037FC2DC020ED280FFC
:101150002A3040F08E32B9F436FC81C1232D206450
:10116000322E19C036FE06C08AE0989E200D11244A
:10117000922E11C0EAE02E9E200D1124222EF32D76
:10118000F0623F2E08C08C3621F4832D8068382E03
:1011900002C0883641F4F70193FD859193FF819158
:1011A0007F018111B3CF982F9F7D9554933028F400
:1011B0000C5F1F4F9FE399830DC0833631F0833757
:1011C00071F0833509F059C021C0F801808189830D
:1011D0000E5F1F4F88248394912C530113C0280164
:1011E000F2E04F0E511CF801A080B18036FE03C022
:1011F000692D70E002C06FEF7FEFC5010E94440AC5
:101200004C018201F32DFF773F2E16C0280122E00A
:10121000420E511CF801A080B18036FE03C0692D3A
:1012200070E002C06FEF7FEFC5010E94390A4C01E8
:10123000F32DF0683F2E820133FC1BC0822D90E01D
:1012400088169906B0F4B60180E290E00E944F0A39
:101250002A94F4CFF50137FC859137FE81915F0127
:10126000B60190E00E944F0A21102A9421E0821AD0
:1012700091088114910471F7E8C0843611F0893621
:1012800041F5F80137FE07C0608171818281938149
:101290000C5F1F4F08C060817181072E000C880B06
:1012A000990B0E5F1F4FF32DFF763F2E97FF09C05E
:1012B00090958095709561957F4F8F4F9F4FF06807
:1012C0003F2E2AE030E0A3010E948B0A882E861868
:1012D00045C0853731F4232D2F7EB22E2AE030E031
:1012E00025C0932D997FB92E8F36C1F018F488351B
:1012F00079F0B5C0803719F0883721F0B0C0E92FF8
:10130000E061BE2EB4FE0DC0FB2DF460BF2E09C0FF
:1013100034FE0AC0292F2660B22E06C028E030E035
:1013200005C020E130E002C020E132E0F801B7FE64
:1013300007C060817181828193810C5F1F4F06C05D
:101340006081718180E090E00E5F1F4FA3010E94D9
:101350008B0A882E8618FB2DFF773F2E36FE0DC098
:10136000232D2E7FA22E891458F434FE0BC032FC9C
:1013700009C0832D8E7EA82E05C0B82CA32C03C0D7
:10138000B82C01C0B92CA4FE0FC0FE01E80DF11D60
:101390008081803321F49A2D997EA92E09C0A2FE66
:1013A00006C0B394B39404C08A2D867809F0B39430
:1013B000A3FC11C0A0FE06C0B21488F4280C922C25
:1013C0009B180EC0B21460F4B60180E290E00E9457
:1013D0004F0AB394F7CFB21418F42B1802C0982C0C
:1013E000212CA4FE10C0B60180E390E00E944F0AB9
:1013F000A2FE17C0A1FC03C088E790E002C088E508
:1014000090E0B6010CC08A2D867859F0A1FE02C08A
:101410008BE201C080E2A7FC8DE2B60190E00E9461
:101420004F0A891438F4B60180E390E00E944F0A15
:101430009A94F7CF8A94F301E80DF11D8081B601EB
:1014400090E00E944F0A8110F5CF222009F442CE8D
:10145000B60180E290E00E944F0A2A94F6CFF6018E
:101460008681978102C08FEF9FEF2B96E2E10C946B
:10147000050BFC010590615070400110D8F7809574
:1014800090958E0F9F1F0895FC0161507040019050
:101490000110D8F7809590958E0F9F1F08950F9398
:1014A0001F93CF93DF93FB01238121FD03C08FEFB7
:1014B0009FEF2CC022FF16C04681578124813581C1
:1014C0004217530744F4A081B1819D012F5F3F4F24
:1014D000318320838C93268137812F5F3F4F378361
:1014E000268314C08B01EC01FB010084F185E02D03
:1014F0000995892BE1F6D80116968D919C91179745
:10150000019617969C938E931697CE01DF91CF91FB
:101510001F910F910895FA01AA27283051F1203127
:1015200081F1E8946F936E7F6E5F7F4F8F4F9F4F77
:10153000AF4FB1E03ED0B4E03CD0670F781F891FB9
:101540009A1FA11D680F791F8A1F911DA11D6A0F87
:10155000711D811D911DA11D20D009F468943F913A
:101560002AE0269F11243019305D3193DEF6CF0139
:101570000895462F4770405D4193B3E00FD0C9F7FF
:10158000F6CF462F4F70405D4A3318F0495D31FD6C
:101590004052419302D0A9F7EACFB4E0A6959795BF
:1015A000879577956795BA95C9F700976105710595
:1015B00008959B01AC010A2E0694579547953795DF
:1015C0002795BA95C9F7620F731F841F951FA01D39
:1015D00008952F923F924F925F926F927F928F92D7
:1015E0009F92AF92BF92CF92DF92EF92FF920F93B2
:1015F0001F93CF93DF93CDB7DEB7CA1BDB0B0FB6BC
:10160000F894DEBF0FBECDBF09942A883988488878
:101610005F846E847D848C849B84AA84B984C8840E
:10162000DF80EE80FD800C811B81AA81B981CE0F05
:10163000D11D0FB6F894DEBF0FBECDBFED010895EA
:04164000F894FFCF4C
:101644000880C00000203D2025640A000D0A006EB9
:10165400657744617461206973204E756C6C003148
:10166400323300414243006162630050494E5F726D
:101674006F773A004B6579706164476574526F7790
:101684003A0050494E423A004B65797061644765AF
:1016940074436F6C3A004B65795061645F416464D4
:1016A4004B65793A2033317C333000726F770063B5
:1016B4006F6C0050726F636573734B65793A205594
:1016C4006E646566696E65642043757272656E74D6
:1016D400205374617465004C63645F496E69743AA5
:1016E400204C636454797065204E6F747375707008
:1016F4006F72746564004C63645F436C656172531C
:10170400637265656E3A204C636454797065204E4B
:101714006F7420737570706F72746564004C6364C9
:101724005F506F736974696F6E3A204C63645479C7
:101734007065204E6F7420737570706F7274656479
:101744000068656C6C6F20746865726500456E7422
:101754006572204167653A00456E746572204E617A
:101764006D653A0050686F6E65206E6F3A0057657C
:101774006C636F6D652100312E204E6577205365B3
:101784007269616C00476F746F53746174653A20B9
:101794006E65775374617465206E6F74206465663A
:0617A400696E656400009F
:00000001FF
