S011000070726F6A636F6465732E737265634A
S11300000C94B5000C94D2000C94D2000C94D20041
S11300100C94D2000C94D2000C94D2000C94D20014
S11300200C94D2000C94D2000C94D2000C94D20004
S11300300C94D2000C94D2000C94D2000C94D200F4
S11300400C94D2000C94D2000C94D2000C94D200E4
S11300500C94D20050055305560559055C055F05FF
S11300606205960C990C9C0C9F0CA20CA50CA80C78
S113007000407A10F35A00A0724E18090010A5D45B
S1130080E80000E87648170000E40B54020000CAB8
S11300909A3B000000E1F5050000809698000000FE
S11300A040420F000000A08601000000102700005D
S11300B00000E803000000006400000000000A00E3
S11300C0000000000100000000002C76D888DC67E6
S11300D04F0823DFC1DFAE59E1B1B796E5E3E4533E
S11300E0C63AE651997696E8E6C28426EB898C9B5B
S11300F062ED407C6FFCEFBC9C9F40F2BAA56FA5FB
S1130100F490055A2AF75C936B6CF9676DC11BFC7C
S1130110E0E40D47FEF520E6B500D0ED902E030097
S1130120943577050080841E080000204E0A0000E4
S113013000C80C333333330F986E12831141EF8DA3
S11301402114893BE65516CFFEE6DB18D1844B38E3
S11301501BF77C1D901DA4BBE424203284725E2214
S11301608100C9F124ECA1E53D2711241FBECFE590
S1130170D8E0DEBFCDBF12E0A0E6B0E0EEE5FBE2E2
S113018002C005900D92A436B107D9F722E0A4E687
S1130190B2E001C01D92A83DB207E1F70E94D00968
S11301A00C94AD150C9400008F929F92AF92BF9265
S11301B0EF92FF920F931F93CF93DF9316161706B8
S11301C004F57B018C010E5F1F4FC1E0D0E0812C50
S11301D0912C5401F801619171918F01072E000C4B
S11301E0880B990B0E94150E9B01AC01C501B4014B
S11301F00E94FF0C4B015C012196EC16FD0654F79E
S113020003C0812C912C5401C501B401DF91CF911D
S11302101F910F91FF90EF90BF90AF909F908F90A0
S113022008958F929F92AF92BF92EF92FF920F9395
S11302301F93CF93DF93161617063CF57B018C01B1
S11302400E5F1F4FC1E0D0E0812C912C5401F801C6
S1130250819191918F018C9FB0018D9F700D9C9F16
S1130260700D1124072E000C880B990B0E94150E9B
S11302709B01AC01C501B4010E94FF0C4B015C0160
S11302802196EC16FD061CF703C0812C912C540119
S1130290C501B401DF91CF911F910F91FF90EF90B1
S11302A0BF90AF909F908F9008954F925F926F92FE
S11302B07F928F929F92AF92BF92CF92DF92EF92F2
S11302C0FF92CF93DF93CDB7DEB760970FB6F89464
S11302D0DEBF0FBECDBF3C016A017B0120E030E0F0
S11302E040E85FE3C701B6010E94FF0C6D837E8383
S11302F08F83988720E030E040E05FE30E94A10E06
S113030069837A838B839C83C701B6010E94DD0DC8
S11303104B015C01C3010E94D400A70196010E9415
S11303206B0D69877A878B879C87B401C3010E9410
S113033011014B015C0129813A814B815C81C70128
S1130340B6010E94A10E2B013C019B01AC01698501
S11303507A858B859C850E94A10E9B01AC01C50109
S1130360B4010E94FE0C4B015C01A7019601C70178
S1130370B6010E94FF0C20E030E040E85FE30E94F9
S1130380FF0C6D877E878F87988B2D813E814F81EF
S11303905885C701B6010E94A10E9B01AC016D8571
S11303A07E858F8598890E94A10E20E030E040EC84
S11303B050E40E946B0D6B017C01A30192016981E1
S11303C07A818B819C810E94A10E9B01AC01C701A3
S11303D0B6010E94FE0C9B01AC01C501B4010E9450
S11303E06B0D9B01AC01609368027093690280936A
S11303F06A0290936B0269817A818B819C810E944D
S1130400A10E9B01AC0169857A858B859C850E9430
S1130410FE0C60936402709365028093660290936D
S1130420670260960FB6F894DEBF0FBECDBFDF91B2
S1130430CF91FF90EF90DF90CF90BF90AF909F90BF
S11304408F907F906F905F904F900895369A369971
S1130450FECF84B195B10895D19881E487B980E83D
S113046086B908954F925F926F927F928F929F9276
S1130470AF92BF92CF92DF92EF92FF920F931F93AE
S1130480CF93DF93CDB7DEB7C057D1090FB6F89439
S1130490DEBF0FBECDBF18861F827E0129E0E20EAB
S11304A0F11C4E018FE6880E911C670102E310E0F7
S11304B00F2EFBE66F2EF0E07F2EF02DDE0111965D
S11304C05D0181E00E942602F601819391936F0100
S11304D01F930F937F926F92BF92AF920E948110ED
S11304E046E050E061E070E080E00E94BA05B501AA
S11304F080E00E94A805FFEF20E782E0F150204051
S11305008040E1F700C00000015011090F900F90E6
S11305100F900F900F900F908C149D0491F640E073
S113052050E068E472E4CE0107960E9455014090C1
S113053068025090690260906A0270906B02809128
S1130540640290916502A0916602B0916702E196FF
S11305508CAF9DAFAEAFBFAFE1975E019DE6A90E34
S1130560B11C02E010E0812C912CD701CD90DD90DC
S11305707D01B801012E000C880B990B0E94150E09
S1130580A30192010E94A10EE1962CAD3DAD4EADAA
S11305905FADE1970E94FF0C0E94DD0D6C157D0597
S11305A084F4F7013497808191818C159D054CF476
S11305B0F701808191818C159D051CF4FFEF8F1A42
S11305C09F0A0F5F1F4FAE14BF0479F6C401880F52
S11305D0991F880D991D4AE0BE016F5F7F4F880FF8
S11305E0991F0E945C104AE050E061E070E080E0F6
S11305F00E94BA05BE016F5F7F4F80E00E94A8058C
S11306004DE050E061E070E080E00E94BA056FE6E2
S113061070E080E00E94A805BE016F5F7F4F82E713
S113062092E00E945510C059DF4F0FB6F894DEBF18
S11306300FBECDBFDF91CF911F910F91FF90EF902F
S1130640DF90CF90BF90AF909F908F907F906F90EE
S11306505F904F9008950E94A60308950F931F93EF
S1130660CF93DF93CDB7DEB72A970FB6F894DEBFEA
S11306700FBECDBF162F072F0E94A6030F931F9303
S113068083E790E09F938F938E010F5F1F4F1F931B
S11306900F930E948110C8010E94A6038AE790E08C
S11306A00E94A6030F900F900F900F900F900F9041
S11306B02A960FB6F894DEBF0FBECDBFDF91CF915F
S11306C01F910F9108950F931F93CF93DF93CDB78D
S11306D0DEB72A970FB6F894DEBF0FBECDBF8B01ED
S11306E00E94A603FE01319620E030E0C801022EEC
S11306F002C0959587950A94E2F78170805D819395
S11307002F5F3F4F2830310589F71986CE010196B6
S11307100E94A6038AE790E00E94A6032A960FB6D9
S1130720F894DEBF0FBECDBFDF91CF911F910F9123
S113073008951BB888E18AB986E880BD83E389B946
S113074010BC08958CB95D9BFECF0895CF93DF93C1
S1130750EC018881882331F021960E94A2038991BB
S11307608111FBCFDF91CF9108958AB383708ABB47
S11307708FEF87BB88BB089510926F0210926E02B0
S113078010926D0210926C021092720208950097FA
S113079059F48DE790E00E942B0310926D021092A1
S11307A06C02109272020895FC0101900020E9F796
S11307B03197E81BF90BE031F10528F5AF011092F0
S11307C06D0210926C021E161F06B4F4FC01A2E71F
S11307D0B2E020E030E081918D932F5F3F4F309362
S11307E06D0220936C0224173507ACF3141615061A
S11307F02CF041E050E002C040E050E0FA01EE5835
S1130800FD4F1082089510926D0210926C0240E127
S113081050E0DCCF81E080936F02089580916F02F5
S1130820811107C080916E02811106C085E990E0B4
S113083008958DE890E0089581E990E00895CF93BC
S1130840DF930E940E04EC01FC0101900020E9F703
S1130850AC014E1B5F0B4F5E5F4F60E070E080E0C9
S11308600E94BA05BE0180E00E94A805DF91CF91E5
S1130870089589B382958F7008950F931F93CF9332
S1130880C9B3C295CF700C2F10E0B80189E990E08C
S11308900E946303C0FD0CC081E090E09801082E23
S11308A002C0359527950A94E2F720FF04C00CC0D6
S11308B080E090E009C001968430910579F782EADE
S11308C090E00E942B038FEFCF911F910F91089519
S11308D00F931F93CF93DF93C7E0D0E001E010E0C4
S11308E028B3C8010C2E02C0880F991F0A94E2F79E
S11308F0822788BB66B370E080EB90E00E946303BC
S113090089B382958F7011F48C2F07C0219740F71B
S113091086EB90E00E942B038FEFDF91CF911F9124
S11309200F91089520916C0230916D02F901EE58F7
S1130930FD4F80832031310534F42F5F3F4F3093D6
S11309406D0220936C02E0916C02F0916D02EE58FE
S1130950FD4F10820895CF93C82F8E3124F084EC7C
S113096090E00E942B03CD3199F480916C02909118
S11309706D02009729F0019790936D0280936C02A9
S1130980E0916C02F0916D02EE58FD4F108257C059
S1130990CC3121F480E20E94920451C0CB3139F46D
S11309A090916F0281E0892780936F0248C0809103
S11309B06F028823E9F09C2F9770933008F03FC0B2
S11309C0C595C595C595C33038F48C2F880FC80FCD
S11309D081E3890F8C0F09C0992321F0913021F014
S11309E083E203C08AE201C080E30E94920427C02C
S11309F0CA3139F490916E0281E0892780936E02A6
S1130A001EC09C2F959595959595C770933068F465
S1130A1080916E02811102C081E601C081E4990FC8
S1130A20990F990FC90F8C0F08C080916E02811124
S1130A3002C089E701C089E58C0F0E949204CF911E
S1130A400895CF93DF930E943D04C82F0E94680449
S1130A50D82F6C2F0C2E000C770B89ED90E00E94A0
S1130A602E036D2F0D2E000C770B8DED90E00E9460
S1130A702E038C2F880F880F880F8D0FDF91CF9155
S1130A800895E091D3024E2FEE0F550B660B770BB2
S1130A9047305105D0F4FA01E65DFF4F0C940E0F78
S1130AA00E94670C08950E94C70A08950E944E0A86
S1130AB008950E940A0B08950E946D0B08950E94E8
S1130AC08E0A08950E94380C089581EE90E00E94E9
S1130AD02B030895882319F0813039F024C081B3A1
S1130AE08C6F81BB0E94D807089582E00E942D0973
S1130AF080E00E949E092FEF84E39CE02150804017
S1130B009040E1F700C0000081E00E949E092FEFB1
S1130B1084E39CE0215080409040E1F700C0000055
S1130B200E94EC08089585E091E00E942B0308954B
S1130B30882319F0813021F006C00E94B40708957B
S1130B400E94EC08089584E291E00E942B0308952A
S1130B50882319F0813029F008C0CB010E94510884
S1130B600895CB010E941E09089584E291E00E9439
S1130B702B030895962F882319F0813031F009C092
S1130B80642F892F0E94BB070895842F0E94D608E2
S1130B9008958BE491E00E942B030895CF93DF9393
S1130BA000D0CDB7DEB769831A82BE016F5F7F4F75
S1130BB00E94A8050F900F90DF91CF910895FF92A6
S1130BC00F931F93CF93DF93F82EEA0140E050E098
S1130BD00E94BA056881662391F08E010F5F1F4F52
S1130BE0C0E0D0E021968F2D0E94CE05F8016191DE
S1130BF08F016111F7CFC031D1051CF00AC0C0E0EC
S1130C00D0E060E28F2D0E94CE052196C031D1053F
S1130C10C4F3DF91CF911F910F91FF900895672B3B
S1130C2009F09FC0009711F4D89808958130910578
S1130C3011F4D99808958230910511F4DA98089541
S1130C408330910511F4DB9808958430910511F4F3
S1130C50DC9808958530910511F4DD980895863067
S1130C60910511F4DE9808958730910511F4DF9809
S1130C7008958A30910511F4C09808958B30910538
S1130C8011F4C19808958C30910511F4C298089517
S1130C908D30910511F4C39808958E30910511F4A7
S1130CA0C49808958F30910511F4C5980895803142
S1130CB0910511F4C69808958131910511F4C798EE
S1130CC008958431910511F4A8980895853191050A
S1130CD011F4A99808958631910511F4AA980895FC
S1130CE08731910511F4AB9808958831910511F479
S1130CF0AC9808958931910511F4AD9808958A311D
S1130D00910511F4AE9808958B31910511F4AF98C3
S1130D1008958E31910511F4909808958F319105BD
S1130D2011F4919808958032910511F492980895E0
S1130D308132910511F4939808958232910511F44A
S1130D40949808958332910511F495980895843206
S1130D50910511F496980895859709F09FC0979886
S1130D600895009711F4D89A08958130910511F4EB
S1130D70D99A08958230910511F4DA9A089583304E
S1130D80910511F4DB9A08958430910511F4DC9AED
S1130D9008958530910511F4DD9A08958630910502
S1130DA011F4DE9A08958730910511F4DF9A0895BD
S1130DB08A30910511F4C09A08958B30910511F48D
S1130DC0C19A08958C30910511F4C29A08958D301A
S1130DD0910511F4C39A08958E30910511F4C49AC3
S1130DE008958F30910511F4C59A089580319105C5
S1130DF011F4C69A08958131910511F4C79A0895A2
S1130E008431910511F4A89A08958531910511F45E
S1130E10A99A08958631910511F4AA9A0895873103
S1130E20910511F4AB9A08958831910511F4AC9AA7
S1130E3008958931910511F4AD9A08958A31910587
S1130E4011F4AE9A08958B31910511F4AF9A089577
S1130E508E31910511F4909A08958F31910511F412
S1130E60919A08958032910511F4929A08958132ED
S1130E70910511F4939A08958232910511F4949A8C
S1130E8008958332910511F4959A08958432910559
S1130E9011F4969A0895859709F4979A0895CF9333
S1130EA0C82F80FF07C061E070E083E290E00E94F9
S1130EB00F0606C060E070E083E290E00E940F0637
S1130EC0C1FF07C061E070E082E290E00E940F067B
S1130ED006C060E070E082E290E00E940F06C2FF6C
S1130EE007C061E070E081E290E00E940F0606C056
S1130EF060E070E081E290E00E940F06C3FF07C04B
S1130F0061E070E080E290E00E940F0606C060E0BD
S1130F1070E080E290E00E940F06CF910895CF9395
S1130F20C82F60E070E085E290E00E940F068C2FED
S1130F300E944F0761E070E084E290E00E940F0697
S1130F408FEC97E00197F1F700C0000060E070E0DB
S1130F5084E290E00E940F068FEC97E00197F1F78E
S1130F6000C00000CF91089580E00E948F0781E0C7
S1130F700E948F070895CF93C62F81110BC080E87C
S1130F80860F82958F700E948F078C2F8F700E941E
S1130F908F070CC0813051F480EC860F82958F70DE
S1130FA00E948F078C2F8F700E948F07CF91089516
S1130FB080E00E944F078FE39CE90197F1F700C09E
S1130FC0000083E00E948F078FE097E20197F1F71A
S1130FD000C0000083E00E948F078FEE95E5019723
S1130FE0F1F700C0000083E00E948F0782E00E94B6
S1130FF08F0782E00E948F0788E00E948F0780E0BD
S11310000E948F078CE00E948F0780E00E948F0768
S113101086E00E948F070E94B4070895CF93C82FDB
S113102061E070E085E290E00E940F068C2F8295CB
S11310308F700E944F0761E070E084E290E00E94AC
S11310400F068FEC97E00197F1F700C0000060E015
S113105070E084E290E00E940F068FEC97E0019725
S1131060F1F700C000008C2F8F700E944F0761E0E1
S113107070E084E290E00E940F068FEC97E0019705
S1131080F1F700C0000060E070E084E290E00E94AC
S11310900F068FEC97E00197F1F700C00000CF91A5
S11310A00895CF93DF93EC018881882331F0219652
S11310B00E940E0889918111FBCFDF91CF91089591
S11310C0EF92FF920F931F93CF93DF937B01142F23
S11310D0880F0E94CD0C811112C0112391F0E701F9
S11310E01150012F10E00F5F1F4F0E0D1F1D89912E
S11310F00E94F10CC017D107D1F7C0E003C0C1E0D2
S113110001C0C0E00E94EB0C8C2FDF91CF911F91A6
S11311100F91FF90EF9008950F931F93CF93DF9358
S113112000D000D01F92CDB7DEB7082F683071F41D
S1131130811102C080E001C088E08093660041E034
S113114066E670E087E20E94600826C0809166002F
S1131150162F182B1983802F807F8460812B8A831C
S11311608B7F8B8320E1029FC0011124812B84603B
S11311708C838B7F8D8345E0BE016F5F7F4F87E259
S11311800E94600810FD08C0033030F4E3EFF1E082
S11311903197F1F700C000000F900F900F900F905F
S11311A00F90DF91CF911F910F910895CF93DF930B
S11311B0D82FC62FE62FF0E0E959FF4F982F9068FB
S11311C0808160E0892B0E948C08D0938402C093B4
S11311D08502DF91CF91089560E081E00E948C0840
S11311E010928502109284020895CF93C82F909193
S11311F0840280918302981718F4CA3059F414C0F9
S1131200609185026F5F6093850280E00E94D6083A
S1131210CA3091F0809184028F5F8093840261E0F0
S11312208C2F0E948C0808C0609185026F5F6093C8
S1131230850280E00E94D608CF910895CF93DF9372
S1131240EC018881882331F021960E94F508899168
S11312508111FBCFDF91CF9108950F931F93CF930B
S1131260DF9300D000D000D0CDB7DEB7082F80E3E5
S1131270898394E39A838B8380E28C8394E29D83B5
S11312808E8380E180938302E7E6F0E08081805FD3
S113129082838181805F8383BD9AC59A0E94C90C31
S11312A08BE49DE10197F1F700C0000043E0BE012B
S11312B06F5F7F4F87E20E946008182F81EE94E0F1
S11312C00197F1F700C0000043E0BE016F5F7F4F5C
S11312D087E20E946008182B43E0BE016F5F7F4FD6
S11312E087E20E946008182B43E0BE016C5F7F4FC9
S11312F087E20E946008182B60E088E20E948C0854
S1131300812B09F0C59860E08CE00E948C0860E0B5
S113131086E00E948C0860E081E00E948C0860E016
S1131320802F0E948C0826960FB6F894DEBF0FBE5D
S1131330CDBFDF91CF911F910F91089568E00E9476
S11313408C08089580EC87B980E886B9D098089510
S1131350369A3699FECF64B175B180E090E00E9470
S1131360130E2AE037ED43E250E40E94A10E20E080
S113137030E04AE754E40E94A10E20E030E040E26D
S113138056E40E946B0D26E636E646EE5FE30E94C5
S1131390A10E20E030E040E052E40E94FF0C0895EA
S11313A00E9499038FE691E00E94A60380E00E94C8
S11313B06A0581E00E946A0540E050E060E070E068
S11313C081E00E94BA056BE771E081E00E94A80504
S11313D040E050E060E070E081E00E94BA056BE715
S11313E071E081E00E94A8056BE771E081E00E9452
S11313F0A80580E00E94870C85E00E94870C0E946B
S1131400B5030E9439048823B1F08FE39CE9019766
S1131410F1F700C000000E943904882361F00E94A3
S11314202105EFE3FCE93197F1F700C000000E94C9
S113143041050E94B5030E94B30CE3CF0E945510EE
S1131440089541960E945510089582960E94551061
S11314500895895B9F4FFC01718360830895C3964F
S11314600E9455100895CD960E945510089546E99E
S113147051E060E070E080E00E94DF050E940A0411
S11314800E941F0489E992E00E94C70342E752E0E8
S113149061E070E080E00E94DF0508958F3161F41F
S11314A062E772E088E892E00E94210A0E94BC038D
S11314B083E00E94870C08958E3161F462E772E044
S11314C088E892E00E94210A0E94BC0381E00E9405
S11314D0870C08950E94AB0442E752E061E070E09B
S11314E080E00E94DF0582E792E00E94A6030E944A
S11314F01F04089541EA51E060E070E080E00E943A
S1131500DF0542EB51E061E070E080E00E94DF051E
S11315100E942C0208950E94320208958F3161F4D2
S113152062E772E088E892E00E94330A0E94BC03FA
S113153086E00E94870C08958E3159F462E772E0C8
S113154088E892E00E94330A0E94BC0384E00E946F
S1131550870C089580E00E94980540E050E060E028
S113156070E080E00E94BA0569EB71E080E00E94BF
S1131570A8050E941F0488E892E00E94C70342E77E
S113158052E061E070E080E00E94DF0508958F3151
S113159061F462E772E088E892E00E941E0A0E9409
S11315A0BC0382E00E94870C08958E3161F462E7E7
S11315B072E088E892E00E941E0A0E94BC0380E068
S11315C00E94870C08950E94AB0442E752E061E058
S11315D070E080E00E94DF0582E792E00E94A603AB
S11315E00E941F04089545EC51E060E070E080E043
S11315F00E94DF050E940A040E941F048AEA92E006
S11316000E94C70342E752E061E070E080E00E947C
S1131610DF0508958F3161F462E772E088E892E0B3
S11316200E94250A0E94BC0384E00E94870C08954E
S11316308E3161F462E772E088E892E00E94250A44
S11316400E94BC0382E00E94870C08950E94AB04B0
S113165042E752E061E070E080E00E94DF0582E74B
S113166092E00E94A6030E940A040E941F040895A7
S11316704FEC51E060E070E080E00E94DF050E94E2
S1131680A20908950F931F93CF93DF93CDB7DEB7CD
S113169064970FB6F894DEBF0FBECDBF0E94A809B1
S11316A08E010F5F1F4F22E045E00E94140FA80136
S11316B061E070E080E00E94DF05B80182E792E01B
S11316C00E94551064960FB6F894DEBF0FBECDBFCE
S11316D0DF91CF911F910F9108958F3161F462E7EB
S11316E072E088E892E00E942F0A0E94BC0385E021
S11316F00E94870C08958E3159F462E772E088E8FD
S113170092E00E942F0A0E94BC0383E00E94870C8F
S11317100895CF93DF938BE490E00E94340FEC01A3
S113172068E872E00E94551069E972E0CE014196C2
S11317300E9455106AEA72E0CE0182960E9455100A
S1131740FE01E95BFF4F8091CF029091D00291831B
S113175080833296118210826BEB72E0CE01C396C5
S11317600E94551065EC72E0CE01CD960E94551092
S113177020918602309187022115310531F4D093EE
S11317808702C09386020AC09C01F901E75BFF4F00
S1131790808191810097C1F7D183C083DF91CF917C
S11317A008950F931F93CF93DF93CDB7DEB7C4563D
S11317B0D1090FB6F894DEBF0FBECDBF60917002A1
S11317C0709171026F5F7F4F072E000C880B990B8D
S11317D00E94150E8E010F5F1F4F20E043E00E9410
S11317E0140F4DE050E060E070E080E00E94BA0524
S11317F0B80180E00E94A8056091700270917102A6
S113180088E892E00E94290A0E94890BCC59DF4F94
S11318100FB6F894DEBF0FBECDBFDF91CF911F91FD
S11318200F91089580E00E94980540E050E060E048
S113183070E080E00E94BA056CED71E080E00E94E7
S1131840A8050E94D10B40E050E061E070E080E028
S11318500E94BA056AEE71E080E00E94A80508952E
S1131860E8E8F2E01082118A12A213AA15AE0895D4
S11318708F3139F580E00E94980543E050E060E044
S113188070E080E00E94BA0580917002909171022C
S1131890019690937102809370026BEF71E080E087
S11318A00E94A8052FEF83ED90E3215080409040E3
S11318B0E1F700C0000080E00E94870C0E94300C19
S11318C008958E3119F483E00E94870C089581E015
S11318D00E94870C089580E00E94980540E050E043
S11318E060E070E080E00E94BA0565E072E080E0AC
S11318F00E94A80540E050E061E070E080E00E94B2
S1131900BA056EE072E080E00E94A8050895CF93C6
S1131910C82F082E000C990BAA0BBB0B873091051E
S1131920D0F4FC01EF5CFF4F0C940E0F0E946B0C83
S113193016C00E94AA0A13C00E94370A10C00E944F
S1131940F30A0DC00E94380B0AC00E947A0A07C02D
S11319500E94120C04C08BE192E00E942B03C093FE
S1131960D302CF9108958091D302843039F01CF4CE
S1131970882374F409C0853021F006C00E94420B0C
S113198008950E948B0A08958BE392E00E942B0332
S1131990089511B880E280B9089594EA96BF06B616
S11319A007FEFDCF91B1987F983011F0903179F412
S11319B083B984E886BF06B607FEFDCF91B1987F50
S11319C0983139F081E0903429F480E0089581E081
S11319D0089580E0089584E986BF06B604FCFDCF2F
S11319E0089583B984E886BF06B607FEFDCF91B19A
S11319F0987F81E0983209F480E008955058BB271D
S1131A00AA270E94160D0C94670E0E94590E38F0F6
S1131A100E94600E20F039F49F3F19F426F40C94D0
S1131A20560E0EF4E095E7FB0C94500EE92F0E943D
S1131A30780E58F3BA17620773078407950720F0E6
S1131A4079F4A6F50C949A0E0EF4E0950B2EBA2FA9
S1131A50A02D0B01B90190010C01CA01A0011124B0
S1131A60FF27591B99F0593F50F4503E68F11A165C
S1131A70F040A22F232F342F4427585FF3CF4695ED
S1131A8037952795A795F0405395C9F77EF41F160F
S1131A90BA0B620B730B840BBAF09150A1F0FF0FD9
S1131AA0BB1F661F771F881FC2F70EC0BA0F621FC5
S1131AB0731F841F48F4879577956795B795F795B5
S1131AC09E3F08F0B0CF9395880F08F09927EE0F4A
S1131AD09795879508950E947F0D0C94670E0E9438
S1131AE0600E58F00E94590E40F029F45F3F29F02F
S1131AF00C94500E51110C949B0E0C94560E0E9493
S1131B00780E68F39923B1F3552391F3951B550B84
S1131B10BB27AA2762177307840738F09F5F5F4FBC
S1131B20220F331F441FAA1FA9F335D00E2E3AF0FB
S1131B30E0E832D091505040E695001CCAF72BD013
S1131B40FE2F29D0660F771F881FBB1F2617370764
S1131B504807AB07B0E809F0BB0B802DBF01FF2796
S1131B6093585F4F3AF09E3F510578F00C94500E15
S1131B700C949B0E5F3FE4F3983ED4F386957795DF
S1131B806795B795F7959F5FC9F7880F911D96954F
S1131B90879597F90895E1E0660F771F881FBB1FAB
S1131BA0621773078407BA0720F0621B730B840B58
S1131BB0BA0BEE1F88F7E09508950E94E40D68942F
S1131BC0B1110C949B0E08950E94800E88F09F57CB
S1131BD098F0B92F9927B751B0F0E1F0660F771F4D
S1131BE0881F991F1AF0BA95C9F714C0B13091F043
S1131BF00E949A0EB1E008950C949A0E672F782FE4
S1131C008827B85F39F0B93FCCF386957795679507
S1131C10B395D9F73EF490958095709561957F4F73
S1131C208F4F9F4F0895E89409C097FB3EF4909519
S1131C308095709561957F4F8F4F9F4F9923A9F0A1
S1131C40F92F96E9BB279395F69587957795679530
S1131C50B795F111F8CFFAF4BB0F11F460FF1BC074
S1131C606F5F7F4F8F4F9F4F16C0882311F096E907
S1131C7011C0772321F09EE8872F762F05C06623B5
S1131C8071F096E8862F70E060E02AF09A95660F6E
S1131C90771F881FDAF7880F9695879597F9089527
S1131CA097F99F6780E870E060E008959FEF80EC0B
S1131CB0089500240A9416161706180609060895AE
S1131CC000240A9412161306140605060895092E14
S1131CD00394000C11F4882352F0BB0F40F4BF2B83
S1131CE011F460FF04C06F5F7F4F8F4F9F4F0895C3
S1131CF057FD9058440F551F59F05F3F71F04795B9
S1131D00880F97FB991F61F09F3F79F0879508959D
S1131D10121613061406551FF2CF4695F1DF08C0BC
S1131D20161617061806991FF1CF869571056105D9
S1131D3008940895E894BB2766277727CB0197F981
S1131D4008950E94B40E0C94670E0E94590E38F048
S1131D500E94600E20F0952311F00C94500E0C9408
S1131D60560E11240C949B0E0E94780E70F3959FCE
S1131D70C1F3950F50E0551F629FF001729FBB277E
S1131D80F00DB11D639FAA27F00DB11DAA1F649F1A
S1131D906627B00DA11D661F829F2227B00DA11DCD
S1131DA0621F739FB00DA11D621F839FA00D611D53
S1131DB0221F749F3327A00D611D231F849F600D74
S1131DC0211D822F762F6A2F11249F5750409AF09D
S1131DD0F1F088234AF0EE0FFF1FBB1F661F771F29
S1131DE0881F91505040A9F79E3F510580F00C94F4
S1131DF0500E0C949B0E5F3FE4F3983ED4F386950B
S1131E0077956795B795F795E7959F5FC1F7FE2B93
S1131E10880F911D9695879597F90895EE0FFF1FEA
S1131E200590F491E02D0994EF920F931F93CF93B3
S1131E30DF93E80147FD02C034E001C034E1042E21
S1131E40000C550B57FF03C0519541955109E32EE2
S1131E50022F242FAE010E948412CE01DF91CF9174
S1131E601F910F91EF9008950F931F93CF93DF93DA
S1131E708230910510F482E090E0E091D602F09176
S1131E80D70220E030E0A0E0B0E0309719F14081C3
S1131E9051810281138148175907C8F084179507A7
S1131EA069F4109731F012960C93129713961C93C1
S1131EB027C00093D6021093D70222C02115310502
S1131EC019F04217530718F49A01BD01EF01DF011D
S1131ED0F801DBCF21153105F9F0281B390B24302B
S1131EE0310580F48A819B816115710521F0FB0124
S1131EF09383828304C09093D7028093D602FE0119
S1131F00329644C0FE01E20FF31F81939193225055
S1131F103109398328833AC02091D4023091D50203
S1131F20232B41F420916200309163003093D50259
S1131F302093D40220916000309161002115310575
S1131F4041F42DB73EB74091640050916500241BC5
S1131F50350BE091D402F091D502E217F307A0F417
S1131F602E1B3F0B2817390778F0AC014E5F5F4FEB
S1131F702417350748F04E0F5F1F5093D502409346
S1131F80D4028193919302C0E0E0F0E0CF01DF91AD
S1131F90CF911F910F910895CF93DF93009709F488
S1131FA081C0FC01329713821282A091D602B091B3
S1131FB0D702109781F420813181820F931F2091E1
S1131FC0D4023091D5022817390751F5F093D50280
S1131FD0E093D40267C0ED0120E030E0CE17DF07C4
S1131FE040F44A815B819E0141155105F1F0EA01FB
S1131FF0F5CFD383C28340815181840F951FC817C5
S1132000D90759F488819981840F951F0296918389
S113201080838A819B81938382832115310529F4EE
S1132020F093D702E093D6023DC0E901FB83EA8333
S113203049915991C40FD51FEC17FD0761F48081B4
S11320409181840F951F0296E90199838883828187
S113205093819B838A83E0E0F0E012968D919C91BA
S11320601397009719F0FD01DC01F7CF8D919C9136
S113207011979D012E5F3F4F820F931F2091D40231
S11320803091D5022817390769F4309729F4109252
S1132090D7021092D60202C013821282B093D502E4
S11320A0A093D402DF91CF910895FB01DC0101904C
S11320B00D920020E1F70895BB274A3031F49923AB
S11320C022F4BDE2909581959F4F0C946810BB2734
S11320D0FB015527AA27880F991FAA1FA41710F0E0
S11320E0A41B83955051B9F7A05DAA3308F0A95DEC
S11320F0A193009779F7B111B1931192CB010C948C
S1132100CC14AEE0B0E0E7E8F0E10C9484150D895E
S11321101E8986E08C831A8309838FEF9FE79E8351
S11321208D83AE01475E5F4F6F89788DCE01019636
S11321300E94A310EF81F885E00FF11F10822E9604
S1132140E4E00C94A015ABE0B0E0E9EAF0E10C9413
S113215076156C017B018A01FC011782168283814A
S113216081FFCCC1CE0101963C01F6019381F701B8
S113217093FD859193FF81917F01882309F4BAC16E
S1132180853239F493FD859193FF81917F018532E6
S113219029F4B60190E00E94DC14E7CF912C212CA5
S11321A0312CFFE1F315D8F08B3279F038F480321A
S11321B079F08332A1F4232D20611DC08D3261F0AA
S11321C0803369F4232D216016C0832D8260382E5C
S11321D0E32DE4603E2E2AC0F32DF8601DC037FCC9
S11321E02DC020ED280F2A3040F08E32B9F436FC91
S11321F081C1232D2064322E19C036FE06C08AE028
S1132200989E200D1124922E11C0EAE02E9E200DDE
S11322101124222EF32DF0623F2E08C08C3621F4B7
S1132220832D8068382E02C0883641F4F70193FD6F
S1132230859193FF81917F018111B3CF982F9F7D69
S11322409554933028F40C5F1F4F9FE399830DC07E
S1132250833631F0833771F0833509F059C021C0DA
S1132260F801808189830E5F1F4F88248394912C09
S1132270530113C02801F2E04F0E511CF801A08055
S1132280B18036FE03C0692D70E002C06FEF7FEFAE
S1132290C5010E94C1144C018201F32DFF773F2E2A
S11322A016C0280122E0420E511CF801A080B18022
S11322B036FE03C0692D70E002C06FEF7FEFC501E9
S11322C00E94B6144C01F32DF0683F2E820133FCBA
S11322D01BC0822D90E088169906B0F4B60180E206
S11322E090E00E94DC142A94F4CFF50137FC859128
S11322F037FE81915F01B60190E00E94DC14211049
S11323002A9421E0821A91088114910471F7E8C09B
S1132310843611F0893641F5F80137FE07C0608133
S11323207181828193810C5F1F4F08C0608171812C
S1132330072E000C880B990B0E5F1F4FF32DFF76B1
S11323403F2E97FF09C090958095709561957F4FBA
S11323508F4F9F4FF0683F2E2AE030E0A3010E9488
S11323601815882E861845C0853731F4232D2F7E05
S1132370B22E2AE030E025C0932D997FB92E8F36F6
S1132380C1F018F4883579F0B5C0803719F0883772
S113239021F0B0C0E92FE061BE2EB4FE0DC0FB2DCC
S11323A0F460BF2E09C034FE0AC0292F2660B22E65
S11323B006C028E030E005C020E130E002C020E1A2
S11323C032E0F801B7FE07C0608171818281938198
S11323D00C5F1F4F06C06081718180E090E00E5F4A
S11323E01F4FA3010E941815882E8618FB2DFF7716
S11323F03F2E36FE0DC0232D2E7FA22E891458F4B5
S113240034FE0BC032FC09C0832D8E7EA82E05C07D
S1132410B82CA32C03C0B82C01C0B92CA4FE0FC047
S1132420FE01E80DF11D8081803321F49A2D997EFF
S1132430A92E09C0A2FE06C0B394B39404C08A2D89
S1132440867809F0B394A3FC11C0A0FE06C0B214B0
S113245088F4280C922C9B180EC0B21460F4B601B8
S113246080E290E00E94DC14B394F7CFB21418F425
S11324702B1802C0982C212CA4FE10C0B60180E3B6
S113248090E00E94DC14A2FE17C0A1FC03C088E700
S113249090E002C088E590E0B6010CC08A2D8678F1
S11324A059F0A1FE02C08BE201C080E2A7FC8DE2DC
S11324B0B60190E00E94DC14891438F4B60180E37C
S11324C090E00E94DC149A94F7CF8A94F301E80D0B
S11324D0F11D8081B60190E00E94DC148110F5CFDB
S11324E0222009F442CEB60180E290E00E94DC147E
S11324F02A94F6CFF6018681978102C08FEF9FEF71
S11325002B96E2E10C949215A9E0B0E0EAE8F2E13E
S11325100C947C156A01122FB02E2BE3201720F0A7
S1132520FF24F394F00E02C02CE3F22E0F2D27E0CB
S1132530AE014F5F5F4F0E94DE13BC014981842FBF
S11325408970813031F0E1FC06C0E0FE06C090E203
S113255005C09DE203C09BE201C090E05E2D507176
S113256043FF3CC0911102C083E001C084E08117A5
S113257018F4212F281B01C020E051110BC0F601D3
S1132580822F30E2882319F031938150FBCFC20EA1
S1132590D11C20E0992329F0D6019C93F6013196B1
S11325A06F01C6010396E2FE0AC03EE4D6013C93E5
S11325B041E411964C93119712963C9306C03EE663
S11325C0F601308341E641833283FC01322F40E23D
S11325D0332309F442C041933150FACF42FF44C03F
S11325E0911102C083E001C084E0811718F4212F07
S11325F0281B01C020E051110BC0F601822F30E2EC
S1132600882319F031938150FBCFC20ED11C20E0F6
S1132610992329F0D6019C93F60131966F01C601E6
S11326200396E2FE0BC039E4D6013C933EE41196D6
S11326303C93119736E412963C9307C039E6F601B1
S113264030833EE6318336E63283FC01322F40E2AA
S1132650332319F041933150FBCFFC01E20FF11DFC
S113266010828EEF9FEFA6C021E030E0911102C0EE
S113267020E030E0161617061CF4FB01319602C068
S1132680E1E0F0E02E0F3F1FBB2021F0EB2DF0E046
S1132690319602C0E0E0F0E02E0F3F1FE12FF0E0A2
S11326A02E173F071CF4121B212F01C020E08E2D92
S11326B0887159F4F601822F30E2882319F031939E
S11326C08150FBCFC20ED11C20E0992329F0D60102
S11326D09C93F60131966F0151110BC0F601822FC4
S11326E090E3882319F091938150FBCFC20ED11C43
S11326F020E00F2D060F9A81342F307144FF03C060
S1132700913309F40150101624F4093018F008E04C
S113271001C001E0AB0177FF02C040E050E0FB01E3
S1132720E41BF50BA1E0B0E0AC0FBD1FEA0FFB1FEB
S11327308EE2A82E4B01801A91080B2D10E0119502
S1132740019511094F3FBFEF5B0721F4D601AC920D
S113275011966D01641775072CF08416950614F410
S1132760818101C080E3415051093196D60111960F
S11327707D014017510724F0D6018C936701E2CF05
S11327806417750739F4963320F4953319F431112D
S113279001C081E3F6018083F701822F90E2882350
S11327A019F091938150FBCFF701E20FF11D1082D4
S11327B080E090E02996ECE00C949815283008F01D
S11327C027E03327DA01990F311D87FD91600096C8
S11327D06105710539F432602E5F3D9330E32A952B
S11327E0E1F708959F3F30F080387105610509F0E5
S11327F03C5F3C5F3D93913008F08068911DDF930E
S1132800CF931F930F93FF92EF92192F987F969572
S1132810E92F96959695E90FFF27E653FF4F9927E1
S11328203327EE24FF24A701E701059008940794B9
S113283028F4360FE71EF81E491F511D660F771F37
S1132840881F991F0694A1F70590079428F4E70EB2
S1132850F81E491F561FC11D770F881F991F661F39
S11328600694A1F70590079428F4F80E491F561F03
S1132870C71FD11D880F991F661F771F0694A1F7E4
S11328800590079420F4490F561FC71FD81F990FAE
S1132890661F771F881F0694A9F7849110951770F7
S11328A041F0D695C79557954795F794E7941A95AF
S11328B0C1F7E0E7F0E068941590159135916591C2
S11328C0959105907FE27395E118F10A430B560B3D
S11328D0C90BD009C0F7E10CF11E431F561FC91FD5
S11328E0D01D7EF4703311F48A95E6CFE89401503C
S11328F030F0080F0AF40027021708F4202F23955C
S1132900022F7A3328F079E37D932A95E9F710C0F2
S11329107D932A9589F6069497956795379517952B
S11329201794E118F10A430B560BC90BD00998F020
S113293023957E9173957A3308F070E37C9320138A
S1132940B8F77E9170617D9330F0839571E37D9348
S113295070E32A95E1F71124EF90FF900F911F91F6
S1132960CF91DF91992787FD90950895FC010590FB
S1132970615070400110D8F7809590958E0F9F1F7D
S11329800895FC016150704001900110D8F78095C2
S113299090958E0F9F1F0895DC01FC01672F7191A4
S11329A07723E1F7329704C07C916D937083629131
S11329B0AE17BF07C8F308950F931F93CF93DF9308
S11329C0FB01238121FD03C08FEF9FEF2CC022FF69
S11329D016C046815781248135814217530744F438
S11329E0A081B1819D012F5F3F4F318320838C9360
S11329F0268137812F5F3F4F3783268314C08B0195
S1132A00EC01FB010084F185E02D0995892BE1F6A9
S1132A10D80116968D919C911797019617969C93C1
S1132A208E931697CE01DF91CF911F910F91089548
S1132A30FA01AA27283051F1203181F1E8946F93EB
S1132A406E7F6E5F7F4F8F4F9F4FAF4FB1E03ED091
S1132A50B4E03CD0670F781F891F9A1FA11D680F2F
S1132A60791F8A1F911DA11D6A0F711D811D911D62
S1132A70A11D20D009F468943F912AE0269F1124D7
S1132A803019305D3193DEF6CF010895462F47703B
S1132A90405D4193B3E00FD0C9F7F6CF462F4F7096
S1132AA0405D4A3318F0495D31FD4052419302D0F4
S1132AB0A9F7EACFB4E0A69597958795779567959A
S1132AC0BA95C9F700976105710508959B01AC019A
S1132AD00A2E06945795479537952795BA95C9F7C1
S1132AE0620F731F841F951FA01D08952F923F929C
S1132AF04F925F926F927F928F929F92AF92BF920A
S1132B00CF92DF92EF92FF920F931F93CF93DF93B5
S1132B10CDB7DEB7CA1BDB0B0FB6F894DEBF0FBE12
S1132B20CDBF09942A88398848885F846E847D845F
S1132B308C849B84AA84B984C884DF80EE80FD8061
S1132B400C811B81AA81B981CE0FD11D0FB6F894D7
S1112B50DEBF0FBECDBFED010895F894FFCF98
S1132B5E0000D80220000880C00000253264004224
S1132B6E504D00203D2025640A000D0A006E657745
S1132B7E44617461206973204E756C6C003132337C
S1132B8E00414243006162630050494E5F726F77A9
S1132B9E3A004B6579706164476574526F773A00F9
S1132BAE50494E423A004B657970616447657443EF
S1132BBE6F6C3A004B65795061645F4164644B6598
S1132BCE793A2033317C333000726F7700636F6C47
S1132BDE0050726F636573734B65793A20556E645A
S1132BEE6566696E65642043757272656E742053F2
S1132BFE74617465004C63645F496E69743A204C69
S1132C0E636454797065204E6F74737570706F724F
S1132C1E746564004C63645F436C656172536372E4
S1132C2E65656E3A204C636454797065204E6F74FA
S1132C3E20737570706F72746564004C63645F50BA
S1132C4E6F736974696F6E3A204C6364547970655E
S1132C5E204E6F7420737570706F727465640068A3
S1132C6E656C6C6F2074686572650061626364657F
S1132C7E666768696A6B6C6D6E6F7071727374756A
S1132C8E767778797A00456E746572204167653A75
S1132C9E0046696E676572206F6E20677265656E99
S1132CAE2D004C696768742000456E746572204E61
S1132CBE616D653A0050686F6E65206E6F3A005410
S1132CCE656D70657261747572653A00596F7572CF
S1132CDE2053657269616C3A20004E3A436F6E66FA
S1132CEE69726D20503A4261636B005468616E6B79
S1132CFE20596F750057656C636F6D652100312E19
S1132D0E204E657720456E74727900476F746F5349
S1132D1E746174653A206E65775374617465206EC0
S1132D2E6F7420646566696E6564005374617465BE
S1132D3E735F526566726573683A20637572726565
S1132D4E6E747374617465206E6F74206465666945
S1072D5E6E65640036
S9030000FC
