:100000000C942A000C9447000C9447000C94470071
:100010000C9447000C9447000C9447000C94470044
:100020000C9447000C9447000C9447000C94470034
:100030000C9447000C9447000C9447000C94470024
:100040000C9447000C9447000C9447000C94470014
:100050000C94470011241FBECFE5D8E0DEBFCDBF12
:1000600010E0A0E6B0E0ECECF9E002C005900D92E3
:10007000AC3DB107D9F720E0ACEDB0E001C01D9276
:10008000A03EB207E1F70E9461040C94E4040C94D2
:100090000000089582E08BB988E18AB986E880BDC6
:1000A0008CE089B910BC089581E00E94A5040895F0
:1000B0000E94730261E080E00E947A0285E690E08F
:1000C0000E94100360E080E00E947A0284E790E0E2
:1000D0000E94100308958AB383708ABB8FEF87BB99
:1000E00088BB089589B382958F70089589B38295EE
:1000F0008F70482F50E080FD0CC081E090E09A01A5
:10010000082E02C0359527950A94E2F720FF04C017
:10011000089580E090E0089501968430910579F784
:100120008FEF089598B381E0892788BB89B38295C2
:100130008F7099F081E090E061E070E048B39B013E
:10014000082E02C0220F331F0A94E2F7242728BB8F
:1001500029B322952F7021F4089580E090E008954E
:1001600001968830910551F78FEF0895CF930E9443
:100170007600C82F0E949200CC0FCC0FCC0F8C0FB2
:10018000CF9108959091DF00911103C00E94540017
:10019000089582E890E00E9449000895672B09F0D5
:1001A0009FC0009711F4D89808958130910511F4FB
:1001B000D99808958230910511F4DA980895833022
:1001C000910511F4DB9808958430910511F4DC98C1
:1001D00008958530910511F4DD98089586309105D4
:1001E00011F4DE9808958730910511F4DF98089591
:1001F0008A30910511F4C09808958B30910511F45F
:10020000C19808958C30910511F4C29808958D30ED
:10021000910511F4C39808958E30910511F4C49896
:1002200008958F30910511F4C59808958031910596
:1002300011F4C69808958131910511F4C798089575
:100240008431910511F4A89808958531910511F430
:10025000A99808958631910511F4AA9808958731D7
:10026000910511F4AB9808958831910511F4AC987B
:1002700008958931910511F4AD9808958A31910559
:1002800011F4AE9808958B31910511F4AF9808954B
:100290008E31910511F4909808958F31910511F4E4
:1002A000919808958032910511F4929808958132C1
:1002B000910511F4939808958232910511F4949860
:1002C00008958332910511F495980895843291052B
:1002D00011F496980895859709F09FC0979808950E
:1002E000009711F4D89A08958130910511F4D99AA4
:1002F00008958230910511F4DA9A089583309105BA
:1003000011F4DB9A08958430910511F4DC9A089574
:100310008530910511F4DD9A08958630910511F428
:10032000DE9A08958730910511F4DF9A08958A3096
:10033000910511F4C09A08958B30910511F4C19A7A
:1003400008958C30910511F4C29A08958D3091056D
:1003500011F4C39A08958E30910511F4C49A08954A
:100360008F30910511F4C59A08958031910511F4EB
:10037000C69A08958131910511F4C79A0895843180
:10038000910511F4A89A08958531910511F4A99A5F
:1003900008958631910511F4AA9A0895873191053F
:1003A00011F4AB9A08958831910511F4AC9A08952F
:1003B0008931910511F4AD9A08958A31910511F4AE
:1003C000AE9A08958B31910511F4AF9A08958E314C
:1003D000910511F4909A08958F31910511F4919A35
:1003E00008958032910511F4929A08958132910511
:1003F00011F4939A08958232910511F4949A089514
:100400008332910511F4959A08958432910511F47F
:10041000969A0895859709F4979A0895CF93C82FCF
:1004200080FF07C061E070E083E290E00E94CE00B0
:1004300006C060E070E083E290E00E94CE00C1FF61
:1004400007C061E070E082E290E00E94CE0006C04A
:1004500060E070E082E290E00E94CE00C2FF07C040
:1004600061E070E081E290E00E94CE0006C060E0B2
:1004700070E081E290E00E94CE00C3FF07C061E01F
:1004800070E080E290E00E94CE0006C060E070E084
:1004900080E290E00E94CE00CF910895CF93C82FC4
:1004A00060E070E085E290E00E94CE008C2F0E9418
:1004B0000E0261E070E084E290E00E94CE0089EFDD
:1004C00090E00197F1F700C0000060E070E084E286
:1004D00090E00E94CE0089EF90E00197F1F700C014
:1004E0000000CF91089580E00E944E0281E00E94BA
:1004F0004E020895CF93C62F813059F480E8860FBD
:1005000082958F700E944E028C2F8F700E944E0237
:100510000CC0823051F480EC860F82958F700E945F
:100520004E028C2F8F700E944E02CF91089580E072
:100530000E940E0287E893E10197F1F700C00000E6
:1005400083E00E944E0281EE94E00197F1F700C033
:10055000000083E00E944E028DEB9AE00197F1F7D4
:1005600000C0000083E00E944E0282E00E944E0222
:1005700082E00E944E0288E00E944E0280E00E94CB
:100580004E028CE00E944E0280E00E944E0286E005
:100590000E944E020E9473020895CF93C82F61E01B
:1005A00070E085E290E00E94CE008C2F82958F70E3
:1005B0000E940E0261E070E084E290E00E94CE00B2
:1005C00089EF90E00197F1F700C0000060E070E073
:1005D00084E290E00E94CE0089EF90E00197F1F76D
:1005E00000C000008C2F8F700E940E0261E070E04E
:1005F00084E290E00E94CE0089EF90E00197F1F74D
:1006000000C0000060E070E084E290E00E94CE0054
:1006100089EF90E00197F1F700C00000CF910895B5
:10062000CF93DF93EC018881882331F021960E94DB
:10063000CD0289918111FBCFDF91CF910895EF9287
:10064000FF920F931F93CF93DF937B01142F880F9B
:100650000E94B304811112C0112391F0E7011150DF
:10066000012F10E00F5F1F4F0E0D1F1D89910E947B
:10067000D704C017D107D1F7C0E003C0C1E001C063
:10068000C0E00E94D1048C2FDF91CF911F910F9178
:10069000FF90EF9008950F931F93CF93DF9300D0B7
:1006A00000D01F92CDB7DEB7082F683071F48111EA
:1006B00002C080E001C088E08093600041E060E615
:1006C00070E087E20E941F0326C080916000162F11
:1006D000182B1983802F807F8460812B8A838B7FE6
:1006E0008B8320E1029FC0011124812B84608C83C5
:1006F0008B7F8D8345E0BE016F5F7F4F87E20E9455
:100700001F0310FD08C0033030F4E3EFF1E0319730
:10071000F1F700C000000F900F900F900F900F9016
:10072000DF91CF911F910F910895CF93DF93D82F31
:10073000C62FE62FF0E0EF59FF4F982F9068808189
:1007400060E0892B0E944B03D093DD00C093DE0054
:10075000DF91CF91089560E081E00E944B031092F9
:10076000DE001092DD000895CF93C82F9091DD0038
:100770008091DC00981718F4CA3059F414C06091C5
:10078000DE006F5F6093DE0080E00E949503CA3058
:1007900091F08091DD008F5F8093DD0061E08C2F10
:1007A0000E944B0308C06091DE006F5F6093DE0023
:1007B00080E00E949503CF910895CF93DF93EC01E1
:1007C0008881882331F021960E94B4038991811198
:1007D000FBCFDF91CF9108950F931F93CF93DF93BA
:1007E00000D000D000D0CDB7DEB7082F80E38983DA
:1007F00094E39A838B8380E28C8394E29D838E833F
:1008000080E18093DC00E1E6F0E08081805F82831C
:100810008181805F8383BD9AC59A0E94AF048BE477
:100820009DE10197F1F700C0000043E0BE016F5F5A
:100830007F4F87E20E941F03182F81EE94E00197FB
:10084000F1F700C0000043E0BE016F5F7F4F87E219
:100850000E941F03182B43E0BE016F5F7F4F87E2AA
:100860000E941F03182B43E0BE016C5F7F4F87E29D
:100870000E941F03182B60E088E20E944B03812B2B
:1008800009F0C59860E08CE00E944B0360E086E0D0
:100890000E944B0360E081E00E944B0360E0802FE8
:1008A0000E944B0326960FB6F894DEBF0FBECDBF55
:1008B000DF91CF911F910F91089568E00E944B0343
:1008C00008950E944A0081B38C6F81BB0E949702F9
:1008D00060E080E00E947A0286EA90E00E941003C5
:1008E00082E00E94EC0380E00E945D042FE986E82C
:1008F00091E0215080409040E1F700C0000081E08D
:100900000E945D042FE986E891E0215080409040EC
:10091000E1F700C000000E94AB0360E080E00E94AD
:10092000950382EB90E00E94DD0380E00E94A50425
:100930000E946B000E9472008823E1F30E94B600BF
:100940000E94C2000E946B00F5CF811103C00E947B
:10095000580008958CEB90E00E944900089511B86A
:100960008CE080B9089594EA96BF06B607FEFDCFE5
:1009700091B1987F983011F0903179F483B984E87F
:1009800086BF06B607FEFDCF91B1987F983139F04A
:1009900081E0903429F480E0089581E0089580E0BA
:1009A000089584E986BF06B604FCFDCF089583B997
:1009B00084E886BF06B607FEFDCF91B1987F81E03F
:0C09C000983209F480E00895F894FFCF0D
:1009CC000880C0000057656C636F6D6520746F20E4
:1009DC0078797A00507265737320616E79206B653B
:1009EC00790050726F636573734B65793A20556E5D
:1009FC00646566696E65642043757272656E7420F9
:100A0C0053746174650065746169206A696E6973F9
:100A1C006800686F2072652076616900476F746F9B
:100A2C0053746174653A206E6577537461746520F4
:0C0A3C006E6F7420646566696E6564006E
:00000001FF
