S011000070726F6A636F6465732E737265634A
S11300000C942A000C9447000C9447000C9447006D
S11300100C9447000C9447000C9447000C94470040
S11300200C9447000C9447000C9447000C94470030
S11300300C9447000C9447000C9447000C94470020
S11300400C9447000C9447000C9447000C94470010
S11300500C94470011241FBECFE5D8E0DEBFCDBF0E
S113006011E0A0E6B0E0E4EEF3E102C005900D92E9
S1130070A63AB107D9F721E0A6EAB1E001C01D9282
S1130080AF3BB207E1F70E9417060C94F0090C94F9
S113009000000E94C50008950F931F93CF93DF9330
S11300A0CDB7DEB72A970FB6F894DEBF0FBECDBF2B
S11300B0162F072F0E94C5000F931F9385E690E02B
S11300C09F938F938E010F5F1F4F1F930F930E9477
S11300D00607C8010E94C5008CE690E00E94C50096
S11300E00F900F900F900F900F900F902A960FB6CD
S11300F0F894DEBF0FBECDBFDF91CF911F910F915A
S113010008950F931F93CF93DF93CDB7DEB72A974C
S11301100FB6F894DEBF0FBECDBF8B010E94C500A1
S1130120FE01319620E030E0C801022E02C0959510
S113013087950A94E2F78170805D81932F5F3F4F2A
S11301402830310589F71986CE0101960E94C50031
S11301508CE690E00E94C5002A960FB6F894DEBFA4
S11301600FBECDBFDF91CF911F910F91089582E013
S11301708BB988E18AB986E880BD8CE089B910BC66
S113018008958CB95D9BFECF0895CF93DF93EC0166
S11301908881882331F021960E94C10089918111C0
S11301A0FBCFDF91CF9108958AB383708ABB8FEF21
S11301B087BB88BB08958091A901811107C08091F4
S11301C0A801811106C087E790E008958FE690E0CA
S11301D0089583E790E0089589B382958F70089518
S11301E00F931F93CF93C9B3C295CF700C2F10E018
S11301F0B8018BE790E00E948100C0FD0CC081E053
S113020090E09801082E02C0359527950A94E2F7EC
S113021020FF04C00CC080E090E009C00196843047
S1130220910579F784E890E00E9449008FEFCF911F
S11302301F910F9108950F931F93CF93DF93C7E0FE
S1130240D0E001E010E028B3C8010C2E02C0880FF2
S1130250991F0A94E2F7822788BB66B370E082E9AB
S113026090E00E94810089B382958F7011F48C2FE5
S113027007C0219740F788E990E00E9449008FEF7A
S1130280DF91CF911F910F910895E091A601F09114
S1130290A701E655FE4F80838091A6019091A701A6
S11302A040974CF48091A6019091A70101969093F8
S11302B0A7018093A601E091A601F091A701E6555C
S11302C0FE4F10820895CF93C82F8E3124F086EA12
S11302D090E00E944900CD31B9F48091A60190913B
S11302E0A701892B49F08091A6019091A70101975C
S11302F09093A7018093A601E091A601F091A70134
S1130300E655FE4F108257C0CC3121F480E20E94A2
S1130310450151C0CB3139F49091A90181E089277D
S11303208093A90148C08091A9018823E9F09C2FFA
S11303309770933008F03FC0C595C595C595C330F7
S113034038F48C2F880FC80F81E3890F8C0F09C0F4
S1130350992321F0913021F083E203C08AE201C0A5
S113036080E30E94450127C0CA3139F49091A80165
S113037081E089278093A8011EC09C2F95959595AF
S11303809595C770933068F48091A801811102C0DB
S113039081E601C081E4990F990F990FC90F8C0F61
S11303A008C08091A801811102C089E701C089E5D4
S11303B08C0F0E944501CF910895CF93DF930E9443
S11303C0F000C82F0E941B01D82F6C2F0C2E000C9C
S11303D0770B8BEB90E00E944C006D2F0D2E000CE0
S11303E0770B8FEB90E00E944C008C2F880F880FC6
S11303F0880F8D0FDF91CF9108959091BE019923BD
S113040019F0913021F006C00E949C0608950E94C4
S11304106506089583EC90E00E94490008958823BE
S113042019F0813039F024C081B38C6F81BB0E94F4
S11304304D04089582E00E94A20580E00E94130604
S11304402FE986E891E0215080409040E1F700C018
S1130450000081E00E9413062FE986E891E0215014
S113046080409040E1F700C000000E9461050895BB
S113047087EE90E00E9449000895882319F08130A6
S113048021F006C00E94290408950E946105089580
S113049086E091E00E9449000895882319F0813094
S11304A029F008C0CB010E94C6040895CB010E9424
S11304B09305089586E091E00E9449000895962FDF
S11304C0882319F0813031F009C0642F892F0E94EC
S11304D030040895842F0E944B0508958DE291E025
S11304E00E9449000895CF93DF9300D0CDB7DEB7C3
S11304F069831A82BE016F5F7F4F0E944D020F9085
S11305000F90DF91CF910895672B09F09FC000975A
S113051011F4D89808958130910511F4D99808956B
S11305208230910511F4DA9808958330910511F41D
S1130530DB9808958430910511F4DC980895853092
S1130540910511F4DD9808958630910511F4DE9833
S113055008958730910511F4DF9808958A30910544
S113056011F4C09808958B30910511F4C198089541
S11305708C30910511F4C29808958D30910511F4D1
S1130580C39808958E30910511F4C49808958F305E
S1130590910511F4C59808958031910511F4C69818
S11305A008958131910511F4C79808958431910516
S11305B011F4A89808958531910511F4A998089526
S11305C08631910511F4AA9808958731910511F4A3
S11305D0AB9808958831910511F4AC980895893148
S11305E0910511F4AD9808958A31910511F4AE98EE
S11305F008958B31910511F4AF9808958E319105CA
S113060011F4909808958F31910511F491980895FB
S11306108032910511F4929808958132910511F474
S1130620939808958232910511F494980895833231
S1130630910511F4959808958432910511F49698D2
S11306400895859709F09FC097980895009711F42D
S1130650D89A08958130910511F4D99A0895823079
S1130660910511F4DA9A08958330910511F4DB9A17
S113067008958430910511F4DC9A0895853091052C
S113068011F4DD9A08958630910511F4DE9A0895E7
S11306908730910511F4DF9A08958A30910511F499
S11306A0C09A08958B30910511F4C19A08958C3045
S11306B0910511F4C29A08958D30910511F4C39AED
S11306C008958E30910511F4C49A08958F309105E0
S11306D011F4C59A08958031910511F4C69A0895CC
S11306E08131910511F4C79A08958431910511F46B
S11306F0A89A08958531910511F4A99A089586312F
S1130700910511F4AA9A08958731910511F4AB9AD1
S113071008958831910511F4AC9A089589319105B1
S113072011F4AD9A08958A31910511F4AE9A0895A1
S11307308B31910511F4AF9A08958E31910511F41E
S1130740909A08958F31910511F4919A0895803209
S1130750910511F4929A08958132910511F4939AB6
S113076008958232910511F4949A08958332910583
S113077011F4959A08958432910511F4969A089586
S1130780859709F4979A0895CF93C82F80FF07C0DF
S113079061E070E083E290E00E94840206C060E0C1
S11307A070E083E290E00E948402C1FF07C061E030
S11307B070E082E290E00E94840206C060E070E093
S11307C082E290E00E948402C2FF07C061E070E010
S11307D081E290E00E94840206C060E070E081E261
S11307E090E00E948402C3FF07C061E070E080E2F1
S11307F090E00E94840206C060E070E080E290E035
S11308000E948402CF910895CF93C82F60E070E0D6
S113081085E290E00E9484028C2F0E94C40361E070
S113082070E084E290E00E94840289EF90E00197F6
S1130830F1F700C0000060E070E084E290E00E9404
S1130840840289EF90E00197F1F700C00000CF9196
S1130850089580E00E94040481E00E940404089545
S1130860CF93C62F81110BC080E8860F82958F70BD
S11308700E9404048C2F8F700E9404040CC08130E9
S113088051F480EC860F82958F700E9404048C2FA3
S11308908F700E940404CF91089580E00E94C403E5
S11308A087E893E10197F1F700C0000083E00E941C
S11308B0040481EE94E00197F1F700C0000083E0A6
S11308C00E9404048DEB9AE00197F1F700C0000048
S11308D083E00E94040482E00E94040482E00E94F7
S11308E0040488E00E94040480E00E9404048CE074
S11308F00E94040480E00E94040486E00E94040430
S11309000E9429040895CF93C82F61E070E085E226
S113091090E00E9484028C2F82958F700E94C40301
S113092061E070E084E290E00E94840289EF90E04C
S11309300197F1F700C0000060E070E084E290E00D
S11309400E94840289EF90E00197F1F700C0000053
S11309508C2F8F700E94C40361E070E084E290E009
S11309600E94840289EF90E00197F1F700C0000033
S113097060E070E084E290E00E94840289EF90E0FD
S11309800197F1F700C00000CF910895CF93DF9352
S1130990EC018881882331F021960E948304899197
S11309A08111FBCFDF91CF910895EF92FF920F93C6
S11309B01F93CF93DF937B01142F880F0E94D506DA
S11309C0811112C0112391F0E7011150012F10E0A1
S11309D00F5F1F4F0E0D1F1D89910E94F906C0174E
S11309E0D107D1F7C0E003C0C1E001C0C0E00E945C
S11309F0F3068C2FDF91CF911F910F91FF90EF9011
S1130A0008950F931F93CF93DF9300D000D01F92CC
S1130A10CDB7DEB7082F683071F4811102C080E0D1
S1130A2001C088E08093600041E060E670E087E206
S1130A300E94D50426C080916000162F182B1983BC
S1130A40802F807F8460812B8A838B7F8B8320E13E
S1130A50029FC0011124812B84608C838B7F8D8342
S1130A6045E0BE016F5F7F4F87E20E94D50410FD11
S1130A7008C0033030F4E3EFF1E03197F1F700C040
S1130A8000000F900F900F900F900F90DF91CF9177
S1130A901F910F910895CF93DF93D82FC62FE62F80
S1130AA0F0E0EF59FF4F982F9068808160E0892B28
S1130AB00E940105D093BC01C093BD01DF91CF9189
S1130AC0089560E081E00E9401051092BD0110923A
S1130AD0BC010895CF93C82F9091BC018091BB01B4
S1130AE0981718F4CA3059F414C06091BD016F5FAF
S1130AF06093BD0180E00E944B05CA3091F0809163
S1130B00BC018F5F8093BC0161E08C2F0E940105C2
S1130B1008C06091BD016F5F6093BD0180E00E94D9
S1130B204B05CF910895CF93DF93EC0188818823FF
S1130B3031F021960E946A0589918111FBCFDF91E2
S1130B40CF9108950F931F93CF93DF9300D000D0DC
S1130B5000D0CDB7DEB7082F80E3898394E39A836E
S1130B608B8380E28C8394E29D838E8380E18093E7
S1130B70BB01E1E6F0E08081805F82838181805F58
S1130B808383BD9AC59A0E94D1068BE49DE10197A7
S1130B90F1F700C0000043E0BE016F5F7F4F87E2C2
S1130BA00E94D504182F81EE94E00197F1F700C05C
S1130BB0000043E0BE016F5F7F4F87E20E94D504CF
S1130BC0182B43E0BE016F5F7F4F87E20E94D5047C
S1130BD0182B43E0BE016C5F7F4F87E20E94D5046F
S1130BE0182B60E088E20E940105812B09F0C5986A
S1130BF060E08CE00E94010560E086E00E9401054F
S1130C0060E081E00E94010560E0802F0E94010500
S1130C1026960FB6F894DEBF0FBECDBFDF91CF91FD
S1130C201F910F91089568E00E94010508950E94A4
S1130C30B70081E591E00E94C50080E00E940F02A8
S1130C4081E00E940F0280E00E94BC060E94D40052
S1130C500E94EC008823E1F30E94DD01EFE4F3EC51
S1130C603197F1F700C000000E94FD010E94D400FA
S1130C70EFCFCF93DF930E94DB00EC01FC010190E6
S1130C800020E9F7AC014E1B5F0B4F5E5F4F60E045
S1130C9070E080E00E945F02BE0180E00E944D028D
S1130CA0DF91CF91089580E00E943D0240E050E042
S1130CB060E070E080E00E945F026DE571E080E03A
S1130CC00E944D020E94390608950F931F93CF93FB
S1130CD0DF9392EE980F923050F10E94630140E04E
S1130CE050E061E070E080E00E945F02EAEAF1E037
S1130CF001900020E9F731978F010A5A11406AEAFE
S1130D0071E080E00E944D02CFE0D0E0C01BD10B27
S1130D100031110531F060E280E00E9473022197F6
S1130D20D0F78AEA91E00E94C5000E943906DF915B
S1130D30CF911F910F91089581E00E94BC06089500
S1130D4080E00E943D0240E050E060E070E080E01E
S1130D500E945F0269E671E080E00E944D0240E07B
S1130D6050E061E070E080E00E945F0268E771E0BB
S1130D7080E00E944D020895CF93C82F882319F074
S1130D80813021F006C00E94A00607C00E945306CD
S1130D9004C085E891E00E944900C093BE01CF9150
S1130DA0089511B88CE080B9089594EA96BF06B608
S1130DB007FEFDCF91B1987F983011F0903179F40E
S1130DC083B984E886BF06B607FEFDCF91B1987F4C
S1130DD0983139F081E0903429F480E0089581E07D
S1130DE0089580E0089584E986BF06B604FCFDCF2B
S1130DF0089583B984E886BF06B607FEFDCF91B196
S1130E00987F81E0983209F480E00895AEE0B0E084
S1130E10ECE0F7E00C94C7090D891E8986E08C8309
S1130E201A8309838FEF9FE79E838D83AE01475E0C
S1130E305F4F6F89788DCE0101960E942807EF815C
S1130E40F885E00FF11F10822E96E4E00C94E3097C
S1130E50ABE0B0E0EEE2F7E00C94B9096C017B0181
S1130E608A01FC0117821682838181FFCCC1CE01E5
S1130E7001963C01F6019381F70193FD859193FF5F
S1130E8081917F01882309F4BAC1853239F493FD35
S1130E90859193FF81917F01853229F4B60190E019
S1130EA00E941F09E7CF912C212C312CFFE1F3156F
S1130EB0D8F08B3279F038F4803279F08332A1F4AF
S1130EC0232D20611DC08D3261F0803369F4232D00
S1130ED0216016C0832D8260382EE32DE4603E2EFF
S1130EE02AC0F32DF8601DC037FC2DC020ED280F5B
S1130EF02A3040F08E32B9F436FC81C1232D2064AF
S1130F00322E19C036FE06C08AE0989E200D1124A8
S1130F10922E11C0EAE02E9E200D1124222EF32DD4
S1130F20F0623F2E08C08C3621F4832D8068382E61
S1130F3002C0883641F4F70193FD859193FF8191B6
S1130F407F018111B3CF982F9F7D9554933028F45E
S1130F500C5F1F4F9FE399830DC0833631F08337B5
S1130F6071F0833509F059C021C0F801808189836B
S1130F700E5F1F4F88248394912C530113C02801C2
S1130F80F2E04F0E511CF801A080B18036FE03C080
S1130F90692D70E002C06FEF7FEFC5010E94140954
S1130FA04C018201F32DFF773F2E16C0280122E069
S1130FB0420E511CF801A080B18036FE03C0692D99
S1130FC070E002C06FEF7FEFC5010E9409094C0178
S1130FD0F32DF0683F2E820133FC1BC0822D90E07C
S1130FE088169906B0F4B60180E290E00E941F09C9
S1130FF02A94F4CFF50137FC859137FE81915F0186
S1131000B60190E00E941F0921102A9421E0821A5F
S113101091088114910471F7E8C0843611F089367F
S113102041F5F80137FE07C06081718182819381A7
S11310300C5F1F4F08C060817181072E000C880B64
S1131040990B0E5F1F4FF32DFF763F2E97FF09C0BC
S113105090958095709561957F4F8F4F9F4FF06865
S11310603F2E2AE030E0A3010E945B09882E8618F7
S113107045C0853731F4232D2F7EB22E2AE030E08F
S113108025C0932D997FB92E8F36C1F018F4883579
S113109079F0B5C0803719F0883721F0B0C0E92F56
S11310A0E061BE2EB4FE0DC0FB2DF460BF2E09C05E
S11310B034FE0AC0292F2660B22E06C028E030E094
S11310C005C020E130E002C020E132E0F801B7FEC3
S11310D007C060817181828193810C5F1F4F06C0BC
S11310E06081718180E090E00E5F1F4FA3010E9438
S11310F05B09882E8618FB2DFF773F2E36FE0DC028
S1131100232D2E7FA22E891458F434FE0BC032FCFA
S113111009C0832D8E7EA82E05C0B82CA32C03C035
S1131120B82C01C0B92CA4FE0FC0FE01E80DF11DBE
S11311308081803321F49A2D997EA92E09C0A2FEC4
S113114006C0B394B39404C08A2D867809F0B3948E
S1131150A3FC11C0A0FE06C0B21488F4280C922C83
S11311609B180EC0B21460F4B60180E290E00E94B5
S11311701F09B394F7CFB21418F42B1802C0982C9B
S1131180212CA4FE10C0B60180E390E00E941F0948
S1131190A2FE17C0A1FC03C088E790E002C088E566
S11311A090E0B6010CC08A2D867859F0A1FE02C0E9
S11311B08BE201C080E2A7FC8DE2B60190E00E94C0
S11311C01F09891438F4B60180E390E00E941F09D6
S11311D09A94F7CF8A94F301E80DF11D8081B6014A
S11311E090E00E941F098110F5CF222009F442CE1D
S11311F0B60180E290E00E941F092A94F6CFF6011E
S11312008681978102C08FEF9FEF2B96E2E10C94C9
S1131210D509FC010590615070400110D8F7809504
S113122090958E0F9F1F0895FC01615070400190AE
S11312300110D8F7809590958E0F9F1F08950F93F6
S11312401F93CF93DF93FB01238121FD03C08FEF15
S11312509FEF2CC022FF16C046815781248135811F
S11312604217530744F4A081B1819D012F5F3F4F82
S1131270318320838C93268137812F5F3F4F3783BF
S1131280268314C08B01EC01FB010084F185E02D61
S11312900995892BE1F6D80116968D919C911797A3
S11312A0019617969C938E931697CE01DF91CF915A
S11312B01F910F910895FA01AA27283051F1203186
S11312C081F1E8946F936E7F6E5F7F4F8F4F9F4FD6
S11312D0AF4FB1E03ED0B4E03CD0670F781F891F18
S11312E09A1FA11D680F791F8A1F911DA11D6A0FE6
S11312F0711D811D911DA11D20D009F468943F9199
S11313002AE0269F11243019305D3193DEF6CF0197
S11313100895462F4770405D4193B3E00FD0C9F75D
S1131320F6CF462F4F70405D4A3318F0495D31FDCA
S11313304052419302D0A9F7EACFB4E0A69597951D
S1131340879577956795BA95C9F7009761057105F3
S113135008959B01AC010A2E06945795479537953D
S11313602795BA95C9F7620F731F841F951FA01D97
S113137008952F923F924F925F926F927F928F9235
S11313809F92AF92BF92CF92DF92EF92FF920F9310
S11313901F93CF93DF93CDB7DEB7CA1BDB0B0FB61A
S11313A0F894DEBF0FBECDBF09942A8839884888D7
S11313B05F846E847D848C849B84AA84B984C8846D
S11313C0DF80EE80FD800C811B81AA81B981CE0F64
S11313D0D11D0FB6F894DEBF0FBECDBFED01089549
S10713E0F894FFCFAB
S11313E40880C00000203D2025640A000D0A003155
S11313F4323300414243006162630050494E5F72DC
S11314046F773A004B6579706164476574526F77FE
S11314143A0050494E423A004B657970616447651D
S113142474436F6C3A004B65795061645F41646442
S11314344B65793A2033317C333000726F77006323
S11314446F6C0050726F636573734B65793A205502
S11314546E646566696E65642043757272656E7444
S1131464205374617465004C63645F496E69743A13
S1131474204C636454797065204E6F747375707076
S11314846F72746564004C63645F436C656172538A
S1131494637265656E3A204C636454797065204EBA
S11314A46F7420737570706F72746564004C636438
S11314B45F506F736974696F6E3A204C6364547936
S11314C47065204E6F7420737570706F72746564E8
S11314D40068656C6C6F20746865726500456E7491
S11314E46572204E616D653A0057656C636F6D6576
S11314F420746F2078797A00312E4E6577205365F5
S11315047269616C00476F746F53746174653A2037
S11315146E65775374617465206E6F7420646566B8
S1091524696E656400001D
S9030000FC
