:100000000C942A000C9447000C9447000C94470071
:100010000C9447000C9447000C9447000C94470044
:100020000C9447000C9447000C9447000C94470034
:100030000C9447000C9447000C9447000C94470024
:100040000C9447000C9447000C9447000C94470014
:100050000C94470011241FBECFE5D8E0DEBFCDBF12
:1000600011E0A0E6B0E0E6E5F3E102C005900D92F4
:10007000A439B107D9F721E0A4E9B1E001C01D928C
:10008000AD3AB207E1F70E94D0050C94A9090C948F
:1000900000000E948B0008950F931F93CF93DF936E
:1000A000CDB7DEB72A970FB6F894DEBF0FBECDBF2F
:1000B000162F072F0E948B000F931F9385E690E069
:1000C0009F938F938E010F5F1F4F1F930F930E947B
:1000D000BF06C8010E948B000F900F900F900F90E9
:1000E0000F900F902A960FB6F894DEBF0FBECDBFCB
:1000F000DF91CF911F910F91089582E08BB988E134
:100100008AB986E880BD8CE089B910BC08958CB9A5
:100110005D9BFECF0895CF93DF93EC018881882308
:1001200031F021960E94870089918111FBCFDF91E8
:10013000CF9108958AB383708ABB8FEF87BB88BB4A
:10014000089580919701811107C0809196018111D6
:1001500006C084E790E008958CE690E0089580E77B
:1001600090E0089589B382958F70089589B3829540
:100170008F70482F50E080FD0CC081E090E09A0124
:10018000082E02C0359527950A94E2F720FF04C097
:10019000089580E090E0089501968430910579F704
:1001A00088E790E00E9449008FEF089598B381E0BE
:1001B000892788BB89B382958F7099F081E090E0A0
:1001C00061E070E048B39B01082E02C0220F331F8C
:1001D0000A94E2F7242728BB29B322952F7021F433
:1001E000089580E090E0089501968830910551F7D8
:1001F00086E890E00E9449008FEF0895E091940115
:10020000F0919501E856FE4F808380919401909182
:10021000950140974CF4809194019091950101963D
:100220009093950180939401E0919401F091950150
:10023000E856FE4F10820895CF93C82F8E3124F0D8
:1002400084E990E00E944900CD31B9F48091940195
:1002500090919501892B49F080919401909195019D
:1002600001979093950180939401E0919401F0910E
:100270009501E856FE4F108257C0CC3121F480E240
:100280000E94FE0051C0CB3139F49091970181E07A
:1002900089278093970148C0809197018823E9F0CE
:1002A0009C2F9770933008F03FC0C595C595C595B4
:1002B000C33038F48C2F880FC80F81E3890F8C0F5F
:1002C00009C0992321F0913021F083E203C08AE232
:1002D00001C080E30E94FE0027C0CA3139F490912A
:1002E000960181E08927809396011EC09C2F9595E9
:1002F00095959595C770933068F48091960181111A
:1003000002C081E601C081E4990F990F990FC90FCE
:100310008C0F08C080919601811102C089E701C04D
:1003200089E58C0F0E94FE00CF910895CF93DF9353
:100330000E94B600C82F0E94D600D82F6C2F0C2E1A
:10034000000C770B89EA90E00E944C006D2F0D2E77
:10035000000C770B8DEA90E00E944C008C2F880FE8
:10036000880F880F8D0FDF91CF9108959091AC0188
:10037000992319F0913021F006C00E945506089586
:100380000E941E06089581EB90E00E9449000895A6
:10039000882319F0813039F024C081B38C6F81BB80
:1003A0000E940604089582E00E945B0580E00E949E
:1003B000CC052FE986E891E0215080409040E1F79C
:1003C00000C0000081E00E94CC052FE986E891E0A2
:1003D000215080409040E1F700C000000E941A05C3
:1003E000089585ED90E00E9449000895882319F052
:1003F000813021F006C00E94E20308950E941A0590
:10040000089584EF90E00E9449000895882319F030
:10041000813029F008C0CB010E947F040895CB01F0
:100420000E944C05089584EF90E00E9449000895D1
:10043000962F882319F0813031F009C0642F892F5D
:100440000E94E9030895842F0E94040508958BE11A
:1004500091E00E9449000895CF93DF9300D0CDB77B
:10046000DEB769831A82BE016F5F7F4F0E9406026A
:100470000F900F90DF91CF910895672B09F09FC0E7
:10048000009711F4D89808958130910511F4D99806
:1004900008958230910511F4DA980895833091051A
:1004A00011F4DB9808958430910511F4DC980895D7
:1004B0008530910511F4DD9808958630910511F489
:1004C000DE9808958730910511F4DF9808958A30F9
:1004D000910511F4C09808958B30910511F4C198DD
:1004E00008958C30910511F4C29808958D309105CE
:1004F00011F4C39808958E30910511F4C4980895AD
:100500008F30910511F4C59808958031910511F44B
:10051000C69808958131910511F4C79808958431E2
:10052000910511F4A89808958531910511F4A998C1
:1005300008958631910511F4AA980895873191059F
:1005400011F4AB9808958831910511F4AC98089591
:100550008931910511F4AD9808958A31910511F40E
:10056000AE9808958B31910511F4AF9808958E31AE
:10057000910511F4909808958F31910511F4919897
:1005800008958032910511F4929808958132910571
:1005900011F4939808958232910511F49498089576
:1005A0008332910511F4959808958432910511F4E0
:1005B00096980895859709F09FC097980895009799
:1005C00011F4D89A08958130910511F4D99A0895BB
:1005D0008230910511F4DA9A08958330910511F46F
:1005E000DB9A08958430910511F4DC9A08958530E2
:1005F000910511F4DD9A08958630910511F4DE9A83
:1006000008958730910511F4DF9A08958A30910595
:1006100011F4C09A08958B30910511F4C19A089590
:100620008C30910511F4C29A08958D30910511F422
:10063000C39A08958E30910511F4C49A08958F30AD
:10064000910511F4C59A08958031910511F4C69A67
:1006500008958131910511F4C79A08958431910567
:1006600011F4A89A08958531910511F4A99A089575
:100670008631910511F4AA9A08958731910511F4F4
:10068000AB9A08958831910511F4AC9A0895893197
:10069000910511F4AD9A08958A31910511F4AE9A3D
:1006A00008958B31910511F4AF9A08958E3191051B
:1006B00011F4909A08958F31910511F4919A08954B
:1006C0008032910511F4929A08958132910511F4C6
:1006D000939A08958232910511F4949A0895833281
:1006E000910511F4959A08958432910511F4969A22
:1006F0000895859709F4979A0895CF93C82F80FF9E
:1007000007C061E070E083E290E00E943D0206C015
:1007100060E070E083E290E00E943D02C1FF07C00C
:1007200061E070E082E290E00E943D0206C060E07D
:1007300070E082E290E00E943D02C2FF07C061E0EB
:1007400070E081E290E00E943D0206C060E070E04F
:1007500081E290E00E943D02C3FF07C061E070E0CB
:1007600080E290E00E943D0206C060E070E080E21E
:1007700090E00E943D02CF910895CF93C82F60E092
:1007800070E085E290E00E943D028C2F0E947D0384
:1007900061E070E084E290E00E943D0289EF90E029
:1007A0000197F1F700C0000060E070E084E290E0A3
:1007B0000E943D0289EF90E00197F1F700C0000030
:1007C000CF91089580E00E94BD0381E00E94BD03A7
:1007D0000895CF93C62F81110BC080E8860F8295B4
:1007E0008F700E94BD038C2F8F700E94BD030CC0C0
:1007F000813051F480EC860F82958F700E94BD038A
:100800008C2F8F700E94BD03CF91089580E00E94CD
:100810007D0387E893E10197F1F700C0000083E0D2
:100820000E94BD0381EE94E00197F1F700C0000043
:1008300083E00E94BD038DEB9AE00197F1F700C0C1
:10084000000083E00E94BD0382E00E94BD0382E0BD
:100850000E94BD0388E00E94BD0380E00E94BD03AA
:100860008CE00E94BD0380E00E94BD0386E00E94F0
:10087000BD030E94E2030895CF93C82F61E070E0AA
:1008800085E290E00E943D028C2F82958F700E943D
:100890007D0361E070E084E290E00E943D0289EF18
:1008A00090E00197F1F700C0000060E070E084E2A2
:1008B00090E00E943D0289EF90E00197F1F700C0BF
:1008C00000008C2F8F700E947D0361E070E084E255
:1008D00090E00E943D0289EF90E00197F1F700C09F
:1008E000000060E070E084E290E00E943D0289EF49
:1008F00090E00197F1F700C00000CF910895CF93E9
:10090000DF93EC018881882331F021960E943C041A
:1009100089918111FBCFDF91CF910895EF92FF92E2
:100920000F931F93CF93DF937B01142F880F0E94A7
:100930008E06811112C0112391F0E7011150012F91
:1009400010E00F5F1F4F0E0D1F1D89910E94B20610
:10095000C017D107D1F7C0E003C0C1E001C0C0E0BB
:100960000E94AC068C2FDF91CF911F910F91FF90C9
:10097000EF9008950F931F93CF93DF9300D000D093
:100980001F92CDB7DEB7082F683071F4811102C015
:1009900080E001C088E08093600041E060E670E0A4
:1009A00087E20E948E0426C080916000162F182BCB
:1009B0001983802F807F8460812B8A838B7F8B8338
:1009C00020E1029FC0011124812B84608C838B7FE6
:1009D0008D8345E0BE016F5F7F4F87E20E948E04EA
:1009E00010FD08C0033030F4E3EFF1E03197F1F788
:1009F00000C000000F900F900F900F900F90DF91AC
:100A0000CF911F910F910895CF93DF93D82FC62FC9
:100A1000E62FF0E0EF59FF4F982F9068808160E05B
:100A2000892B0E94BA04D093AA01C093AB01DF9135
:100A3000CF91089560E081E00E94BA041092AB016A
:100A40001092AA010895CF93C82F9091AA01809186
:100A5000A901981718F4CA3059F414C06091AB0179
:100A60006F5F6093AB0180E00E940405CA3091F093
:100A70008091AA018F5F8093AA0161E08C2F0E9470
:100A8000BA0408C06091AB016F5F6093AB0180E076
:100A90000E940405CF910895CF93DF93EC018881E4
:100AA000882331F021960E94230589918111FBCF83
:100AB000DF91CF9108950F931F93CF93DF9300D0D1
:100AC00000D000D0CDB7DEB7082F80E3898394E350
:100AD0009A838B8380E28C8394E29D838E8380E172
:100AE0008093A901E1E6F0E08081805F82838181CB
:100AF000805F8383BD9AC59A0E948A068BE49DE13C
:100B00000197F1F700C0000043E0BE016F5F7F4F27
:100B100087E20E948E04182F81EE94E00197F1F78E
:100B200000C0000043E0BE016F5F7F4F87E20E947C
:100B30008E04182B43E0BE016F5F7F4F87E20E9457
:100B40008E04182B43E0BE016C5F7F4F87E20E944A
:100B50008E04182B60E088E20E94BA04812B09F011
:100B6000C59860E08CE00E94BA0460E086E00E94D4
:100B7000BA0460E081E00E94BA0460E0802F0E9425
:100B8000BA0426960FB6F894DEBF0FBECDBFDF9134
:100B9000CF911F910F91089568E00E94BA040895C3
:100BA0000E947D008FE391E00E948B0080E00E9414
:100BB000C80181E00E94C80180E00E9475060E9481
:100BC0009A000E94B2008823E1F30E949601EFE4AC
:100BD000F3EC3197F1F700C000000E94B6010E94CB
:100BE0009A00EFCFCF93DF930E94A100EC01FC01AC
:100BF00001900020E9F7AC014E1B5F0B4F5E5F4F89
:100C000060E070E080E00E941802BE0180E00E9477
:100C10000602DF91CF91089580E00E94F60140E046
:100C200050E060E070E080E00E9418026BE471E048
:100C300080E00E9406020E94F20508950F931F9320
:100C4000CF93DF9392EE980F923050F10E941C01E7
:100C500040E050E061E070E080E00E941802E8E9C6
:100C6000F1E001900020E9F731978F010859114018
:100C700068E971E080E00E940602CFE0D0E0C01B8E
:100C8000D10B0031110531F060E280E00E942C02AE
:100C90002197D0F788E991E00E948B000E94F2052D
:100CA000DF91CF911F910F91089581E00E94750609
:100CB000089580E00E94F60140E050E060E070E0BE
:100CC00080E00E94180267E571E080E00E94060261
:100CD00040E050E061E070E080E00E94180266E6CB
:100CE00071E080E00E9406020895CF93C82F882308
:100CF00019F0813021F006C00E94590607C00E94F9
:100D00000C0604C083E791E00E944900C093AC0147
:100D1000CF91089511B88CE080B9089594EA96BFF8
:100D200006B607FEFDCF91B1987F983011F0903153
:100D300079F483B984E886BF06B607FEFDCF91B18A
:100D4000987F983139F081E0903429F480E008955B
:100D500081E0089580E0089584E986BF06B604FC2A
:100D6000FDCF089583B984E886BF06B607FEFDCFA0
:100D700091B1987F81E0983209F480E00895AEE067
:100D8000B0E0E5ECF6E00C9480090D891E8986E060
:100D90008C831A8309838FEF9FE79E838D83AE0137
:100DA000475E5F4F6F89788DCE0101960E94E10604
:100DB000EF81F885E00FF11F10822E96E4E00C948D
:100DC0009C09ABE0B0E0E7EEF6E00C9472096C0130
:100DD0007B018A01FC0117821682838181FFCCC1CD
:100DE000CE0101963C01F6019381F70193FD8591B7
:100DF00093FF81917F01882309F4BAC1853239F4C8
:100E000093FD859193FF81917F01853229F4B6018D
:100E100090E00E94D808E7CF912C212C312CFFE1E3
:100E2000F315D8F08B3279F038F4803279F08332D0
:100E3000A1F4232D20611DC08D3261F0803369F44F
:100E4000232D216016C0832D8260382EE32DE460AF
:100E50003E2E2AC0F32DF8601DC037FC2DC020EDBA
:100E6000280F2A3040F08E32B9F436FC81C1232D90
:100E70002064322E19C036FE06C08AE0989E200DEE
:100E80001124922E11C0EAE02E9E200D1124222E54
:100E9000F32DF0623F2E08C08C3621F4832D80683C
:100EA000382E02C0883641F4F70193FD859193FFF7
:100EB00081917F018111B3CF982F9F7D95549330FD
:100EC00028F40C5F1F4F9FE399830DC0833631F0E8
:100ED000833771F0833509F059C021C0F801808152
:100EE00089830E5F1F4F88248394912C530113C074
:100EF0002801F2E04F0E511CF801A080B18036FEAF
:100F000003C0692D70E002C06FEF7FEFC5010E9442
:100F1000CD084C018201F32DFF773F2E16C028012A
:100F200022E0420E511CF801A080B18036FE03C0C1
:100F3000692D70E002C06FEF7FEFC5010E94C2080B
:100F40004C01F32DF0683F2E820133FC1BC0822D33
:100F500090E088169906B0F4B60180E290E00E9415
:100F6000D8082A94F4CFF50137FC859137FE81919A
:100F70005F01B60190E00E94D80821102A9421E078
:100F8000821A91088114910471F7E8C0843611F037
:100F9000893641F5F80137FE07C060817181828191
:100FA00093810C5F1F4F08C060817181072E000C78
:100FB000880B990B0E5F1F4FF32DFF763F2E97FF87
:100FC00009C090958095709561957F4F8F4F9F4F89
:100FD000F0683F2E2AE030E0A3010E941409882E19
:100FE000861845C0853731F4232D2F7EB22E2AE096
:100FF00030E025C0932D997FB92E8F36C1F018F4BB
:10100000883579F0B5C0803719F0883721F0B0C045
:10101000E92FE061BE2EB4FE0DC0FB2DF460BF2EA3
:1010200009C034FE0AC0292F2660B22E06C028E06F
:1010300030E005C020E130E002C020E132E0F801FC
:10104000B7FE07C060817181828193810C5F1F4F61
:1010500006C06081718180E090E00E5F1F4FA301A8
:101060000E941409882E8618FB2DFF773F2E36FE2E
:101070000DC0232D2E7FA22E891458F434FE0BC0F0
:1010800032FC09C0832D8E7EA82E05C0B82CA32C5F
:1010900003C0B82C01C0B92CA4FE0FC0FE01E80D9E
:1010A000F11D8081803321F49A2D997EA92E09C0EB
:1010B000A2FE06C0B394B39404C08A2D867809F0CA
:1010C000B394A3FC11C0A0FE06C0B21488F4280C8F
:1010D000922C9B180EC0B21460F4B60180E290E02E
:1010E0000E94D808B394F7CFB21418F42B1802C09A
:1010F000982C212CA4FE10C0B60180E390E00E9441
:10110000D808A2FE17C0A1FC03C088E790E002C087
:1011100088E590E0B6010CC08A2D867859F0A1FED2
:1011200002C08BE201C080E2A7FC8DE2B60190E034
:101130000E94D808891438F4B60180E390E00E9438
:10114000D8089A94F7CF8A94F301E80DF11D8081B5
:10115000B60190E00E94D8088110F5CF222009F452
:1011600042CEB60180E290E00E94D8082A94F6CFE1
:10117000F6018681978102C08FEF9FEF2B96E2E107
:101180000C948E09FC010590615070400110D8F755
:10119000809590958E0F9F1F0895FC0161507040BF
:1011A00001900110D8F7809590958E0F9F1F08959C
:1011B0000F931F93CF93DF93FB01238121FD03C086
:1011C0008FEF9FEF2CC022FF16C0468157812481EC
:1011D00035814217530744F4A081B1819D012F5FEF
:1011E0003F4F318320838C93268137812F5F3F4F80
:1011F0003783268314C08B01EC01FB010084F18549
:10120000E02D0995892BE1F6D80116968D919C91D8
:101210001797019617969C938E931697CE01DF91A0
:10122000CF911F910F910895FA01AA27283051F10B
:10123000203181F1E8946F936E7F6E5F7F4F8F4F07
:101240009F4FAF4FB1E03ED0B4E03CD0670F781F66
:10125000891F9A1FA11D680F791F8A1F911DA11D4B
:101260006A0F711D811D911DA11D20D009F4689484
:101270003F912AE0269F11243019305D3193DEF62C
:10128000CF010895462F4770405D4193B3E00FD0E2
:10129000C9F7F6CF462F4F70405D4A3318F0495DCD
:1012A00031FD4052419302D0A9F7EACFB4E0A695B0
:1012B0009795879577956795BA95C9F700976105D2
:1012C000710508959B01AC010A2E06945795479528
:1012D00037952795BA95C9F7620F731F841F951F1D
:1012E000A01D08952F923F924F925F926F927F922E
:1012F0008F929F92AF92BF92CF92DF92EF92FF9226
:101300000F931F93CF93DF93CDB7DEB7CA1BDB0BD1
:101310000FB6F894DEBF0FBECDBF09942A88398876
:1013200048885F846E847D848C849B84AA84B9847D
:10133000C884DF80EE80FD800C811B81AA81B98189
:10134000CE0FD11D0FB6F894DEBF0FBECDBFED019D
:061350000895F894FFCFA0
:101356000880C00000203D2025640A003132330099
:1013660041424300616263004B6579706164476581
:1013760074526F773A004B657970616447657443C0
:101386006F6C3A004B65795061645F4164644B65EC
:10139600793A2033317C333000726F7700636F6C9B
:1013A6000050726F636573734B65793A20556E64AE
:1013B6006566696E65642043757272656E74205346
:1013C60074617465004C63645F496E69743A204CBD
:1013D600636454797065204E6F74737570706F72A4
:1013E600746564004C63645F436C65617253637239
:1013F60065656E3A204C636454797065204E6F744F
:1014060020737570706F72746564004C63645F500E
:101416006F736974696F6E3A204C636454797065B2
:10142600204E6F7420737570706F727465640068F7
:10143600656C6C6F20746865726500456E746572C4
:10144600204E616D653A0057656C636F6D6520745B
:101456006F2078797A00312E4E6577205365726950
:10146600616C00476F746F53746174653A206E65E2
:10147600775374617465206E6F7420646566696E57
:041486006564000099
:00000001FF
