S011000070726F6A636F6465732E737265634A
S11300000C94B5000C94D2000C94D2000C94D20041
S11300100C94D2000C94D2000C94D2000C94D20014
S11300200C94D2000C94D2000C94D2000C94D20004
S11300300C94D2000C94D2000C94D2000C94D200F4
S11300400C94D2000C94D2000C94D2000C94D200E4
S11300500C94D2003305360539053C053F054205AD
S11300604505E40DE70DEA0DED0DF00DF30DF60D6C
S113007000407A10F35A00A0724E18090010A5D45B
S1130080E80000E87648170000E40B54020000CAB8
S11300909A3B000000E1F5050000809698000000FE
S11300A040420F000000A08601000000102700005D
S11300B00000E803000000006400000000000A00E3
S11300C0000000000100000000002C76D888DC67E6
S11300D04F0823DFC1DFAE59E1B1B796E5E3E4533E
S11300E0C63AE651997696E8E6C28426EB898C9B5B
S11300F062ED407C6FFCEFBC9C9F40F2BAA56FA5FB
S1130100F490055A2AF75C936B6CF9676DC11BFC7C
S1130110E0E40D47FEF520E6B500D0ED902E030097
S1130120943577050080841E080000204E0A0000E4
S113013000C80C333333330F986E12831141EF8DA3
S11301402114893BE65516CFFEE6DB18D1844B38E3
S11301501BF77C1D901DA4BBE424203284725E2214
S11301608100C9F124ECA1E53D2711241FBECFE590
S1130170D8E0DEBFCDBF12E0A0E6B0E0EAE4FEE2E4
S113018002C005900D92A83CB107D9F726E0A8EC6F
S1130190B2E001C01D92AC31B207E1F70E94230A1C
S11301A00C9423170C9400008F929F92AF92BF92ED
S11301B0EF92FF920F931F93CF93DF9316161706B8
S11301C004F57B018C010E5F1F4FC1E0D0E0812C50
S11301D0912C5401F801619171918F01072E000C4B
S11301E0880B990B0E94630F9B01AC01C501B401FC
S11301F00E944D0E4B015C012196EC16FD0654F74E
S113020003C0812C912C5401C501B401DF91CF911D
S11302101F910F91FF90EF90BF90AF909F908F90A0
S113022008958F929F92AF92BF92EF92FF920F9395
S11302301F93CF93DF93161617063CF57B018C01B1
S11302400E5F1F4FC1E0D0E0812C912C5401F801C6
S1130250819191918F018C9FB0018D9F700D9C9F16
S1130260700D1124072E000C880B990B0E94630F4C
S11302709B01AC01C501B4010E944D0E4B015C0110
S11302802196EC16FD061CF703C0812C912C540119
S1130290C501B401DF91CF911F910F91FF90EF90B1
S11302A0BF90AF909F908F9008954F925F926F92FE
S11302B07F928F929F92AF92BF92CF92DF92EF92F2
S11302C0FF92CF93DF93CDB7DEB760970FB6F89464
S11302D0DEBF0FBECDBF3C016A017B0120E030E0F0
S11302E040E85FE3C701B6010E944D0E6D837E8333
S11302F08F83988720E030E040E05FE30E94EF0FB7
S113030069837A838B839C83C701B6010E942B0F78
S11303104B015C01C3010E94D400A70196010E9415
S1130320B90E69877A878B879C87B401C3010E94C1
S113033011014B015C0129813A814B815C81C70128
S1130340B6010E94EF0F2B013C019B01AC016985B2
S11303507A858B859C850E94EF0F9B01AC01C501BA
S1130360B4010E944C0E4B015C01A7019601C70128
S1130370B6010E944D0E20E030E040E85FE30E94A9
S11303804D0E6D877E878F87988B2D813E814F819F
S11303905885C701B6010E94EF0F9B01AC016D8522
S11303A07E858F8598890E94EF0F20E030E040EC35
S11303B050E40E94B90E6B017C01A3019201698192
S11303C07A818B819C810E94EF0F9B01AC01C70154
S11303D0B6010E944C0E9B01AC01C501B4010E9400
S11303E0B90E9B01AC016093CC027093CD02809353
S11303F0CE029093CF0269817A818B819C810E9485
S1130400EF0F9B01AC0169857A858B859C850E94E1
S11304104C0E6093C8027093C9028093CA029093F1
S1130420CB0260960FB6F894DEBF0FBECDBFDF914E
S1130430CF91FF90EF90DF90CF90BF90AF909F90BF
S11304408F907F906F905F904F900895369A369971
S1130450FECF84B195B10895D19881EC87B980E835
S113046086B908954F925F926F927F928F929F9276
S1130470AF92BF92CF92DF92EF92FF920F931F93AE
S1130480CF93DF9300D000D000D0CDB7DEB74DB608
S11304905EB68DB79EB78E5291400FB6F8949EBF4C
S11304A00FBE8DBFEDB7FEB731963F01EDB7FEB776
S11304B012821182ADB6BEB6F3E0AF0EB11C0FE9E5
S11304C010E00F2EFAE08F2E912CF02D0F2EFBE66C
S11304D0CF2EF0E0DF2EF02DCE0101967C010E949C
S11304E02602F501819391935F01C801B4010E9432
S11304F05C107F936F93DF92CF92FF92EF920E94F2
S1130500F71146E050E061E070E080E00E949D0554
S1130510B70180E00E948B05FFEF20E782E0F150F5
S113052020408040E1F700C00000015011090F9005
S11305300F900F900F900F900F900830110579F6DF
S113054040E050E066E173E4C3010E945501F30109
S113055094ED691A9EEF790A80E090E0228133815C
S11305604081518132964217530734F442815381BA
S1130570421753070CF401966E167F0679F74AE08A
S1130580BE016F5F7F4F880F991F880F991F0E94CC
S1130590D2114AE050E061E070E080E00E949D05E5
S11305A0BE016F5F7F4F80E00E948B054DE050E0FD
S11305B061E070E080E00E949D0560E770E080E00B
S11305C00E948B05BE016F5F7F4F88ED92E00E9411
S11305D0CB110FB6F8945EBE0FBE4DBE26960FB675
S11305E0F894DEBF0FBECDBFDF91CF911F910F9165
S11305F0FF90EF90DF90CF90BF90AF909F908F903F
S11306007F906F905F904F900895D298089589B32A
S113061082FB882780F991E0892708950E94890345
S113062008950F931F93CF93DF93CDB7DEB72A9727
S11306300FB6F894DEBF0FBECDBF162F072F0E9452
S113064089030F931F9384E790E09F938F938E0108
S11306500F5F1F4F1F930F930E94F711C8010E9451
S113066089038BE790E00E9489030F900F900F900D
S11306700F900F900F902A960FB6F894DEBF0FBE1E
S1130680CDBFDF91CF911F910F9108950F931F93C9
S1130690CF93DF93CDB7DEB72A970FB6F894DEBFBA
S11306A00FBECDBF8B010E948903FE01319620E06D
S11306B030E0C801022E02C0959587950A94E2F7AE
S11306C08170805D81932F5F3F4F2830310589F71A
S11306D01986CE0101960E9489038BE790E00E945F
S11306E089032A960FB6F894DEBF0FBECDBFDF9103
S11306F0CF911F910F9108951BB888E18AB986E8BC
S113070080BD83E389B910BC08958CB95D9BFECF8D
S11307100895CF93DF93EC018881882331F02196EB
S11307200E94850389918111FBCFDF91CF910895B8
S11307308AB383708ABB8FEF87BB88BB08951092FE
S1130740D3021092D2021092D1021092D0021092CF
S1130750D8020895009759F48EE790E00E940E03A2
S11307601092D1021092D0021092D8020895FC0186
S113077001900020E9F73197E81BF90BE031F1050E
S113078028F5AF011092D1021092D0021E161F0656
S1130790B4F4FC01A8EDB2E020E030E081918D9347
S11307A02F5F3F4F3093D1022093D0022417350797
S11307B0ACF3141615062CF041E050E002C040E002
S11307C050E0FA01E852FD4F108208951092D102D0
S11307D01092D00240E150E0DCCF81E08093D3025C
S11307E008958091D302811107C08091D2028111B2
S11307F006C086E990E008958EE890E0089582E9C5
S113080090E00895CF93DF930E94F103EC01FC0183
S113081001900020E9F7AC014E1B5F0B4F5E5F4F68
S113082060E070E080E00E949D05BE0180E00E94CF
S11308308B05DF91CF91089589B382958F700895C8
S11308400F931F93CF93C9B3C295CF700C2F10E0B1
S1130850B8018AE990E00E944603C0FD0CC081E023
S113086090E09801082E02C0359527950A94E2F786
S113087020FF04C00CC080E090E009C001968430E1
S1130880910579F783EA90E00E940E038FEFCF91F0
S11308901F910F9108950F931F93CF93DF93C7E098
S11308A0D0E001E010E028B3C8010C2E02C0880F8C
S11308B0991F0A94E2F7822788BB66B370E081EB44
S11308C090E00E94460389B382958F7011F48C2FB7
S11308D007C0219740F787EB90E00E940E038FEF4B
S11308E0DF91CF911F910F9108952091D002309103
S11308F0D102F901E852FD4F80832031310534F4EF
S11309002F5F3F4F3093D1022093D002E091D00269
S1130910F091D102E852FD4F10820895CF93C82F71
S11309208E3124F085EC90E00E940E03CD3199F4D1
S11309308091D0029091D102009729F00197909371
S1130940D1028093D002E091D002F091D102E8521A
S1130950FD4F108257C0CC3121F480E20E9475040F
S113096051C0CB3139F49091D30281E0892780932F
S1130970D30248C08091D3028823E9F09C2F97705A
S1130980933008F03FC0C595C595C595C33038F47C
S11309908C2F880FC80F81E3890F8C0F09C099230E
S11309A021F0913021F083E203C08AE201C080E3A8
S11309B00E94750427C0CA3139F49091D20281E0B3
S11309C089278093D2021EC09C2F95959595959565
S11309D0C770933068F48091D202811102C081E61D
S11309E001C081E4990F990F990FC90F8C0F08C0AA
S11309F08091D202811102C089E701C089E58C0F80
S1130A000E947504CF910895CF93DF930E94200430
S1130A10C82F0E944B04D82F6C2F0C2E000C770B80
S1130A208AED90E00E9411036D2F0D2E000C770BC0
S1130A308EED90E00E9411038C2F880F880F880F91
S1130A408D0FDF91CF910895E09117064E2FEE0F91
S1130A50550B660B770B47305105D0F4FA01E65D70
S1130A60FF4F0C9470100E94B50D08950E940B0C5A
S1130A7008950E947F0B08950E944E0C08950E94D1
S1130A80B10C08950E94BF0B08950E94840D08952F
S1130A9082EE90E00E940E030895882319F08130BD
S1130AA039F024C081B38C6F81BB0E94BB070895C9
S1130AB082E00E94100980E00E9481092FEF84E304
S1130AC09CE0215080409040E1F700C0000081E0AC
S1130AD00E9481092FEF84E39CE0215080409040E4
S1130AE0E1F700C000000E94CF08089586E091E07D
S1130AF00E940E030895882319F0813021F006C066
S1130B000E94970708950E94CF08089585E291E016
S1130B100E940E030895882319F0813029F008C03B
S1130B20CB010E9434080895CB010E940109089565
S1130B3085E291E00E940E030895962F882319F010
S1130B40813031F009C0642F892F0E949E070895D7
S1130B50842F0E94B90808958CE491E00E940E034A
S1130B600895CF93DF9300D0CDB7DEB769831A829F
S1130B70BE016F5F7F4F0E948B050F900F90DF9136
S1130B80CF910895FF920F931F93CF93DF93F82E85
S1130B90EA0140E050E00E949D056881662391F0DF
S1130BA08E010F5F1F4FC0E0D0E021968F2D0E9471
S1130BB0B105F80161918F016111F7CFC031D10501
S1130BC01CF00AC0C0E0D0E060E28F2D0E94B105A5
S1130BD02196C031D105C4F3DF91CF911F910F91BC
S1130BE0FF900895672B09F09FC0009711F4D898DF
S1130BF008958130910511F4D998089582309105B2
S1130C0011F4DA9808958330910511F4DB9808956E
S1130C108430910511F4DC9808958530910511F420
S1130C20DD9808958630910511F4DE980895873093
S1130C30910511F4DF9808958A30910511F4C09854
S1130C4008958B30910511F4C19808958C30910565
S1130C5011F4C29808958D30910511F4C398089544
S1130C608E30910511F4C49808958F30910511F4D4
S1130C70C59808958031910511F4C698089581317D
S1130C80910511F4C79808958431910511F4A89839
S1130C9008958531910511F4A99808958631910537
S1130CA011F4AA9808958731910511F4AB98089529
S1130CB08831910511F4AC9808958931910511F4A6
S1130CC0AD9808958A31910511F4AE9808958B3149
S1130CD0910511F4AF9808958E31910511F490980F
S1130CE008958F31910511F49198089580329105FA
S1130CF011F4929808958132910511F4939808950E
S1130D008232910511F4949808958332910511F477
S1130D10959808958432910511F4969808958597CD
S1130D2009F09FC097980895009711F4D89A0895F0
S1130D308130910511F4D99A08958230910511F406
S1130D40DA9A08958330910511F4DB9A089584307A
S1130D50910511F4DC9A08958530910511F4DD9A1A
S1130D6008958630910511F4DE9A0895873091052F
S1130D7011F4DF9A08958A30910511F4C09A089508
S1130D808B30910511F4C19A08958C30910511F4BA
S1130D90C29A08958D30910511F4C39A08958E3046
S1130DA0910511F4C49A08958F30910511F4C59AF0
S1130DB008958031910511F4C69A08958131910501
S1130DC011F4C79A08958431910511F4A89A0895ED
S1130DD08531910511F4A99A08958631910511F48C
S1130DE0AA9A08958731910511F4AB9A0895883130
S1130DF0910511F4AC9A08958931910511F4AD9AD5
S1130E0008958A31910511F4AE9A08958B319105B4
S1130E1011F4AF9A08958E31910511F4909A0895C2
S1130E208F31910511F4919A08958032910511F44E
S1130E30929A08958132910511F4939A0895823219
S1130E40910511F4949A08958332910511F4959AB9
S1130E5008958432910511F4969A0895859709F4BA
S1130E60979A0895CF93C82F80FF07C061E070E080
S1130E7083E290E00E94F20506C060E070E083E245
S1130E8090E00E94F205C1FF07C061E070E082E2D9
S1130E9090E00E94F20506C060E070E082E290E01B
S1130EA00E94F205C2FF07C061E070E081E290E0B9
S1130EB00E94F20506C060E070E081E290E00E94CA
S1130EC0F205C3FF07C061E070E080E290E00E9499
S1130ED0F20506C060E070E080E290E00E94F20556
S1130EE0CF910895CF93C82F60E070E085E290E041
S1130EF00E94F2058C2F0E94320761E070E084E2C8
S1130F0090E00E94F2058FEC97E00197F1F700C0A2
S1130F10000060E070E084E290E00E94F2058FEC53
S1130F2097E00197F1F700C00000CF91089580E0A9
S1130F300E94720781E00E9472070895CF93C62F22
S1130F4081110BC080E8860F82958F700E94720712
S1130F508C2F8F700E9472070CC0813051F480EC8A
S1130F60860F82958F700E9472078C2F8F700E945B
S1130F707207CF91089580E00E9432078FE39CE9C5
S1130F800197F1F700C0000083E00E9472078FE030
S1130F9097E20197F1F700C0000083E00E94720716
S1130FA08FEE95E50197F1F700C0000083E00E9401
S1130FB0720782E00E94720782E00E94720788E052
S1130FC00E94720780E00E9472078CE00E94720700
S1130FD080E00E94720786E00E9472070E949707D1
S1130FE00895CF93C82F61E070E085E290E00E94FD
S1130FF0F2058C2F82958F700E94320761E070E0B9
S113100084E290E00E94F2058FEC97E00197F1F7FB
S113101000C0000060E070E084E290E00E94F2050D
S11310208FEC97E00197F1F700C000008C2F8F70D0
S11310300E94320761E070E084E290E00E94F205D1
S11310408FEC97E00197F1F700C0000060E070E0DA
S113105084E290E00E94F2058FEC97E00197F1F7AB
S113106000C00000CF910895CF93DF93EC018881F5
S1131070882331F021960E94F10789918111FBCFD9
S1131080DF91CF910895EF92FF920F931F93CF9327
S1131090DF937B01142F880F0E941B0E811112C055
S11310A0112391F0E7011150012F10E00F5F1F4F42
S11310B00E0D1F1D89910E943F0EC017D107D1F755
S11310C0C0E003C0C1E001C0C0E00E94390E8C2F13
S11310D0DF91CF911F910F91FF90EF9008950F939F
S11310E01F93CF93DF9300D000D01F92CDB7DEB70C
S11310F0082F683071F4811102C080E001C088E0DB
S11311008093660041E066E670E087E20E9443084F
S113111026C080916600162F182B1983802F807F9C
S11311208460812B8A838B7F8B8320E1029FC001A3
S11311301124812B84608C838B7F8D8345E0BE01D9
S11311406F5F7F4F87E20E94430810FD08C00330A1
S113115030F4E3EFF1E03197F1F700C000000F90B5
S11311600F900F900F900F90DF91CF911F910F91DF
S11311700895CF93DF93D82FC62FE62FF0E0E959D7
S1131180FF4F982F9068808160E0892B0E946F0840
S1131190D093EA02C093EB02DF91CF91089560E00F
S11311A081E00E946F081092EB021092EA02089507
S11311B0CF93C82F9091EA028091E902981718F40E
S11311C0CA3059F414C06091EB026F5F6093EB0274
S11311D080E00E94B908CA3091F08091EA028F5FE2
S11311E08093EA0261E08C2F0E946F0808C060912E
S11311F0EB026F5F6093EB0280E00E94B908CF912D
S11312000895CF93DF93EC018881882331F02196F0
S11312100E94D80889918111FBCFDF91CF91089565
S11312200F931F93CF93DF9300D000D000D0CDB79E
S1131230DEB7082F80E3898394E39A838B8380E26B
S11312408C8394E29D838E8380E18093E902E7E6B8
S1131250F0E08081805F82838181805F8383BD9A97
S1131260C59A0E94170E8BE49DE10197F1F700C027
S1131270000043E0BE016F5F7F4F87E20E94430896
S1131280182F81EE94E00197F1F700C0000043E0CD
S1131290BE016F5F7F4F87E20E944308182B43E033
S11312A0BE016F5F7F4F87E20E944308182B43E023
S11312B0BE016C5F7F4F87E20E944308182B60E0F9
S11312C088E20E946F08812B09F0C59860E08CE0E9
S11312D00E946F0860E086E00E946F0860E081E091
S11312E00E946F0860E0802F0E946F0826960FB658
S11312F0F894DEBF0FBECDBFDF91CF911F910F9148
S1131300089568E00E946F08089580EC87B980E82A
S113131086B9D0980895369A3699FECF64B175B1DE
S113132080E090E00E94610F2AE037ED43E250E450
S11313300E94EF0F20E030E04AE754E40E94EF0FF0
S113134020E030E040E256E40E94B90E26E636E69C
S113135046EE5FE30E94EF0F20E030E040E052E40D
S11313600E944D0E08950F931F93CF93DF93CDB733
S1131370DEB78C012091C8053091C9058091CA055A
S11313809091CB058217930774F440E751E060E035
S113139070E081E00E94C20541E851E061E070E044
S11313A081E00E94C205F801E252FD4F20813181A3
S11313B02F5F3F4F3183208389E4829FD001839F35
S11313C0B00D1124A00FB11FFE01379601900D92AC
S11313D08A95E1F7DF91CF911F910F910895FC0158
S11313E0E452FD4F4081518132962081318124178E
S11313F035077CF032979A012F5F3F4F318320836A
S113140069E4649F9001659F300D1124820F931F3E
S1131410089580E090E00895FC01E452FD4F40817E
S11314205181329620813181241735074CF069E4CB
S1131430649F9001659F300D1124820F931F0895BE
S113144080E090E00895CF93DF93CDB7DEB7619746
S11314500FB6F894DEBF0FBECDBF1092C90510922F
S1131460C8058FEF9FEF9093CB058093CA050E9428
S11314707C0381E991E00E94890380E00E944D058C
S113148081E00E944D0540E050E060E070E081E0C2
S11314900E949D056DE971E081E00E948B0540E0AA
S11314A050E060E070E081E00E949D056DE971E02C
S11314B081E00E948B056DE971E081E00E948B055B
S11314C080E00E94D50D0E9498030E94050348EB1A
S11314D051E060E070E081E00E94C20547EC51E019
S11314E061E070E081E00E94C2050F2EF8ECAF2E9F
S11314F0F5E0BF2EF02D0F2EFAECCF2EF5E0DF2E07
S1131500F02D552453940F2EF1ED8F2EF1E09F2EE4
S1131510F02DCE0101967C010F2EFAED6F2EF1E035
S11315207F2EF02D0E941C048823B1F0EFE3FCE928
S11315303197F1F700C000000E941C04882361F079
S11315400E9404050E9424058FE39CE90197F1F7AA
S113155000C000000E9498030E94010E0E9407032D
S1131560882301F38091D402882309F455C08CEEBA
S113157092E00E94EF09F50120813181F60180811A
S11315809181821793078CF448EB51E060E070E09E
S1131590852D0E94C20547EC51E061E070E0852D85
S11315A00E94C2051092D402BDCF8CEE92E00E943C
S11315B00C0A8C011F938F93FC01E95BFF4F81811F
S11315C08F9380818F939F928F92FF92EF920E94CC
S11315D0F711A70160E070E0852D0E94C205C801E3
S11315E041969F938F938C969F938F930D5C1F4F7F
S11315F01F930F937F926F92FF92EF920E94F711C5
S1131600A70161E070E0852D0E94C2050FB6F89431
S1131610DEBF0FBECDBF86CFF50120813181F6013B
S113162080819181821793070CF47CCF5092D4026D
S11316308CEE92E00E940C0A8C011F938F93FC01A4
S1131640E95BFF4F81818F9380818F939F928F926B
S1131650FF92EF920E94F711A70160E070E0852DE0
S11316600E94C205C80141969F938F938C969F93C5
S11316708F930D5C1F4F1F930F937F926F92FF9276
S1131680EF920E94F711A70161E070E0852D0E949E
S1131690C2050FB6F894DEBF0FBECDBF43CF0E9484
S11316A0CB11089541960E94CB11089582960E9411
S11316B0CB110895895B9F4FFC017183608308956A
S11316C0C3960E94CB110895CD960E94CB11089524
S11316D049EE51E060E070E080E00E94C2050E94A3
S11316E0ED030E9402048FED95E00E94AA0348EDE9
S11316F052E061E070E080E00E94C20508958F31FD
S113170061F468ED72E08EEC95E00E94520B0E9449
S11317109F0383E00E94D50D08958E3161F468ED36
S113172072E08EEC95E00E94520B0E949F0381E0D0
S11317300E94D50D08950E948E0448ED52E061E0A8
S113174070E080E00E94C20588ED92E00E94890367
S11317500E940204089544EF51E060E070E080E0EC
S11317600E94C20545E052E061E070E080E00E9422
S1131770C2050E942C021092D702089508958F3159
S1131780F9F48091D70281110DC081E08093D702D2
S113179047E152E061E070E080E00E94C2050E94EF
S11317A0320208951092D70268ED72E08EEC95E053
S11317B00E94640B0E949F0386E00E94D50D089549
S11317C08E3159F468ED72E08EEC95E00E94640B62
S11317D00E949F0384E00E94D50D089580E00E943A
S11317E07B0540E050E060E070E080E00E949D05F1
S11317F06DE172E080E00E948B050E9402048EEC91
S113180095E00E94AA0348ED52E061E070E080E0B8
S11318100E94C20508958F3161F468ED72E08EEC88
S113182095E00E944F0B0E949F0382E00E94D50D19
S113183008958E3161F468ED72E08EEC95E00E94BB
S11318404F0B0E949F0380E00E94D50D08950E94D3
S11318508E0448ED52E061E070E080E00E94C20531
S113186088ED92E00E9489030E940204089549E2EF
S113187052E060E070E080E00E94C2050E94ED0347
S11318800E94020480EF95E00E94AA0348ED52E012
S113189061E070E080E00E94C20508958F3161F438
S11318A068ED72E08EEC95E00E94560B0E949F0357
S11318B084E00E94D50D08958E3161F468ED72E0E4
S11318C08EEC95E00E94560B0E949F0382E00E94DA
S11318D0D50D08950E948E0448ED52E061E070E059
S11318E080E00E94C20588ED92E00E9489030E9474
S11318F0ED030E940204089543E352E060E070E0C7
S113190080E00E94C2050E94850908950F931F93E9
S1131910CF93DF93CDB7DEB764970FB6F894DEBFED
S11319200FBECDBF0E948B098E010F5F1F4F22E0B7
S113193045E00E948A10A80161E070E080E00E9406
S1131940C205B80188ED92E00E94CB1164960FB6EF
S1131950F894DEBF0FBECDBFDF91CF911F910F91E1
S113196008958F3161F468ED72E08EEC95E00E9489
S1131970600B0E949F0385E00E94D50D08958E316F
S113198059F468ED72E08EEC95E00E94600B0E94C1
S11319909F0383E00E94D50D08950F931F93CF9367
S11319A0DF93CDB7DEB7C456D1090FB6F894DEBFC6
S11319B00FBECDBF6091D5027091D6026F5F7F4F8D
S11319C0072E000C880B990B0E94630F8E010F5F8A
S11319D01F4F20E043E00E948A104DE050E060E099
S11319E070E080E00E949D05B80180E00E948B05B4
S11319F06091D5027091D6028EEC95E00E945A0B4C
S1131A00CC59DF4F0FB6F894DEBF0FBECDBFDF91C8
S1131A10CF911F910F91089540E050E060E070E095
S1131A2080E00E949D0540E452E060E070E080E0C8
S1131A300E94C2050E94CD0C40E050E061E070E0DD
S1131A4080E00E949D054EE452E061E070E080E099
S1131A500E94C2050895CF93DF9389E490E00E9429
S1131A60AA10EC016EEC75E00E94CB116FED75E0ED
S1131A70CE0141960E94CB1160EF75E0CE018296B3
S1131A800E94CB11FE01E95BFF4F809115069091F6
S1131A9016069183808361E076E0CE01C3960E94AE
S1131AA0CB116BE076E0CE01CD960E94CB118DB7C1
S1131AB09EB7895491090FB6F8949EBF0FBE8DBF8F
S1131AC0ADB7BEB7119689E4FE0101900D928A95D7
S1131AD0E1F78CEE92E00E94B3098DB79EB7875B65
S1131AE09F4F0FB6F8949EBF0FBE8DBFCE010E94CC
S1131AF04211DF91CF910895EEECF5E01082118A46
S1131B0012A213AA15AE08958F3149F580E00E9400
S1131B107B0543E050E060E070E080E00E949D05BA
S1131B208091D5029091D60201969093D60280932B
S1131B30D5020E942B0D6FE572E080E00E948B05B8
S1131B402FEF87E893E1215080409040E1F700C0F7
S1131B50000080E00E94D50D0E947C0D08958E3116
S1131B6019F485E00E94D50D089581E00E94D50DF9
S1131B70089580E00E947B0540E050E060E070E062
S1131B8080E00E949D0569E672E080E00E948B057A
S1131B9040E050E061E070E080E00E949D0562E773
S1131BA072E080E00E948B050895CF93C82F082E21
S1131BB0000C990BAA0BBB0B87309105D0F4FC01E8
S1131BC0EF5CFF4F0C9470100E94B90D16C00E9478
S1131BD0EE0B13C00E94680B10C00E94370C0DC09E
S1131BE00E947C0C0AC00E94AB0B07C00E940C0D23
S1131BF004C08FE792E00E940E03C0931706CF91B2
S1131C00089580911706843039F01CF4882374F405
S1131C1009C0853021F006C00E94860C08950E94F8
S1131C20BE0B08958FE992E00E940E03089511B847
S1131C3080E280B9089594EA96BF06B607FEFDCF08
S1131C4091B1987F983011F0903179F483B984E898
S1131C5086BF06B607FEFDCF91B1987F983139F063
S1131C6081E0903429F480E0089581E0089580E0D3
S1131C70089584E986BF06B604FCFDCF089583B9B0
S1131C8084E886BF06B607FEFDCF91B1987F81E058
S1131C90983209F480E008955058BB27AA270E947F
S1131CA0640E0C94B50F0E94A70F38F00E94AE0F7B
S1131CB020F039F49F3F19F426F40C94A40F0EF489
S1131CC0E095E7FB0C949E0FE92F0E94C60F58F392
S1131CD0BA17620773078407950720F079F4A6F50D
S1131CE00C94E80F0EF4E0950B2EBA2FA02D0B01E7
S1131CF0B90190010C01CA01A0011124FF27591B4D
S1131D0099F0593F50F4503E68F11A16F040A22F52
S1131D10232F342F4427585FF3CF469537952795C3
S1131D20A795F0405395C9F77EF41F16BA0B620BC2
S1131D30730B840BBAF09150A1F0FF0FBB1F661F09
S1131D40771F881FC2F70EC0BA0F621F731F841F4C
S1131D5048F4879577956795B795F7959E3F08F072
S1131D60B0CF9395880F08F09927EE0F9795879534
S1131D7008950E94CD0E0C94B50F0E94AE0F58F03A
S1131D800E94A70F40F029F45F3F29F00C949E0FA6
S1131D9051110C94E90F0C94A40F0E94C60F68F320
S1131DA09923B1F3552391F3951B550BBB27AA2710
S1131DB062177307840738F09F5F5F4F220F331F4A
S1131DC0441FAA1FA9F335D00E2E3AF0E0E832D012
S1131DD091505040E695001CCAF72BD0FE2F29D015
S1131DE0660F771F881FBB1F261737074807AB07E7
S1131DF0B0E809F0BB0B802DBF01FF2793585F4F5C
S1131E003AF09E3F510578F00C949E0F0C94E90F24
S1131E105F3FE4F3983ED4F3869577956795B7953D
S1131E20F7959F5FC9F7880F911D9695879597F948
S1131E300895E1E0660F771F881FBB1F62177307C1
S1131E408407BA0720F0621B730B840BBA0BEE1FD6
S1131E5088F7E09508950E94320F6894B1110C94AC
S1131E60E90F08950E94CE0F88F09F5798F0B92F7C
S1131E709927B751B0F0E1F0660F771F881F991FBB
S1131E801AF0BA95C9F714C0B13091F00E94E80F66
S1131E90B1E008950C94E80F672F782F8827B85F76
S1131EA039F0B93FCCF3869577956795B395D9F713
S1131EB03EF490958095709561957F4F8F4F9F4F1D
S1131EC00895E89409C097FB3EF490958095709529
S1131ED061957F4F8F4F9F4F9923A9F0F92F96E972
S1131EE0BB279395F695879577956795B795F111E7
S1131EF0F8CFFAF4BB0F11F460FF1BC06F5F7F4F84
S1131F008F4F9F4F16C0882311F096E911C0772395
S1131F1021F09EE8872F762F05C0662371F096E89E
S1131F20862F70E060E02AF09A95660F771F881F6D
S1131F30DAF7880F9695879597F9089597F99F672B
S1131F4080E870E060E008959FEF80EC089500243D
S1131F500A941616170618060906089500240A940A
S1131F6012161306140605060895092E0394000C90
S1131F7011F4882352F0BB0F40F4BF2B11F460FF1F
S1131F8004C06F5F7F4F8F4F9F4F089557FD905848
S1131F90440F551F59F05F3F71F04795880F97FB29
S1131FA0991F61F09F3F79F08795089512161306E3
S1131FB01406551FF2CF4695F1DF08C01616170612
S1131FC01806991FF1CF8695710561050894089547
S1131FD0E894BB2766277727CB0197F908950E94D9
S1131FE002100C94B50F0E94A70F38F00E94AE0F98
S1131FF020F0952311F00C949E0F0C94A40F11243F
S11320000C94E90F0E94C60F70F3959FC1F3950FCE
S113201050E0551F629FF001729FBB27F00DB11D68
S1132020639FAA27F00DB11DAA1F649F6627B00DF8
S1132030A11D661F829F2227B00DA11D621F739FE1
S1132040B00DA11D621F839FA00D611D221F749FEF
S11320503327A00D611D231F849F600D211D822F36
S1132060762F6A2F11249F5750409AF0F1F088235D
S11320704AF0EE0FFF1FBB1F661F771F881F91508A
S11320805040A9F79E3F510580F00C949E0F0C948C
S1132090E90F5F3FE4F3983ED4F38695779567950F
S11320A0B795F795E7959F5FC1F7FE2B880F911DB4
S11320B09695879597F9089597FB072E16F4009443
S11320C007D077FD09D00E94761007FC05D03EF4B6
S11320D0909581959F4F0895709561957F4F0895D0
S11320E0EE0FFF1F0590F491E02D0994AA1BBB1B72
S11320F051E107C0AA1FBB1FA617B70710F0A61B04
S1132100B70B881F991F5A95A9F780959095BC0124
S1132110CD010895EF920F931F93CF93DF93E801BE
S113212047FD02C034E001C034E1042E000C550B1D
S113213057FF03C0519541955109E32E022F242FD7
S1132140AE010E94FA13CE01DF91CF911F910F913E
S1132150EF9008950F931F93CF93DF9382309105EF
S113216010F482E090E0E0911A06F0911B0620E062
S113217030E0A0E0B0E0309719F140815181028154
S1132180138148175907C8F08417950769F4109705
S113219031F012960C93129713961C9327C0009358
S11321A01A0610931B0622C02115310519F0421797
S11321B0530718F49A01BD01EF01DF01F801DBCFE9
S11321C021153105F9F0281B390B2430310580F431
S11321D08A819B816115710521F0FB0193838283C0
S11321E004C090931B0680931A06FE01329644C0E5
S11321F0FE01E20FF31F8193919322503109398339
S113220028833AC02091180630911906232B41F4F3
S113221020916200309163003093190620931806D0
S113222020916000309161002115310541F42DB7F2
S11322303EB74091640050916500241B350BE0913A
S11322401806F0911906E217F307A0F42E1B3F0BB2
S11322502817390778F0AC014E5F5F4F2417350714
S113226048F04E0F5F1F5093190640931806819350
S1132270919302C0E0E0F0E0CF01DF91CF911F9194
S11322800F910895CF93DF93009709F481C0FC0167
S1132290329713821282A0911A06B0911B061097EE
S11322A081F420813181820F931F2091180630918F
S11322B019062817390751F5F0931906E093180603
S11322C067C0ED0120E030E0CE17DF0740F44A811B
S11322D05B819E0141155105F1F0EA01F5CFD383ED
S11322E0C28340815181840F951FC817D90759F4BF
S11322F088819981840F951F0296918380838A81B6
S11323009B81938382832115310529F4F0931B0665
S1132310E0931A063DC0E901FB83EA834991599190
S1132320C40FD51FEC17FD0761F480819181840FE0
S1132330951F0296E90199838883828193819B8307
S11323408A83E0E0F0E012968D919C9113970097B8
S113235019F0FD01DC01F7CF8D919C9111979D013E
S11323602E5F3F4F820F931F20911806309119065C
S11323702817390769F4309729F410921B06109234
S11323801A0602C013821282B0931906A09318068B
S1132390DF91CF910895FB01DC0101900D920020A3
S11323A0E1F70895BB274A3031F4992322F4BDE2C2
S11323B0909581959F4F0C94DE11BB27FB01552707
S11323C0AA27880F991FAA1FA41710F0A41B83958E
S11323D05051B9F7A05DAA3308F0A95DA193009705
S11323E079F7B111B1931192CB010C944216AEE07E
S11323F0B0E0EDEFF1E10C94FA160D891E8986E048
S11324008C831A8309838FEF9FE79E838D83AE01AC
S1132410475E5F4F6F89788DCE0101960E94191235
S1132420EF81F885E00FF11F10822E96E4E00C9402
S11324301617ABE0B0E0EFE1F2E10C94EC166C019E
S11324407B018A01FC0117821682838181FFCCC142
S1132450CE0101963C01F6019381F70193FD85912C
S113246093FF81917F01882309F4BAC1853239F43D
S113247093FD859193FF81917F01853229F4B60103
S113248090E00E945216E7CF912C212C312CFFE1D1
S1132490F315D8F08B3279F038F4803279F0833246
S11324A0A1F4232D20611DC08D3261F0803369F4C5
S11324B0232D216016C0832D8260382EE32DE46025
S11324C03E2E2AC0F32DF8601DC037FC2DC020ED30
S11324D0280F2A3040F08E32B9F436FC81C1232D06
S11324E02064322E19C036FE06C08AE0989E200D64
S11324F01124922E11C0EAE02E9E200D1124222ECA
S1132500F32DF0623F2E08C08C3621F4832D8068B1
S1132510382E02C0883641F4F70193FD859193FF6C
S113252081917F018111B3CF982F9F7D9554933072
S113253028F40C5F1F4F9FE399830DC0833631F05D
S1132540833771F0833509F059C021C0F8018081C7
S113255089830E5F1F4F88248394912C530113C0E9
S11325602801F2E04F0E511CF801A080B18036FE24
S113257003C0692D70E002C06FEF7FEFC5010E94B8
S113258037164C018201F32DFF773F2E16C0280128
S113259022E0420E511CF801A080B18036FE03C037
S11325A0692D70E002C06FEF7FEFC5010E942C1609
S11325B04C01F32DF0683F2E820133FC1BC0822DA9
S11325C090E088169906B0F4B60180E290E00E948B
S11325D052162A94F4CFF50137FC859137FE819188
S11325E05F01B60190E00E94521621102A9421E066
S11325F0821A91088114910471F7E8C0843611F0AD
S1132600893641F5F80137FE07C060817181828106
S113261093810C5F1F4F08C060817181072E000CED
S1132620880B990B0E5F1F4FF32DFF763F2E97FFFC
S113263009C090958095709561957F4F8F4F9F4FFE
S1132640F0683F2E2AE030E0A3010E948E16882E07
S1132650861845C0853731F4232D2F7EB22E2AE00B
S113266030E025C0932D997FB92E8F36C1F018F430
S1132670883579F0B5C0803719F0883721F0B0C0BB
S1132680E92FE061BE2EB4FE0DC0FB2DF460BF2E19
S113269009C034FE0AC0292F2660B22E06C028E0E5
S11326A030E005C020E130E002C020E132E0F80172
S11326B0B7FE07C060817181828193810C5F1F4FD7
S11326C006C06081718180E090E00E5F1F4FA3011E
S11326D00E948E16882E8618FB2DFF773F2E36FE1D
S11326E00DC0232D2E7FA22E891458F434FE0BC066
S11326F032FC09C0832D8E7EA82E05C0B82CA32CD5
S113270003C0B82C01C0B92CA4FE0FC0FE01E80D13
S1132710F11D8081803321F49A2D997EA92E09C060
S1132720A2FE06C0B394B39404C08A2D867809F03F
S1132730B394A3FC11C0A0FE06C0B21488F4280C04
S1132740922C9B180EC0B21460F4B60180E290E0A3
S11327500E945216B394F7CFB21418F42B1802C087
S1132760982C212CA4FE10C0B60180E390E00E94B6
S11327705216A2FE17C0A1FC03C088E790E002C075
S113278088E590E0B6010CC08A2D867859F0A1FE48
S113279002C08BE201C080E2A7FC8DE2B60190E0AA
S11327A00E945216891438F4B60180E390E00E9426
S11327B052169A94F7CF8A94F301E80DF11D8081A3
S11327C0B60190E00E9452168110F5CF222009F440
S11327D042CEB60180E290E00E9452162A94F6CFCF
S11327E0F6018681978102C08FEF9FEF2B96E2E17D
S11327F00C940817A9E0B0E0E0E0F4E10C94F216C0
S11328006A01122FB02E2BE3201720F0FF24F3943B
S1132810F00E02C02CE3F22E0F2D27E0AE014F5F25
S11328205F4F0E945415BC014981842F8970813007
S113283031F0E1FC06C0E0FE06C090E205C09DE276
S113284003C09BE201C090E05E2D507143FF3CC089
S1132850911102C083E001C084E0811718F4212F94
S1132860281B01C020E051110BC0F601822F30E279
S1132870882319F031938150FBCFC20ED11C20E084
S1132880992329F0D6019C93F60131966F01C60174
S11328900396E2FE0AC03EE4D6013C9341E411965D
S11328A04C93119712963C9306C03EE6F601308392
S11328B041E641833283FC01322F40E2332309F4A1
S11328C042C041933150FACF42FF44C0911102C03B
S11328D083E001C084E0811718F4212F281B01C074
S11328E020E051110BC0F601822F30E2882319F049
S11328F031938150FBCFC20ED11C20E0992329F0E3
S1132900D6019C93F60131966F01C6010396E2FE4F
S11329100BC039E4D6013C933EE411963C931197E5
S113292036E412963C9307C039E6F60130833EE65E
S1132930318336E63283FC01322F40E2332319F02F
S113294041933150FBCFFC01E20FF11D10828EEF59
S11329509FEFA6C021E030E0911102C020E030E0FA
S1132960161617061CF4FB01319602C0E1E0F0E0F4
S11329702E0F3F1FBB2021F0EB2DF0E0319602C05B
S1132980E0E0F0E02E0F3F1FE12FF0E02E173F07AD
S11329901CF4121B212F01C020E08E2D887159F4E4
S11329A0F601822F30E2882319F031938150FBCF56
S11329B0C20ED11C20E0992329F0D6019C93F60184
S11329C031966F0151110BC0F601822F90E38823D9
S11329D019F091938150FBCFC20ED11C20E00F2D32
S11329E0060F9A81342F307144FF03C0913309F4E8
S11329F00150101624F4093018F008E001C001E079
S1132A00AB0177FF02C040E050E0FB01E41BF50B93
S1132A10A1E0B0E0AC0FBD1FEA0FFB1F8EE2A82EB1
S1132A204B01801A91080B2D10E0119501951109A5
S1132A304F3FBFEF5B0721F4D601AC9211966D01B5
S1132A40641775072CF08416950614F4818101C06F
S1132A5080E3415051093196D60111967D0140170A
S1132A60510724F0D6018C936701E2CF64177507F0
S1132A7039F4963320F4953319F4311101C081E30C
S1132A80F6018083F701822F90E2882319F0919355
S1132A908150FBCFF701E20FF11D108280E090E03E
S1132AA02996ECE00C940E17283008F027E0332721
S1132AB0DA01990F311D87FD91600096610571055A
S1132AC039F432602E5F3D9330E32A95E1F708959F
S1132AD09F3F30F080387105610509F03C5F3C5F31
S1132AE03D93913008F08068911DDF93CF931F933D
S1132AF00F93FF92EF92192F987F9695E92F969551
S1132B009695E90FFF27E653FF4F99273327EE24C5
S1132B10FF24A701E70105900894079428F4360FD1
S1132B20E71EF81E491F511D660F771F881F991F46
S1132B300694A1F70590079428F4E70EF81E491FA0
S1132B40561FC11D770F881F991F661F0694A1F792
S1132B500590079428F4F80E491F561FC71FD11D6E
S1132B60880F991F661F771F0694A1F70590079495
S1132B7020F4490F561FC71FD81F990F661F771FD0
S1132B80881F0694A9F784911095177041F0D69583
S1132B90C79557954795F794E7941A95C1F7E0E7D9
S1132BA0F0E0689415901591359165919591059093
S1132BB07FE27395E118F10A430B560BC90BD00958
S1132BC0C0F7E10CF11E431F561FC91FD01D7EF430
S1132BD0703311F48A95E6CFE894015030F0080F71
S1132BE00AF40027021708F4202F2395022F7A33C2
S1132BF028F079E37D932A95E9F710C07D932A950F
S1132C0089F6069497956795379517951794E11863
S1132C10F10A430B560BC90BD00998F023957E910A
S1132C2073957A3308F070E37C932013B8F77E91A0
S1132C3070617D9330F0839571E37D9370E32A9501
S1132C40E1F71124EF90FF900F911F91CF91DF9145
S1132C50992787FD90950895FC0105906150704077
S1132C600110D8F7809590958E0F9F1F0895FC0151
S1132C706150704001900110D8F7809590958E0FA7
S1132C809F1F0895DC01FC01672F71917723E1F701
S1132C90329704C07C916D9370836291AE17BF0725
S1132CA0C8F308950F931F93CF93DF93FB01238100
S1132CB021FD03C08FEF9FEF2CC022FF16C0468179
S1132CC05781248135814217530744F4A081B1818F
S1132CD09D012F5F3F4F318320838C932681378161
S1132CE02F5F3F4F3783268314C08B01EC01FB0118
S1132CF00084F185E02D0995892BE1F6D80116961B
S1132D008D919C911797019617969C938E93169785
S1132D10CE01DF91CF911F910F910895FA01AA2757
S1132D20283051F1203181F1E8946F936E7F6E5F0A
S1132D307F4F8F4F9F4FAF4FB1E03ED0B4E03CD0B8
S1132D40670F781F891F9A1FA11D680F791F8A1F9B
S1132D50911DA11D6A0F711D811D911DA11D20D002
S1132D6009F468943F912AE0269F11243019305DBC
S1132D703193DEF6CF010895462F4770405D4193AD
S1132D80B3E00FD0C9F7F6CF462F4F70405D4A33FA
S1132D9018F0495D31FD4052419302D0A9F7EACFC2
S1132DA0B4E0A6959795879577956795BA95C9F7F1
S1132DB000976105710508959B01AC010A2E0694E4
S1132DC05795479537952795BA95C9F7620F731F9D
S1132DD0841F951FA01D08952F923F924F925F92DA
S1132DE06F927F928F929F92AF92BF92CF92DF9217
S1132DF0EF92FF920F931F93CF93DF93CDB7DEB77C
S1132E00CA1BDB0B0FB6F894DEBF0FBECDBF09940F
S1132E102A88398848885F846E847D848C849B8466
S1132E20AA84B984C884DF80EE80FD800C811B8174
S1132E30AA81B981CE0FD11D0FB6F894DEBF0FBEA3
S10D2E40CDBFED010895F894FFCF13
S1132E4A00001C0620000880C000002532647300BC
S1132E5A42504D00203D2025640A000D0A006E658B
S1132E6A7744617461206973204E756C6C00313249
S1132E7A3300414243006162630050494E5F726FFE
S1132E8A773A004B6579706164476574526F773A93
S1132E9A0050494E423A004B657970616447657443
S1132EAA436F6C3A004B65795061645F4164644BCB
S1132EBA65793A2033317C333000726F7700636F5F
S1132ECA6C0050726F636573734B65793A20556E63
S1132EDA646566696E65642043757272656E7420F2
S1132EEA5374617465004C63645F496E69743A2073
S1132EFA4C636454797065204E6F74737570706F87
S1132F0A72746564004C63645F436C6561725363F5
S1132F1A7265656E3A204C636454797065204E6F0D
S1132F2A7420737570706F72746564004C63645FA7
S1132F3A506F736974696F6E3A204C636454797084
S1132F4A65204E6F7420737570706F7274656400B7
S1132F5A50617469656E7473206172652057616982
S1132F6A0074696E672075736520627574746F6E78
S1132F7A0068656C6C6F20746865726500616263D1
S1132F8A6465666768696A6B6C6D6E6F707172737B
S1132F9A7475767778797A004E6F20506174696512
S1132FAA6E7420696E200074686520717565756594
S1132FBA002532642D2531337300253673462533B3
S1132FCA7342504D2532735900456E74657220411F
S1132FDA67653A0046696E676572206F6E2067728C
S1132FEA65656E2D004C696768742C207072657370
S1132FFA73206E657874004C6967687400456E7452
S113300A6572204E616D653A0050686F6E65206E78
S113301A6F3A0054656D70657261747572653A0031
S113302A596F75722053657269616C3A20004E3A81
S113303A436F6E6669726D20503A4261636B005445
S113304A68616E6B20596F750057656C636F6D65A7
S113305A2100312E204E657720456E74727900471F
S113306A6F746F53746174653A206E657753746133
S113307A7465206E6F7420646566696E65640053B6
S113308A74617465735F526566726573683A206326
S113309A757272656E747374617465206E6F7420D0
S10B30AA646566696E6564004B
S9030000FC
