S011000070726F6A636F6465732E737265634A
S11300000C94B5000C94D2000C94D2000C94D20041
S11300100C94D2000C94D2000C94D2000C94D20014
S11300200C94D2000C94D2000C94D2000C94D20004
S11300300C94D2000C94D2000C94D2000C94D200F4
S11300400C94D2000C94D2000C94D2000C94D200E4
S11300500C94D200250528052B052E053105340501
S11300603705730C760C790C7C0C7F0C820C850C98
S113007000407A10F35A00A0724E18090010A5D45B
S1130080E80000E87648170000E40B54020000CAB8
S11300909A3B000000E1F5050000809698000000FE
S11300A040420F000000A08601000000102700005D
S11300B00000E803000000006400000000000A00E3
S11300C0000000000100000000002C76D888DC67E6
S11300D04F0823DFC1DFAE59E1B1B796E5E3E4533E
S11300E0C63AE651997696E8E6C28426EB898C9B5B
S11300F062ED407C6FFCEFBC9C9F40F2BAA56FA5FB
S1130100F490055A2AF75C936B6CF9676DC11BFC7C
S1130110E0E40D47FEF520E6B500D0ED902E030097
S1130120943577050080841E080000204E0A0000E4
S113013000C80C333333330F986E12831141EF8DA3
S11301402114893BE65516CFFEE6DB18D1844B38E3
S11301501BF77C1D901DA4BBE424203284725E2214
S11301608100C9F124ECA1E53D2711241FBECFE590
S1130170D8E0DEBFCDBF12E0A0E6B0E0E4E0FBE2F1
S113018002C005900D92A435B107D9F722E0A4E589
S1130190B2E001C01D92A83CB207E1F70E94A50994
S11301A00C9480150C9400008F929F92AF92BF9292
S11301B0EF92FF920F931F93CF93DF9316161706B8
S11301C004F57B018C010E5F1F4FC1E0D0E0812C50
S11301D0912C5401F801619171918F01072E000C4B
S11301E0880B990B0E94E80D9B01AC01C501B40179
S11301F00E94D20C4B015C012196EC16FD0654F7CB
S113020003C0812C912C5401C501B401DF91CF911D
S11302101F910F91FF90EF90BF90AF909F908F90A0
S113022008958F929F92AF92BF92EF92FF920F9395
S11302301F93CF93DF93161617063CF57B018C01B1
S11302400E5F1F4FC1E0D0E0812C912C5401F801C6
S1130250819191918F018C9FB0018D9F700D9C9F16
S1130260700D1124072E000C880B990B0E94E80DC9
S11302709B01AC01C501B4010E94D20C4B015C018D
S11302802196EC16FD061CF703C0812C912C540119
S1130290C501B401DF91CF911F910F91FF90EF90B1
S11302A0BF90AF909F908F9008954F925F926F92FE
S11302B07F928F929F92AF92BF92CF92DF92EF92F2
S11302C0FF92CF93DF93CDB7DEB760970FB6F89464
S11302D0DEBF0FBECDBF3C016A017B0120E030E0F0
S11302E040E85FE3C701B6010E94D20C6D837E83B0
S11302F08F83988720E030E040E05FE30E94740E33
S113030069837A838B839C83C701B6010E94B00DF5
S11303104B015C01C3010E94D400A70196010E9415
S11303203E0D69877A878B879C87B401C3010E943D
S113033011014B015C0129813A814B815C81C70128
S1130340B6010E94740E2B013C019B01AC0169852E
S11303507A858B859C850E94740E9B01AC01C50136
S1130360B4010E94D10C4B015C01A7019601C701A5
S1130370B6010E94D20C20E030E040E85FE30E9426
S1130380D20C6D877E878F87988B2D813E814F811C
S11303905885C701B6010E94740E9B01AC016D859E
S11303A07E858F8598890E94740E20E030E040ECB1
S11303B050E40E943E0D6B017C01A301920169810E
S11303C07A818B819C810E94740E9B01AC01C701D0
S11303D0B6010E94D10C9B01AC01C501B4010E947D
S11303E03E0D9B01AC0160935802709359028093B7
S11303F05A0290935B0269817A818B819C810E946D
S1130400740E9B01AC0169857A858B859C850E945D
S1130410D10C6093540270935502809356029093CA
S1130420570260960FB6F894DEBF0FBECDBFDF91C2
S1130430CF91FF90EF90DF90CF90BF90AF909F90BF
S11304408F907F906F905F904F90089597B18F70C9
S1130450982B97B9369A86B18AE18A95F1F700C04C
S113046024B185B190E0982F8827820F911D0895BB
S1130470D19887E886B980E487B980E00E946D0549
S113048008954F925F926F927F928F929F92AF9254
S1130490BF92CF92DF92EF92FF920F931F93CF936D
S11304A0DF93CDB7DEB7CC56D1090FB6F894DEBFD3
S11304B00FBECDBF18861F827E0129E0E20EF11C1B
S11304C0670100E010E00F5F1F4F80E00E942602EA
S11304D0F601819391936F014AE0BE016F5F7F4FF4
S11304E00E942F10FFEF20E782E0F150204080406F
S11304F0E1F700C000000233110529F740E050E0A5
S113050068E472E4CE0107960E94550140905802B7
S11305105090590260905A0270905B02809054028D
S113052090905502A0905602B0905702C12CD12C45
S113053000E010E0B8016E5F7F4F072E000C880BBF
S1130540990B0E94E80DA30192010E94740EA5016B
S113055094010E94D20C0E94B00D0F5F1F4FF7014F
S1130560419151917F01641775077CF43497208180
S11305703181241735074CF4F70120813181241788
S113058035071CF4FFEFCF1ADF0A0233110591F689
S1130590C601880F991F8C0D9D1D4AE08E010F5FC7
S11305A01F4FB801880F991F0E942F10D8010D907A
S11305B00020E9F7119785E0EBE6F0E001900D9259
S11305C08A95E1F7A80161E070E080E00E94B4053B
S11305D0C459DF4F0FB6F894DEBF0FBECDBFDF9115
S11305E0CF911F910F91FF90EF90DF90CF90BF902C
S11305F0AF909F908F907F906F905F904F900895F1
S11306000E947B0308950F931F93CF93DF93CDB77D
S1130610DEB72A970FB6F894DEBF0FBECDBF162FF4
S1130620072F0E947B030F931F9380E790E09F9313
S11306308F938E010F5F1F4F1F930F930E945410CF
S1130640C8010E947B0387E790E00E947B030F9020
S11306500F900F900F900F900F902A960FB6F8946A
S1130660DEBF0FBECDBFDF91CF911F910F910895D3
S11306700F931F93CF93DF93CDB7DEB72A970FB6AF
S1130680F894DEBF0FBECDBF8B010E947B03FE0139
S1130690319620E030E0C801022E02C0959587957E
S11306A00A94E2F78170805D81932F5F3F4F283079
S11306B0310589F71986CE0101960E947B0387E7ED
S11306C090E00E947B032A960FB6F894DEBF0FBE1B
S11306D0CDBFDF91CF911F910F9108951BB888E191
S11306E08AB986E880BD83E389B910BC08958CB9C2
S11306F05D9BFECF0895CF93DF93EC01888188231F
S113070031F021960E94770389918111FBCFDF910B
S1130710CF9108958AB383708ABB8FEF87BB88BB60
S1130720089510925F0210925E0210925D02109280
S11307305C02109262020895009759F48AE790E0EF
S11307400E94000310925D0210925C0210926202F9
S11307500895FC0101900020E9F73197E81BF90B9B
S1130760E031F10528F5AF0110925D0210925C02B0
S11307701E161F06B4F4FC01A2E6B2E020E030E04D
S113078081918D932F5F3F4F30935D0220935C02E4
S113079024173507ACF3141615062CF041E050E08D
S11307A002C040E050E0FA01EE59FD4F1082089576
S11307B010925D0210925C0240E150E0DCCF81E0D7
S11307C080935F02089580915F02811107C0809138
S11307D05E02811106C082E990E008958AE890E003
S11307E008958EE890E00895CF93DF930E94E30389
S11307F0EC01FC0101900020E9F7AC014E1B5F0BFA
S11308004F5E5F4F60E070E080E00E948F05BE01A4
S113081080E00E947D05DF91CF91089589B3829590
S11308208F7008950F931F93CF93C9B3C295CF7060
S11308300C2F10E0B80186E990E00E943803C0FD57
S11308400CC081E090E09801082E02C035952795F0
S11308500A94E2F720FF04C00CC080E090E009C0D5
S113086001968430910579F78FE990E00E940003A6
S11308708FEFCF911F910F9108950F931F93CF93F3
S1130880DF93C7E0D0E001E010E028B3C8010C2EEC
S113089002C0880F991F0A94E2F7822788BB66B3C7
S11308A070E08DEA90E00E94380389B382958F70DE
S11308B011F48C2F07C0219740F783EB90E00E943E
S11308C000038FEFDF91CF911F910F910895209135
S11308D05C0230915D02F901EE59FD4F80832031B5
S11308E0310534F42F5F3F4F30935D0220935C0257
S11308F0E0915C02F0915D02EE59FD4F1082089583
S1130900CF93C82F8E3124F081EC90E00E94000335
S1130910CD3199F480915C0290915D02009729F0A9
S1130920019790935D0280935C02E0915C02F091E8
S11309305D02EE59FD4F108257C0CC3121F480E2A4
S11309400E94670451C0CB3139F490915F0281E079
S1130950892780935F0248C080915F028823E9F071
S11309609C2F9770933008F03FC0C595C595C595E9
S1130970C33038F48C2F880FC80F81E3890F8C0F94
S113098009C0992321F0913021F083E203C08AE267
S113099001C080E30E94670427C0CA3139F49091F2
S11309A05E0281E0892780935E021EC09C2F95958C
S11309B095959595C770933068F480915E02811186
S11309C002C081E601C081E4990F990F990FC90F04
S11309D08C0F08C080915E02811102C089E701C0BA
S11309E089E58C0F0E946704CF910895CF93DF931C
S11309F00E941204C82F0E943D04D82F6C2F0C2E85
S1130A00000C770B86ED90E00E9403036D2F0D2EF2
S1130A10000C770B8AED90E00E9403038C2F880F63
S1130A20880F880F8D0FDF91CF910895E091C30255
S1130A304E2FEE0F550B660B770B47305105D0F454
S1130A40FA01E65DFF4F0C94E10E0E94440C0895F8
S1130A500E94A40A08950E94200A08950E94E70AA9
S1130A6008950E944A0B08950E944C0A08950E941A
S1130A70150C08958EED90E00E94000308958823DC
S1130A8019F0813039F024C081B38C6F81BB0E948E
S1130A90AD07089582E00E94020980E00E94730974
S1130AA02FEF84E39CE0215080409040E1F700C0A8
S1130AB0000081E00E9473092FEF84E39CE0215041
S1130AC080409040E1F700C000000E94C1080895F2
S1130AD082E091E00E9400030895882319F0813098
S1130AE021F006C00E94890708950E94C108089554
S1130AF081E291E00E9400030895882319F0813077
S1130B0029F008C0CB010E9426080895CB010E9459
S1130B10F308089581E291E00E9400030895962F5E
S1130B20882319F0813031F009C0642F892F0E9485
S1130B3090070895842F0E94AB08089588E491E0FB
S1130B400E9400030895CF93DF9300D0CDB7DEB7A2
S1130B5069831A82BE016F5F7F4F0E947D050F90EB
S1130B600F90DF91CF910895FF920F931F93CF932E
S1130B70DF93F82EEA0140E050E00E948F0568817F
S1130B80662391F08E010F5F1F4FC0E0D0E02196E5
S1130B908F2D0E94A305F80161918F016111F7CF98
S1130BA0C031D1051CF00AC0C0E0D0E060E28F2D56
S1130BB00E94A3052196C031D105C4F3DF91CF91E2
S1130BC01F910F91FF900895672B09F09FC0009724
S1130BD011F4D89808958130910511F4D9980895A5
S1130BE08230910511F4DA9808958330910511F457
S1130BF0DB9808958430910511F4DC9808958530CC
S1130C00910511F4DD9808958630910511F4DE986C
S1130C1008958730910511F4DF9808958A3091057D
S1130C2011F4C09808958B30910511F4C19808957A
S1130C308C30910511F4C29808958D30910511F40A
S1130C40C39808958E30910511F4C49808958F3097
S1130C50910511F4C59808958031910511F4C69851
S1130C6008958131910511F4C7980895843191054F
S1130C7011F4A89808958531910511F4A99808955F
S1130C808631910511F4AA9808958731910511F4DC
S1130C90AB9808958831910511F4AC980895893181
S1130CA0910511F4AD9808958A31910511F4AE9827
S1130CB008958B31910511F4AF9808958E31910503
S1130CC011F4909808958F31910511F49198089535
S1130CD08032910511F4929808958132910511F4AE
S1130CE0939808958232910511F49498089583326B
S1130CF0910511F4959808958432910511F496980C
S1130D000895859709F09FC097980895009711F466
S1130D10D89A08958130910511F4D99A08958230B2
S1130D20910511F4DA9A08958330910511F4DB9A50
S1130D3008958430910511F4DC9A08958530910565
S1130D4011F4DD9A08958630910511F4DE9A089520
S1130D508730910511F4DF9A08958A30910511F4D2
S1130D60C09A08958B30910511F4C19A08958C307E
S1130D70910511F4C29A08958D30910511F4C39A26
S1130D8008958E30910511F4C49A08958F30910519
S1130D9011F4C59A08958031910511F4C69A089505
S1130DA08131910511F4C79A08958431910511F4A4
S1130DB0A89A08958531910511F4A99A0895863168
S1130DC0910511F4AA9A08958731910511F4AB9A0B
S1130DD008958831910511F4AC9A089589319105EB
S1130DE011F4AD9A08958A31910511F4AE9A0895DB
S1130DF08B31910511F4AF9A08958E31910511F458
S1130E00909A08958F31910511F4919A0895803242
S1130E10910511F4929A08958132910511F4939AEF
S1130E2008958232910511F4949A089583329105BC
S1130E3011F4959A08958432910511F4969A0895BF
S1130E40859709F4979A0895CF93C82F80FF07C018
S1130E5061E070E083E290E00E94E40506C060E097
S1130E6070E083E290E00E94E405C1FF07C061E006
S1130E7070E082E290E00E94E40506C060E070E069
S1130E8082E290E00E94E405C2FF07C061E070E0E6
S1130E9081E290E00E94E40506C060E070E081E237
S1130EA090E00E94E405C3FF07C061E070E080E2C7
S1130EB090E00E94E40506C060E070E080E290E00B
S1130EC00E94E405CF910895CF93C82F60E070E0AD
S1130ED085E290E00E94E4058C2F0E94240761E0E3
S1130EE070E084E290E00E94E4058FEC97E00197C3
S1130EF0F1F700C0000060E070E084E290E00E943E
S1130F00E4058FEC97E00197F1F700C00000CF9162
S1130F10089580E00E94640781E00E9464070895B8
S1130F20CF93C62F81110BC080E8860F82958F70F6
S1130F300E9464078C2F8F700E9464070CC081305C
S1130F4051F480EC860F82958F700E9464078C2F79
S1130F508F700E946407CF91089580E00E94240757
S1130F608FE39CE90197F1F700C0000083E00E9441
S1130F7064078FE097E20197F1F700C0000083E077
S1130F800E9464078FEE95E50197F1F700C0000019
S1130F9083E00E94640782E00E94640782E00E946A
S1130FA0640788E00E94640780E00E9464078CE084
S1130FB00E94640780E00E94640786E00E94640740
S1130FC00E9489070895CF93C82F61E070E085E2FD
S1130FD090E00E94E4058C2F82958F700E94240774
S1130FE061E070E084E290E00E94E4058FEC97E019
S1130FF00197F1F700C0000060E070E084E290E047
S11310000E94E4058FEC97E00197F1F700C000001F
S11310108C2F8F700E94240761E070E084E290E0DE
S11310200E94E4058FEC97E00197F1F700C00000FF
S113103060E070E084E290E00E94E4058FEC97E0C9
S11310400197F1F700C00000CF910895CF93DF938B
S1131050EC018881882331F021960E94E30789916D
S11310608111FBCFDF91CF910895EF92FF920F93FF
S11310701F93CF93DF937B01142F880F0E94A00C42
S1131080811112C0112391F0E7011150012F10E0DA
S11310900F5F1F4F0E0D1F1D89910E94C40CC017B6
S11310A0D107D1F7C0E003C0C1E001C0C0E00E9495
S11310B0BE0C8C2FDF91CF911F910F91FF90EF9079
S11310C008950F931F93CF93DF9300D000D01F9206
S11310D0CDB7DEB7082F683071F4811102C080E00B
S11310E001C088E08093660041E066E670E087E234
S11310F00E94350826C080916600162F182B19838C
S1131100802F807F8460812B8A838B7F8B8320E177
S1131110029FC0011124812B84608C838B7F8D837B
S113112045E0BE016F5F7F4F87E20E94350810FDE6
S113113008C0033030F4E3EFF1E03197F1F700C079
S113114000000F900F900F900F900F90DF91CF91B0
S11311501F910F910895CF93DF93D82FC62FE62FB9
S1131160F0E0E959FF4F982F9068808160E0892B67
S11311700E946108D0937402C0937502DF91CF91ED
S1131180089560E081E00E94610810927502109257
S113119074020895CF93C82F9091740280917302C2
S11311A0981718F4CA3059F414C0609175026F5F2F
S11311B06093750280E00E94AB08CA3091F0809180
S11311C074028F5F8093740261E08C2F0E94610827
S11311D008C0609175026F5F6093750280E00E94A1
S11311E0AB08CF910895CF93DF93EC0188818823D6
S11311F031F021960E94CA0889918111FBCFDF91B9
S1131200CF9108950F931F93CF93DF9300D000D015
S113121000D0CDB7DEB7082F80E3898394E39A83A7
S11312208B8380E28C8394E29D838E8380E1809320
S11312307302E7E6F0E08081805F82838181805FD2
S11312408383BD9AC59A0E949C0C8BE49DE101970F
S1131250F1F700C0000043E0BE016F5F7F4F87E2FB
S11312600E943508182F81EE94E00197F1F700C031
S1131270000043E0BE016F5F7F4F87E20E943508A4
S1131280182B43E0BE016F5F7F4F87E20E94350851
S1131290182B43E0BE016C5F7F4F87E20E94350844
S11312A0182B60E088E20E946108812B09F0C59840
S11312B060E08CE00E94610860E086E00E946108C2
S11312C060E081E00E94610860E0802F0E94610874
S11312D026960FB6F894DEBF0FBECDBFDF91CF9137
S11312E01F910F91089568E00E946108089580ECB1
S11312F087B980E886B9D0980895369A3699FECF92
S113130064B175B180E090E00E94E60D2AE037ED0B
S113131043E250E40E94740E20E030E04AE754E4D3
S11313200E94740E20E030E040E256E40E943E0D3C
S113133026E636E646EE5FE30E94740E20E030E0D7
S113134040E052E40E94D20C08950E946E038CE6A1
S113135091E00E947B0380E00E943F0581E00E94AF
S11313603F0540E050E060E070E081E00E948F05BE
S113137068E771E081E00E947D0540E050E060E0B4
S113138070E081E00E948F0568E771E081E00E94CF
S11313907D0568E771E081E00E947D0580E00E94A0
S11313A0640C0E948A030E940E048823B1F08FE328
S11313B09CE90197F1F700C000000E940E04882305
S11313C061F00E94F604EFE3FCE93197F1F700C005
S11313D000000E9416050E948A030E94900CE3CF2D
S11313E00E942810089541960E942810089582961C
S11313F00E9428100895895B9F4FFC0171836083CC
S11314000895C3960E9428100895CD960E9428102E
S1131410089543E951E060E070E080E00E94B40583
S11314200E94DF030E94F40389E892E00E949C0377
S113143042E652E061E070E080E00E94B405089565
S11314408F3161F462E672E088E792E00E94F3096A
S11314500E94910383E00E94640C08958E3161F42C
S113146062E672E088E792E00E94F3090E94910329
S113147081E00E94640C08950E94800442E652E0D8
S113148061E070E080E00E94B40582E692E00E9490
S11314907B030E94F40308958F3161F462E672E0E5
S11314A088E792E00E94050A0E94910386E00E9468
S11314B0640C08958E3159F462E672E088E792E094
S11314C00E94050A0E94910384E00E94640C08951E
S11314D00E9441020E940E048823D1F30E94F60464
S11314E0EFE3FCE93197F1F700C000000E944C0AD9
S11314F00E948A0308954EE951E060E070E080E0C4
S11315000E94B4050E9438020E94680A089580E08F
S11315100E946D0540E050E060E070E080E00E94D1
S11315208F0569EA71E080E00E947D050E94F40362
S113153088E792E00E949C0342E652E061E070E09A
S113154080E00E94B40508958F3161F462E672E090
S113155088E792E00E94F0090E94910382E00E94D1
S1131560640C08958E3161F462E672E088E792E0DB
S11315700E94F0090E94910380E00E94640C089587
S11315800E94800442E652E061E070E080E00E9444
S1131590B40582E692E00E947B030E94F40308955E
S11315A045EB51E060E070E080E00E94B4050E94E9
S11315B0DF030E94F4038AE992E00E949C0342E65E
S11315C052E061E070E080E00E94B40508958F313C
S11315D061F462E672E088E792E00E94F7090E94F3
S11315E0910384E00E94640C08958E3161F462E6F4
S11315F072E088E792E00E94F7090E94910382E07A
S11316000E94640C08950E94800442E652E061E066
S113161070E080E00E94B40582E692E00E947B03C1
S11316200E94DF030E94F40308954FEB51E060E051
S113163070E080E00E94B4050E94770908950F933A
S11316401F93CF93DF93CDB7DEB764970FB6F894AB
S1131650DEBF0FBECDBF0E947D098E010F5F1F4FFD
S113166022E045E00E94E70EA80161E070E080E01E
S11316700E94B405B80182E692E00E9428106496A4
S11316800FB6F894DEBF0FBECDBFDF91CF911F918F
S11316900F9108958F3161F462E672E088E792E079
S11316A00E94010A0E94910385E00E94640C08953F
S11316B08E3159F462E672E088E792E00E94010AF2
S11316C00E94910383E00E94640C0895CF93DF93FA
S11316D08BE490E00E94070FEC0168E772E00E943F
S11316E0281069E872E0CE0141960E9428106AE948
S11316F072E0CE0182960E942810FE01E95BFF4F42
S11317008091BF029091C0029183808332961182AE
S113171010826BEA72E0CE01C3960E94281065EB3A
S113172072E0CE01CD960E9428102091760230916D
S113173077022115310531F4D0937702C0937602F4
S11317400AC09C01F901E75BFF4F808191810097FA
S1131750C1F7D183C083DF91CF9108950F931F9375
S1131760CF93DF93CDB7DEB7C456D1090FB6F89443
S1131770DEBF0FBECDBF60916002709161026F5FEA
S11317807F4F072E000C880B990B0E94E80D8E01E9
S11317900F5F1F4F20E043E00E94E70E4DE050E052
S11317A060E070E080E00E948F05B80180E00E9454
S11317B07D05609160027091610288E792E00E9469
S11317C0FB090E94660BCC59DF4F0FB6F894DEBFBD
S11317D00FBECDBFDF91CF911F910F91089580E08F
S11317E00E946D0540E050E060E070E080E00E94FF
S11317F08F056CEC71E080E00E947D050E94AE0BC9
S113180040E050E061E070E080E00E948F056AED06
S113181071E080E00E947D050895E8E7F2E010821F
S1131820118A12A213AA15AE08958F3139F580E0FA
S11318300E946D0543E050E060E070E080E00E94AB
S11318408F058091600290916102019690936102EC
S1131850809360026BEE71E080E00E947D052FEFC3
S113186083ED90E3215080409040E1F700C00000F8
S113187080E00E94640C0E940D0C08958E3119F4CE
S113188083E00E94640C089581E00E94640C089532
S113189080E00E946D0540E050E060E070E080E090
S11318A00E948F0565EF71E080E00E947D0540E0B5
S11318B050E061E070E080E00E948F056EEF71E01F
S11318C080E00E947D050895CF93C82F082E000C58
S11318D0990BAA0BBB0B87309105D0F4FC01EF5C8C
S11318E0FF4F0C94E10E0E94480C16C00E94870A18
S11318F013C00E94090A10C00E94D00A0DC00E94A1
S1131900150B0AC00E947B0A07C00E94EF0B04C09B
S11319108BE092E00E940003C093C302CF9108952C
S11319208091C302843019F40E941F0B08958BE246
S113193092E00E940003089511B880E280B90895EE
S113194094EA96BF06B607FEFDCF91B1987F983012
S113195011F0903179F483B984E886BF06B607FEA6
S1131960FDCF91B1987F983139F081E0903429F41A
S113197080E0089581E0089580E0089584E986BFB9
S113198006B604FCFDCF089583B984E886BF06B685
S113199007FEFDCF91B1987F81E0983209F480E091
S11319A008955058BB27AA270E94E90C0C943A0EBC
S11319B00E942C0E38F00E94330E20F039F49F3F21
S11319C019F426F40C94290E0EF4E095E7FB0C941C
S11319D0230EE92F0E944B0E58F3BA1762077307C0
S11319E08407950720F079F4A6F50C946D0E0EF497
S11319F0E0950B2EBA2FA02D0B01B90190010C011B
S1131A00CA01A0011124FF27591B99F0593F50F432
S1131A10503E68F11A16F040A22F232F342F44278A
S1131A20585FF3CF469537952795A795F040539582
S1131A30C9F77EF41F16BA0B620B730B840BBAF052
S1131A409150A1F0FF0FBB1F661F771F881FC2F7BD
S1131A500EC0BA0F621F731F841F48F487957795D1
S1131A606795B795F7959E3F08F0B0CF9395880F8B
S1131A7008F09927EE0F9795879508950E94520DC7
S1131A800C943A0E0E94330E58F00E942C0E40F033
S1131A9029F45F3F29F00C94230E51110C946E0E1F
S1131AA00C94290E0E944B0E68F39923B1F355232D
S1131AB091F3951B550BBB27AA276217730784075D
S1131AC038F09F5F5F4F220F331F441FAA1FA9F3F3
S1131AD035D00E2E3AF0E0E832D091505040E695E1
S1131AE0001CCAF72BD0FE2F29D0660F771F881F42
S1131AF0BB1F261737074807AB07B0E809F0BB0B35
S1131B00802DBF01FF2793585F4F3AF09E3F510548
S1131B1078F00C94230E0C946E0E5F3FE4F3983E21
S1131B20D4F3869577956795B795F7959F5FC9F731
S1131B30880F911D9695879597F90895E1E0660FB2
S1131B40771F881FBB1F621773078407BA0720F02B
S1131B50621B730B840BBA0BEE1F88F7E095089594
S1131B600E94B70D6894B1110C946E0E08950E94F2
S1131B70530E88F09F5798F0B92F9927B751B0F0BA
S1131B80E1F0660F771F881F991F1AF0BA95C9F7FD
S1131B9014C0B13091F00E946D0EB1E008950C9420
S1131BA06D0E672F782F8827B85F39F0B93FCCF3D3
S1131BB0869577956795B395D9F73EF4909580957A
S1131BC0709561957F4F8F4F9F4F0895E89409C09A
S1131BD097FB3EF490958095709561957F4F8F4F5C
S1131BE09F4F9923A9F0F92F96E9BB279395F69572
S1131BF0879577956795B795F111F8CFFAF4BB0FF0
S1131C0011F460FF1BC06F5F7F4F8F4F9F4F16C053
S1131C10882311F096E911C0772321F09EE8872FDD
S1131C20762F05C0662371F096E8862F70E060E099
S1131C302AF09A95660F771F881FDAF7880F969512
S1131C40879597F9089597F99F6780E870E060E0B9
S1131C5008959FEF80EC089500240A941616170641
S1131C6018060906089500240A9412161306140689
S1131C7005060895092E0394000C11F4882352F0EC
S1131C80BB0F40F4BF2B11F460FF04C06F5F7F4FA4
S1131C908F4F9F4F089557FD9058440F551F59F08B
S1131CA05F3F71F04795880F97FB991F61F09F3F45
S1131CB079F087950895121613061406551FF2CF6E
S1131CC04695F1DF08C0161617061806991FF1CFBE
S1131CD086957105610508940895E894BB276627E5
S1131CE07727CB0197F908950E94870E0C943A0E3A
S1131CF00E942C0E38F00E94330E20F0952311F030
S1131D000C94230E0C94290E11240C946E0E0E9434
S1131D104B0E70F3959FC1F3950F50E0551F629FD2
S1131D20F001729FBB27F00DB11D639FAA27F00D30
S1131D30B11DAA1F649F6627B00DA11D661F829F57
S1131D402227B00DA11D621F739FB00DA11D621F3C
S1131D50839FA00D611D221F749F3327A00D611D59
S1131D60231F849F600D211D822F762F6A2F11243B
S1131D709F5750409AF0F1F088234AF0EE0FFF1F6E
S1131D80BB1F661F771F881F91505040A9F79E3FC5
S1131D90510580F00C94230E0C946E0E5F3FE4F317
S1131DA0983ED4F3869577956795B795F795E7951B
S1131DB09F5FC1F7FE2B880F911D9695879597F924
S1131DC00895EE0FFF1F0590F491E02D0994EF9212
S1131DD00F931F93CF93DF93E80147FD02C034E0D4
S1131DE001C034E1042E000C550B57FF03C051957C
S1131DF041955109E32E022F242FAE010E94571260
S1131E00CE01DF91CF911F910F91EF9008950F9321
S1131E101F93CF93DF938230910510F482E090E01A
S1131E20E091C602F091C70220E030E0A0E0B0E00B
S1131E30309719F140815181028113814817590764
S1131E40C8F08417950769F4109731F012960C9333
S1131E50129713961C9327C00093C6021093C702CF
S1131E6022C02115310519F04217530718F49A01BD
S1131E70BD01EF01DF01F801DBCF21153105F9F0D8
S1131E80281B390B2430310580F48A819B8161152C
S1131E90710521F0FB019383828304C09093C702F0
S1131EA08093C602FE01329644C0FE01E20FF31F86
S1131EB08193919322503109398328833AC0209128
S1131EC0C4023091C502232B41F420916200309169
S1131ED063003093C5022093C402209160003091C6
S1131EE061002115310541F42DB73EB740916400DE
S1131EF050916500241B350BE091C402F091C5029A
S1131F00E217F307A0F42E1B3F0B2817390778F0CC
S1131F10AC014E5F5F4F2417350748F04E0F5F1F2B
S1131F205093C5024093C4028193919302C0E0E0B0
S1131F30F0E0CF01DF91CF911F910F910895CF93DE
S1131F40DF93009709F481C0FC0132971382128257
S1131F50A091C602B091C702109781F4208131810B
S1131F60820F931F2091C4023091C50228173907AC
S1131F7051F5F093C502E093C40267C0ED0120E07F
S1131F8030E0CE17DF0740F44A815B819E014115A2
S1131F905105F1F0EA01F5CFD383C2834081518129
S1131FA0840F951FC817D90759F488819981840F24
S1131FB0951F0296918380838A819B819383828378
S1131FC02115310529F4F093C702E093C6023DC000
S1131FD0E901FB83EA8349915991C40FD51FEC179A
S1131FE0FD0761F480819181840F951F0296E901B8
S1131FF099838883828193819B838A83E0E0F0E0E4
S113200012968D919C911397009719F0FD01DC01B4
S1132010F7CF8D919C9111979D012E5F3F4F820FB9
S1132020931F2091C4023091C5022817390769F41F
S1132030309729F41092C7021092C60202C013828C
S11320401282B093C502A093C402DF91CF91089588
S1132050FB01DC0101900D920020E1F70895BB27FC
S11320604A3031F4992322F4BDE2909581959F4F33
S11320700C943B10BB27FB015527AA27880F991FF7
S1132080AA1FA41710F0A41B83955051B9F7A05DA3
S1132090AA3308F0A95DA193009779F7B111B19320
S11320A01192CB010C949F14AEE0B0E0EAE5F0E1AC
S11320B00C9457150D891E8986E08C831A83098335
S11320C08FEF9FE79E838D83AE01475E5F4F6F89DD
S11320D0788DCE0101960E947610EF81F885E00F8D
S11320E0F11F10822E96E4E00C947315ABE0B0E07F
S11320F0ECE7F0E10C9449156C017B018A01FC01C9
S113210017821682838181FFCCC1CE0101963C01E6
S1132110F6019381F70193FD859193FF81917F01EE
S1132120882309F4BAC1853239F493FD859193FF6C
S113213081917F01853229F4B60190E00E94AF14A9
S1132140E7CF912C212C312CFFE1F315D8F08B3201
S113215079F038F4803279F08332A1F4232D2061B0
S11321601DC08D3261F0803369F4232D216016C0C7
S1132170832D8260382EE32DE4603E2E2AC0F32D99
S1132180F8601DC037FC2DC020ED280F2A3040F028
S11321908E32B9F436FC81C1232D2064322E19C04D
S11321A036FE06C08AE0989E200D1124922E11C09E
S11321B0EAE02E9E200D1124222EF32DF0623F2EF4
S11321C008C08C3621F4832D8068382E02C08836EE
S11321D041F4F70193FD859193FF81917F01811172
S11321E0B3CF982F9F7D9554933028F40C5F1F4FE5
S11321F09FE399830DC0833631F0833771F08335C3
S113220009F059C021C0F801808189830E5F1F4FF6
S113221088248394912C530113C02801F2E04F0EBB
S1132220511CF801A080B18036FE03C0692D70E016
S113223002C06FEF7FEFC5010E9494144C0182012C
S1132240F32DFF773F2E16C0280122E0420E511CC9
S1132250F801A080B18036FE03C0692D70E002C091
S11322606FEF7FEFC5010E9489144C01F32DF068D4
S11322703F2E820133FC1BC0822D90E08816990604
S1132280B0F4B60180E290E00E94AF142A94F4CF37
S1132290F50137FC859137FE81915F01B60190E02D
S11322A00E94AF1421102A9421E0821A910881140B
S11322B0910471F7E8C0843611F0893641F5F801CC
S11322C037FE07C060817181828193810C5F1F4F4B
S11322D008C060817181072E000C880B990B0E5F7A
S11322E01F4FF32DFF763F2E97FF09C090958095E1
S11322F0709561957F4F8F4F9F4FF0683F2E2AE076
S113230030E0A3010E94EB14882E861845C085375F
S113231031F4232D2F7EB22E2AE030E025C0932DF8
S1132320997FB92E8F36C1F018F4883579F0B5C08D
S1132330803719F0883721F0B0C0E92FE061BE2E54
S1132340B4FE0DC0FB2DF460BF2E09C034FE0AC0DC
S1132350292F2660B22E06C028E030E005C020E117
S113236030E002C020E132E0F801B7FE07C060812E
S11323707181828193810C5F1F4F06C060817181DE
S113238080E090E00E5F1F4FA3010E94EB14882EA3
S11323908618FB2DFF773F2E36FE0DC0232D2E7F92
S11323A0A22E891458F434FE0BC032FC09C0832DCC
S11323B08E7EA82E05C0B82CA32C03C0B82C01C057
S11323C0B92CA4FE0FC0FE01E80DF11D80818033FD
S11323D021F49A2D997EA92E09C0A2FE06C0B394B9
S11323E0B39404C08A2D867809F0B394A3FC11C079
S11323F0A0FE06C0B21488F4280C922C9B180EC0C0
S1132400B21460F4B60180E290E00E94AF14B39479
S1132410F7CFB21418F42B1802C0982C212CA4FE68
S113242010C0B60180E390E00E94AF14A2FE17C072
S1132430A1FC03C088E790E002C088E590E0B60103
S11324400CC08A2D867859F0A1FE02C08BE201C02F
S113245080E2A7FC8DE2B60190E00E94AF148914DB
S113246038F4B60180E390E00E94AF149A94F7CF59
S11324708A94F301E80DF11D8081B60190E00E9479
S1132480AF148110F5CF222009F442CEB60180E2C8
S113249090E00E94AF142A94F6CFF60186819781CA
S11324A002C08FEF9FEF2B96E2E10C946515A9E033
S11324B0B0E0EDE5F2E10C944F156A01122FB02E55
S11324C02BE3201720F0FF24F394F00E02C02CE33A
S11324D0F22E0F2D27E0AE014F5F5F4F0E94B11324
S11324E0BC014981842F8970813031F0E1FC06C040
S11324F0E0FE06C090E205C09DE203C09BE201C07D
S113250090E05E2D507143FF3CC0911102C083E006
S113251001C084E0811718F4212F281B01C020E09A
S113252051110BC0F601822F30E2882319F0319348
S11325308150FBCFC20ED11C20E0992329F0D60193
S11325409C93F60131966F01C6010396E2FE0AC020
S11325503EE4D6013C9341E411964C9311971296B4
S11325603C9306C03EE6F601308341E64183328364
S1132570FC01322F40E2332309F442C0419331502D
S1132580FACF42FF44C0911102C083E001C084E04D
S1132590811718F4212F281B01C020E051110BC012
S11325A0F601822F30E2882319F031938150FBCF5A
S11325B0C20ED11C20E0992329F0D6019C93F60188
S11325C031966F01C6010396E2FE0BC039E4D601D1
S11325D03C933EE411963C93119736E412963C9357
S11325E007C039E6F60130833EE6318336E63283AE
S11325F0FC01322F40E2332319F041933150FBCFD9
S1132600FC01E20FF11D10828EEF9FEFA6C021E0C6
S113261030E0911102C020E030E0161617061CF4D9
S1132620FB01319602C0E1E0F0E02E0F3F1FBB201A
S113263021F0EB2DF0E0319602C0E0E0F0E02E0F47
S11326403F1FE12FF0E02E173F071CF4121B212F30
S113265001C020E08E2D887159F4F601822F30E2FA
S1132660882319F031938150FBCFC20ED11C20E096
S1132670992329F0D6019C93F60131966F015111EB
S11326800BC0F601822F90E3882319F091938150B7
S1132690FBCFC20ED11C20E00F2D060F9A81342FE0
S11326A0307144FF03C0913309F40150101624F42F
S11326B0093018F008E001C001E0AB0177FF02C067
S11326C040E050E0FB01E41BF50BA1E0B0E0AC0FEF
S11326D0BD1FEA0FFB1F8EE2A82E4B01801A910842
S11326E00B2D10E01195019511094F3FBFEF5B07CA
S11326F021F4D601AC9211966D01641775072CF084
S11327008416950614F4818101C080E34150510977
S11327103196D60111967D014017510724F0D60158
S11327208C936701E2CF6417750739F4963320F46C
S1132730953319F4311101C081E3F6018083F70167
S1132740822F90E2882319F091938150FBCFF701F7
S1132750E20FF11D108280E090E02996ECE00C94E9
S11327606B15283008F027E03327DA01990F311D63
S113277087FD916000966105710539F432602E5F22
S11327803D9330E32A95E1F708959F3F30F0803878
S11327907105610509F03C5F3C5F3D93913008F0A1
S11327A08068911DDF93CF931F930F93FF92EF9255
S11327B0192F987F9695E92F96959695E90FFF27FF
S11327C0E653FF4F99273327EE24FF24A701E7019F
S11327D005900894079428F4360FE71EF81E491F45
S11327E0511D660F771F881F991F0694A1F7059046
S11327F0079428F4E70EF81E491F561FC11D770FD2
S1132800881F991F661F0694A1F70590079428F462
S1132810F80E491F561FC71FD11D880F991F661F29
S1132820771F0694A1F70590079420F4490F561FCB
S1132830C71FD81F990F661F771F881F0694A9F713
S113284084911095177041F0D695C7955795479583
S1132850F794E7941A95C1F7E0E7F0E068941590CF
S1132860159135916591959105907FE27395E118E5
S1132870F10A430B560BC90BD009C0F7E10CF11E4A
S1132880431F561FC91FD01D7EF4703311F48A955F
S1132890E6CFE894015030F0080F0AF4002702173D
S11328A008F4202F2395022F7A3328F079E37D93BF
S11328B02A95E9F710C07D932A9589F60694979591
S11328C06795379517951794E118F10A430B560B42
S11328D0C90BD00998F023957E9173957A3308F04B
S11328E070E37C932013B8F77E9170617D9330F090
S11328F0839571E37D9370E32A95E1F71124EF90BA
S1132900FF900F911F91CF91DF91992787FD9095AB
S11329100895FC010590615070400110D8F780952E
S113292090958E0F9F1F0895FC0161507040019097
S11329300110D8F7809590958E0F9F1F0895DC01A4
S1132940FC01672F71917723E1F7329704C07C91E2
S11329506D9370836291AE17BF07C8F308950F9308
S11329601F93CF93DF93FB01238121FD03C08FEFDE
S11329709FEF2CC022FF16C04681578124813581E8
S11329804217530744F4A081B1819D012F5F3F4F4B
S1132990318320838C93268137812F5F3F4F378388
S11329A0268314C08B01EC01FB010084F185E02D2A
S11329B00995892BE1F6D80116968D919C9117976C
S11329C0019617969C938E931697CE01DF91CF9123
S11329D01F910F910895FA01AA27283051F120314F
S11329E081F1E8946F936E7F6E5F7F4F8F4F9F4F9F
S11329F0AF4FB1E03ED0B4E03CD0670F781F891FE1
S1132A009A1FA11D680F791F8A1F911DA11D6A0FAE
S1132A10711D811D911DA11D20D009F468943F9161
S1132A202AE0269F11243019305D3193DEF6CF0160
S1132A300895462F4770405D4193B3E00FD0C9F726
S1132A40F6CF462F4F70405D4A3318F0495D31FD93
S1132A504052419302D0A9F7EACFB4E0A6959795E6
S1132A60879577956795BA95C9F7009761057105BC
S1132A7008959B01AC010A2E069457954795379506
S1132A802795BA95C9F7620F731F841F951FA01D60
S1132A9008952F923F924F925F926F927F928F92FE
S1132AA09F92AF92BF92CF92DF92EF92FF920F93D9
S1132AB01F93CF93DF93CDB7DEB7CA1BDB0B0FB6E3
S1132AC0F894DEBF0FBECDBF09942A8839884888A0
S1132AD05F846E847D848C849B84AA84B984C88436
S1132AE0DF80EE80FD800C811B81AA81B981CE0F2D
S1132AF0D11D0FB6F894DEBF0FBECDBFED01089512
S1072B00F894FFCF73
S1132B040000C80220000880C000002062706D002C
S1132B14203D2025640A000D0A006E657744617423
S1132B2461206973204E756C6C003132330041426C
S1132B3443006162630050494E5F726F773A004B01
S1132B446579706164476574526F773A0050494EF1
S1132B54423A004B6579706164476574436F6C3A1B
S1132B64004B65795061645F4164644B65793A2034
S1132B7433317C333000726F7700636F6C005072B2
S1132B846F636573734B65793A20556E6465666942
S1132B946E65642043757272656E74205374617437
S1132BA465004C63645F496E69743A204C636454F1
S1132BB4797065204E6F74737570706F7274656488
S1132BC4004C63645F436C65617253637265656E44
S1132BD43A204C636454797065204E6F7420737585
S1132BE470706F72746564004C63645F506F7369D2
S1132BF474696F6E3A204C636454797065204E6F27
S1132C047420737570706F727465640068656C6C9D
S1132C146F207468657265006162636465666768E1
S1132C24696A6B6C6D6E6F70717273747576777894
S1132C34797A00456E746572204167653A00456E81
S1132C447465722042703A2000456E746572204E99
S1132C54616D653A0050686F6E65206E6F3A00547A
S1132C64656D70657261747572653A00596F757239
S1132C742053657269616C3A20004E3A436F6E6664
S1132C8469726D20503A4261636B005468616E6BE3
S1132C9420596F750057656C636F6D652100312E83
S1132CA4204E657720456E74727900476F746F53B4
S1132CB4746174653A206E65775374617465206E2B
S1132CC46F7420646566696E656400537461746529
S1132CD4735F526566726573683A206375727265D0
S1132CE46E747374617465206E6F742064656669B0
S1072CF46E656400A1
S9030000FC
